{
  "contractName": "ERC721Enumerable",
  "abi": [
    {
      "inputs": [],
      "stateMutability": "nonpayable",
      "type": "constructor"
    },
    {
      "anonymous": false,
      "inputs": [
        {
          "indexed": true,
          "internalType": "address",
          "name": "_owner",
          "type": "address"
        },
        {
          "indexed": true,
          "internalType": "address",
          "name": "_approved",
          "type": "address"
        },
        {
          "indexed": true,
          "internalType": "uint256",
          "name": "_tokenId",
          "type": "uint256"
        }
      ],
      "name": "Approval",
      "type": "event"
    },
    {
      "anonymous": false,
      "inputs": [
        {
          "indexed": true,
          "internalType": "address",
          "name": "_owner",
          "type": "address"
        },
        {
          "indexed": true,
          "internalType": "address",
          "name": "_operator",
          "type": "address"
        },
        {
          "indexed": false,
          "internalType": "bool",
          "name": "_approved",
          "type": "bool"
        }
      ],
      "name": "ApprovalForAll",
      "type": "event"
    },
    {
      "anonymous": false,
      "inputs": [
        {
          "indexed": true,
          "internalType": "address",
          "name": "_previousOwner",
          "type": "address"
        },
        {
          "indexed": true,
          "internalType": "address",
          "name": "_newOnwer",
          "type": "address"
        }
      ],
      "name": "NEW_OWNER",
      "type": "event"
    },
    {
      "anonymous": false,
      "inputs": [
        {
          "indexed": true,
          "internalType": "address",
          "name": "_origin",
          "type": "address"
        }
      ],
      "name": "PAUSED",
      "type": "event"
    },
    {
      "anonymous": false,
      "inputs": [
        {
          "indexed": true,
          "internalType": "address",
          "name": "_from",
          "type": "address"
        },
        {
          "indexed": true,
          "internalType": "address",
          "name": "_to",
          "type": "address"
        },
        {
          "indexed": true,
          "internalType": "uint256",
          "name": "_tokenId",
          "type": "uint256"
        }
      ],
      "name": "Transfer",
      "type": "event"
    },
    {
      "anonymous": false,
      "inputs": [
        {
          "indexed": true,
          "internalType": "address",
          "name": "_origin",
          "type": "address"
        }
      ],
      "name": "UNPAUSED",
      "type": "event"
    },
    {
      "inputs": [
        {
          "internalType": "address",
          "name": "to",
          "type": "address"
        },
        {
          "internalType": "uint256",
          "name": "tokenId",
          "type": "uint256"
        }
      ],
      "name": "approve",
      "outputs": [],
      "stateMutability": "nonpayable",
      "type": "function"
    },
    {
      "inputs": [
        {
          "internalType": "address",
          "name": "owner",
          "type": "address"
        }
      ],
      "name": "balanceOf",
      "outputs": [
        {
          "internalType": "uint256",
          "name": "",
          "type": "uint256"
        }
      ],
      "stateMutability": "view",
      "type": "function"
    },
    {
      "inputs": [
        {
          "internalType": "uint256",
          "name": "tokenId",
          "type": "uint256"
        }
      ],
      "name": "getApproved",
      "outputs": [
        {
          "internalType": "address",
          "name": "",
          "type": "address"
        }
      ],
      "stateMutability": "view",
      "type": "function"
    },
    {
      "inputs": [],
      "name": "getOwner",
      "outputs": [
        {
          "internalType": "address",
          "name": "",
          "type": "address"
        }
      ],
      "stateMutability": "view",
      "type": "function"
    },
    {
      "inputs": [
        {
          "internalType": "address",
          "name": "owner",
          "type": "address"
        },
        {
          "internalType": "address",
          "name": "operator",
          "type": "address"
        }
      ],
      "name": "isApprovedForAll",
      "outputs": [
        {
          "internalType": "bool",
          "name": "",
          "type": "bool"
        }
      ],
      "stateMutability": "view",
      "type": "function"
    },
    {
      "inputs": [
        {
          "internalType": "uint256",
          "name": "tokenId",
          "type": "uint256"
        }
      ],
      "name": "ownerOf",
      "outputs": [
        {
          "internalType": "address",
          "name": "",
          "type": "address"
        }
      ],
      "stateMutability": "view",
      "type": "function"
    },
    {
      "inputs": [
        {
          "internalType": "address",
          "name": "from",
          "type": "address"
        },
        {
          "internalType": "address",
          "name": "to",
          "type": "address"
        },
        {
          "internalType": "uint256",
          "name": "tokenId",
          "type": "uint256"
        }
      ],
      "name": "safeTransferFrom",
      "outputs": [],
      "stateMutability": "nonpayable",
      "type": "function"
    },
    {
      "inputs": [
        {
          "internalType": "address",
          "name": "from",
          "type": "address"
        },
        {
          "internalType": "address",
          "name": "to",
          "type": "address"
        },
        {
          "internalType": "uint256",
          "name": "tokenId",
          "type": "uint256"
        },
        {
          "internalType": "bytes",
          "name": "_data",
          "type": "bytes"
        }
      ],
      "name": "safeTransferFrom",
      "outputs": [],
      "stateMutability": "nonpayable",
      "type": "function"
    },
    {
      "inputs": [
        {
          "internalType": "address",
          "name": "to",
          "type": "address"
        },
        {
          "internalType": "bool",
          "name": "approved",
          "type": "bool"
        }
      ],
      "name": "setApprovalForAll",
      "outputs": [],
      "stateMutability": "nonpayable",
      "type": "function"
    },
    {
      "inputs": [
        {
          "internalType": "bool",
          "name": "isPaused",
          "type": "bool"
        }
      ],
      "name": "setPaused",
      "outputs": [],
      "stateMutability": "nonpayable",
      "type": "function"
    },
    {
      "inputs": [
        {
          "internalType": "bytes4",
          "name": "interfaceId",
          "type": "bytes4"
        }
      ],
      "name": "supportsInterface",
      "outputs": [
        {
          "internalType": "bool",
          "name": "",
          "type": "bool"
        }
      ],
      "stateMutability": "view",
      "type": "function"
    },
    {
      "inputs": [
        {
          "internalType": "address",
          "name": "from",
          "type": "address"
        },
        {
          "internalType": "address",
          "name": "to",
          "type": "address"
        },
        {
          "internalType": "uint256",
          "name": "tokenId",
          "type": "uint256"
        }
      ],
      "name": "transferFrom",
      "outputs": [],
      "stateMutability": "nonpayable",
      "type": "function"
    },
    {
      "inputs": [
        {
          "internalType": "address",
          "name": "newOwner",
          "type": "address"
        }
      ],
      "name": "transferOwnership",
      "outputs": [],
      "stateMutability": "nonpayable",
      "type": "function"
    },
    {
      "inputs": [
        {
          "internalType": "address",
          "name": "owner",
          "type": "address"
        },
        {
          "internalType": "uint256",
          "name": "index",
          "type": "uint256"
        }
      ],
      "name": "tokenOfOwnerByIndex",
      "outputs": [
        {
          "internalType": "uint256",
          "name": "",
          "type": "uint256"
        }
      ],
      "stateMutability": "view",
      "type": "function"
    },
    {
      "inputs": [],
      "name": "totalSupply",
      "outputs": [
        {
          "internalType": "uint256",
          "name": "",
          "type": "uint256"
        }
      ],
      "stateMutability": "view",
      "type": "function"
    },
    {
      "inputs": [
        {
          "internalType": "uint256",
          "name": "index",
          "type": "uint256"
        }
      ],
      "name": "tokenByIndex",
      "outputs": [
        {
          "internalType": "uint256",
          "name": "",
          "type": "uint256"
        }
      ],
      "stateMutability": "view",
      "type": "function"
    }
  ],
  "bytecode": "0x60806040523480156200001157600080fd5b50336000806101000a81548173ffffffffffffffffffffffffffffffffffffffff021916908373ffffffffffffffffffffffffffffffffffffffff16021790555060008054906101000a900473ffffffffffffffffffffffffffffffffffffffff1673ffffffffffffffffffffffffffffffffffffffff16600073ffffffffffffffffffffffffffffffffffffffff167f626cdf6166418a6397bb90e5da5168ced0150f0bf4bc7c9389bf65369f18028060405160405180910390a360008060146101000a81548160ff021916908315150217905550620000ff6301ffc9a760e01b6200013560201b60201c565b620001176380ac58cd60e01b6200013560201b60201c565b6200012f63780e9d6360e01b6200013560201b60201c565b62000290565b63ffffffff60e01b817bffffffffffffffffffffffffffffffffffffffffffffffffffffffff19161415620001a1576040517f08c379a0000000000000000000000000000000000000000000000000000000008152600401620001989062000234565b60405180910390fd5b6001806000837bffffffffffffffffffffffffffffffffffffffffffffffffffffffff19167bffffffffffffffffffffffffffffffffffffffffffffffffffffffff1916815260200190815260200160002060006101000a81548160ff02191690831515021790555050565b60006200021c60178362000256565b9150620002298262000267565b602082019050919050565b600060208201905081810360008301526200024f816200020d565b9050919050565b600082825260208201905092915050565b7f496e746572666163654944206e6f7420636f7272656374000000000000000000600082015250565b61262280620002a06000396000f3fe608060405234801561001057600080fd5b50600436106101005760003560e01c80634f6ccce711610097578063a22cb46511610066578063a22cb465146102d1578063b88d4fde146102ed578063e985e9c514610309578063f2fde38b1461033957610100565b80634f6ccce7146102235780636352211e1461025357806370a0823114610283578063893d20e8146102b357610100565b806318160ddd116100d357806318160ddd1461019d57806323b872dd146101bb5780632f745c59146101d757806342842e0e1461020757610100565b806301ffc9a714610105578063081812fc14610135578063095ea7b31461016557806316c38b3c14610181575b600080fd5b61011f600480360381019061011a9190611aa1565b610355565b60405161012c9190611dd3565b60405180910390f35b61014f600480360381019061014a9190611af3565b6103bd565b60405161015c9190611d6c565b60405180910390f35b61017f600480360381019061017a9190611a3c565b6103fa565b005b61019b60048036038101906101969190611a78565b6105c1565b005b6101a561070d565b6040516101b29190611fae565b60405180910390f35b6101d560048036038101906101d09190611936565b61071a565b005b6101f160048036038101906101ec9190611a3c565b6107c3565b6040516101fe9190611fae565b60405180910390f35b610221600480360381019061021c9190611936565b610899565b005b61023d60048036038101906102389190611af3565b610909565b60405161024a9190611fae565b60405180910390f35b61026d60048036038101906102689190611af3565b6109a0565b60405161027a9190611d6c565b60405180910390f35b61029d600480360381019061029891906118d1565b6109dd565b6040516102aa9190611fae565b60405180910390f35b6102bb610a2d565b6040516102c89190611d6c565b60405180910390f35b6102eb60048036038101906102e69190611a00565b610a56565b005b61030760048036038101906103029190611985565b610c12565b005b610323600480360381019061031e91906118fa565b610cbe565b6040516103309190611dd3565b60405180910390f35b610353600480360381019061034e91906118d1565b610d52565b005b600060016000837bffffffffffffffffffffffffffffffffffffffffffffffffffffffff19167bffffffffffffffffffffffffffffffffffffffffffffffffffffffff1916815260200190815260200160002060009054906101000a900460ff169050919050565b60006003600083815260200190815260200160002060009054906101000a900473ffffffffffffffffffffffffffffffffffffffff169050919050565b600060149054906101000a900460ff161561044a576040517f08c379a000000000000000000000000000000000000000000000000000000000815260040161044190611e2e565b60405180910390fd5b6000610455826109a0565b90508073ffffffffffffffffffffffffffffffffffffffff168373ffffffffffffffffffffffffffffffffffffffff1614156104c6576040517f08c379a00000000000000000000000000000000000000000000000000000000081526004016104bd90611e0e565b60405180910390fd5b6104d03383610f7b565b61050f576040517f08c379a000000000000000000000000000000000000000000000000000000000815260040161050690611ece565b60405180910390fd5b826003600084815260200190815260200160002060006101000a81548173ffffffffffffffffffffffffffffffffffffffff021916908373ffffffffffffffffffffffffffffffffffffffff160217905550818373ffffffffffffffffffffffffffffffffffffffff168273ffffffffffffffffffffffffffffffffffffffff167f8c5be1e5ebec7d5bd14f71427d1e84f3dd0314c0f7b2291e5b200ac8c7c3b92560405160405180910390a4505050565b60008054906101000a900473ffffffffffffffffffffffffffffffffffffffff1673ffffffffffffffffffffffffffffffffffffffff163373ffffffffffffffffffffffffffffffffffffffff161461064f576040517f08c379a000000000000000000000000000000000000000000000000000000000815260040161064690611f0e565b60405180910390fd5b80600060146101000a81548160ff021916908315150217905550600060149054906101000a900460ff16156106c6573373ffffffffffffffffffffffffffffffffffffffff167f4b747fea41327811583b4e6ed38857cbc8340504c45e4a5bae62602deaa2d7ca60405160405180910390a261070a565b3373ffffffffffffffffffffffffffffffffffffffff167f3ffe570da3d55d4cf7ef7fa0466eb22a04ea114015c4514149c850a1663edf4560405160405180910390a25b50565b6000600880549050905090565b600060149054906101000a900460ff161561076a576040517f08c379a000000000000000000000000000000000000000000000000000000000815260040161076190611e2e565b60405180910390fd5b6107743382610f7b565b6107b3576040517f08c379a00000000000000000000000000000000000000000000000000000000081526004016107aa90611eae565b60405180910390fd5b6107be838383611010565b505050565b60006107ce836109dd565b821061080f576040517f08c379a000000000000000000000000000000000000000000000000000000000815260040161080690611e6e565b60405180910390fd5b600660008473ffffffffffffffffffffffffffffffffffffffff1673ffffffffffffffffffffffffffffffffffffffff1681526020019081526020016000208281548110610886577f4e487b7100000000000000000000000000000000000000000000000000000000600052603260045260246000fd5b9060005260206000200154905092915050565b600060149054906101000a900460ff16156108e9576040517f08c379a00000000000000000000000000000000000000000000000000000000081526004016108e090611e2e565b60405180910390fd5b61090483838360405180602001604052806000815250610c12565b505050565b600061091361070d565b8210610954576040517f08c379a000000000000000000000000000000000000000000000000000000000815260040161094b90611e4e565b60405180910390fd5b6008828154811061098e577f4e487b7100000000000000000000000000000000000000000000000000000000600052603260045260246000fd5b90600052602060002001549050919050565b60006002600083815260200190815260200160002060009054906101000a900473ffffffffffffffffffffffffffffffffffffffff169050919050565b6000610a26600460008473ffffffffffffffffffffffffffffffffffffffff1673ffffffffffffffffffffffffffffffffffffffff168152602001908152602001600020611034565b9050919050565b60008060009054906101000a900473ffffffffffffffffffffffffffffffffffffffff16905090565b600060149054906101000a900460ff1615610aa6576040517f08c379a0000000000000000000000000000000000000000000000000000000008152600401610a9d90611e2e565b60405180910390fd5b3373ffffffffffffffffffffffffffffffffffffffff168273ffffffffffffffffffffffffffffffffffffffff161415610b15576040517f08c379a0000000000000000000000000000000000000000000000000000000008152600401610b0c90611e8e565b60405180910390fd5b80600560003373ffffffffffffffffffffffffffffffffffffffff1673ffffffffffffffffffffffffffffffffffffffff16815260200190815260200160002060008473ffffffffffffffffffffffffffffffffffffffff1673ffffffffffffffffffffffffffffffffffffffff16815260200190815260200160002060006101000a81548160ff0219169083151502179055508173ffffffffffffffffffffffffffffffffffffffff163373ffffffffffffffffffffffffffffffffffffffff167f17307eab39ab6107e8899845ad3d59bd9653f200f220920489ca2b5937696c3183604051610c069190611dd3565b60405180910390a35050565b600060149054906101000a900460ff1615610c62576040517f08c379a0000000000000000000000000000000000000000000000000000000008152600401610c5990611e2e565b60405180910390fd5b610c6d84848461071a565b610c7984848484611042565b610cb8576040517f08c379a0000000000000000000000000000000000000000000000000000000008152600401610caf90611f2e565b60405180910390fd5b50505050565b6000600560008473ffffffffffffffffffffffffffffffffffffffff1673ffffffffffffffffffffffffffffffffffffffff16815260200190815260200160002060008373ffffffffffffffffffffffffffffffffffffffff1673ffffffffffffffffffffffffffffffffffffffff16815260200190815260200160002060009054906101000a900460ff16905092915050565b60008054906101000a900473ffffffffffffffffffffffffffffffffffffffff1673ffffffffffffffffffffffffffffffffffffffff163373ffffffffffffffffffffffffffffffffffffffff1614610de0576040517f08c379a0000000000000000000000000000000000000000000000000000000008152600401610dd790611f0e565b60405180910390fd5b600073ffffffffffffffffffffffffffffffffffffffff163373ffffffffffffffffffffffffffffffffffffffff161415610e50576040517f08c379a0000000000000000000000000000000000000000000000000000000008152600401610e4790611eee565b60405180910390fd5b3373ffffffffffffffffffffffffffffffffffffffff163273ffffffffffffffffffffffffffffffffffffffff1614610ebe576040517f08c379a0000000000000000000000000000000000000000000000000000000008152600401610eb590611f8e565b60405180910390fd5b8073ffffffffffffffffffffffffffffffffffffffff1660008054906101000a900473ffffffffffffffffffffffffffffffffffffffff1673ffffffffffffffffffffffffffffffffffffffff167f626cdf6166418a6397bb90e5da5168ced0150f0bf4bc7c9389bf65369f18028060405160405180910390a3806000806101000a81548173ffffffffffffffffffffffffffffffffffffffff021916908373ffffffffffffffffffffffffffffffffffffffff16021790555050565b600080610f87836109a0565b90508073ffffffffffffffffffffffffffffffffffffffff168473ffffffffffffffffffffffffffffffffffffffff161480610ff657508373ffffffffffffffffffffffffffffffffffffffff16610fde846103bd565b73ffffffffffffffffffffffffffffffffffffffff16145b8061100757506110068185610cbe565b5b91505092915050565b61101b838383611159565b61102583826113b3565b61102f82826115e3565b505050565b600081600001549050919050565b60006110638473ffffffffffffffffffffffffffffffffffffffff166116a7565b6110705760019050611151565b60008473ffffffffffffffffffffffffffffffffffffffff1663150b7a02338887876040518563ffffffff1660e01b81526004016110b19493929190611d87565b602060405180830381600087803b1580156110cb57600080fd5b505af11580156110df573d6000803e3d6000fd5b505050506040513d601f19601f820116820180604052508101906111039190611aca565b905063150b7a0260e01b7bffffffffffffffffffffffffffffffffffffffffffffffffffffffff1916817bffffffffffffffffffffffffffffffffffffffffffffffffffffffff1916149150505b949350505050565b8273ffffffffffffffffffffffffffffffffffffffff166002600083815260200190815260200160002060009054906101000a900473ffffffffffffffffffffffffffffffffffffffff1673ffffffffffffffffffffffffffffffffffffffff16146111fa576040517f08c379a00000000000000000000000000000000000000000000000000000000081526004016111f190611f4e565b60405180910390fd5b600073ffffffffffffffffffffffffffffffffffffffff168273ffffffffffffffffffffffffffffffffffffffff16141561126a576040517f08c379a000000000000000000000000000000000000000000000000000000000815260040161126190611f6e565b60405180910390fd5b611273816116ba565b6112ba600460008573ffffffffffffffffffffffffffffffffffffffff1673ffffffffffffffffffffffffffffffffffffffff168152602001908152602001600020611778565b611301600460008473ffffffffffffffffffffffffffffffffffffffff1673ffffffffffffffffffffffffffffffffffffffff1681526020019081526020016000206117d4565b816002600083815260200190815260200160002060006101000a81548173ffffffffffffffffffffffffffffffffffffffff021916908373ffffffffffffffffffffffffffffffffffffffff160217905550808273ffffffffffffffffffffffffffffffffffffffff168473ffffffffffffffffffffffffffffffffffffffff167fddf252ad1be2c89b69c2b068fc378daa952ba7f163c4a11628f55a4df523b3ef60405160405180910390a4505050565b600061140b6001600660008673ffffffffffffffffffffffffffffffffffffffff1673ffffffffffffffffffffffffffffffffffffffff168152602001908152602001600020805490506117ea90919063ffffffff16565b9050600060076000848152602001908152602001600020549050818114611552576000600660008673ffffffffffffffffffffffffffffffffffffffff1673ffffffffffffffffffffffffffffffffffffffff16815260200190815260200160002083815481106114a5577f4e487b7100000000000000000000000000000000000000000000000000000000600052603260045260246000fd5b9060005260206000200154905080600660008773ffffffffffffffffffffffffffffffffffffffff1673ffffffffffffffffffffffffffffffffffffffff168152602001908152602001600020838154811061152a577f4e487b7100000000000000000000000000000000000000000000000000000000600052603260045260246000fd5b9060005260206000200181905550816007600083815260200190815260200160002081905550505b600660008573ffffffffffffffffffffffffffffffffffffffff1673ffffffffffffffffffffffffffffffffffffffff1681526020019081526020016000208054806115c7577f4e487b7100000000000000000000000000000000000000000000000000000000600052603160045260246000fd5b6001900381819060005260206000200160009055905550505050565b600660008373ffffffffffffffffffffffffffffffffffffffff1673ffffffffffffffffffffffffffffffffffffffff168152602001908152602001600020805490506007600083815260200190815260200160002081905550600660008373ffffffffffffffffffffffffffffffffffffffff1673ffffffffffffffffffffffffffffffffffffffff1681526020019081526020016000208190806001815401808255809150506001900390600052602060002001600090919091909150555050565b600080823b905060008111915050919050565b600073ffffffffffffffffffffffffffffffffffffffff166003600083815260200190815260200160002060009054906101000a900473ffffffffffffffffffffffffffffffffffffffff1673ffffffffffffffffffffffffffffffffffffffff16146117755760006003600083815260200190815260200160002060006101000a81548173ffffffffffffffffffffffffffffffffffffffff021916908373ffffffffffffffffffffffffffffffffffffffff1602179055505b50565b600081600001549050600081116117c4576040517f08c379a00000000000000000000000000000000000000000000000000000000081526004016117bb90611dee565b60405180910390fd5b6001810382600001819055505050565b6001816000016000828254019250508190555050565b600081836117f8919061204c565b905092915050565b600061181361180e84611fee565b611fc9565b90508281526020810184848401111561182b57600080fd5b6118368482856120f4565b509392505050565b60008135905061184d81612590565b92915050565b600081359050611862816125a7565b92915050565b600081359050611877816125be565b92915050565b60008151905061188c816125be565b92915050565b600082601f8301126118a357600080fd5b81356118b3848260208601611800565b91505092915050565b6000813590506118cb816125d5565b92915050565b6000602082840312156118e357600080fd5b60006118f18482850161183e565b91505092915050565b6000806040838503121561190d57600080fd5b600061191b8582860161183e565b925050602061192c8582860161183e565b9150509250929050565b60008060006060848603121561194b57600080fd5b60006119598682870161183e565b935050602061196a8682870161183e565b925050604061197b868287016118bc565b9150509250925092565b6000806000806080858703121561199b57600080fd5b60006119a98782880161183e565b94505060206119ba8782880161183e565b93505060406119cb878288016118bc565b925050606085013567ffffffffffffffff8111156119e857600080fd5b6119f487828801611892565b91505092959194509250565b60008060408385031215611a1357600080fd5b6000611a218582860161183e565b9250506020611a3285828601611853565b9150509250929050565b60008060408385031215611a4f57600080fd5b6000611a5d8582860161183e565b9250506020611a6e858286016118bc565b9150509250929050565b600060208284031215611a8a57600080fd5b6000611a9884828501611853565b91505092915050565b600060208284031215611ab357600080fd5b6000611ac184828501611868565b91505092915050565b600060208284031215611adc57600080fd5b6000611aea8482850161187d565b91505092915050565b600060208284031215611b0557600080fd5b6000611b13848285016118bc565b91505092915050565b611b2581612080565b82525050565b611b3481612092565b82525050565b6000611b458261201f565b611b4f818561202a565b9350611b5f818560208601612103565b611b68816121c5565b840191505092915050565b6000611b80601b8361203b565b9150611b8b826121d6565b602082019050919050565b6000611ba360278361203b565b9150611bae826121ff565b604082019050919050565b6000611bc6603f8361203b565b9150611bd18261224e565b604082019050919050565b6000611be960298361203b565b9150611bf48261229d565b604082019050919050565b6000611c0c60248361203b565b9150611c17826122ec565b604082019050919050565b6000611c2f60268361203b565b9150611c3a8261233b565b604082019050919050565b6000611c52601d8361203b565b9150611c5d8261238a565b602082019050919050565b6000611c75604b8361203b565b9150611c80826123b3565b606082019050919050565b6000611c98601d8361203b565b9150611ca382612428565b602082019050919050565b6000611cbb60248361203b565b9150611cc682612451565b604082019050919050565b6000611cde60268361203b565b9150611ce9826124a0565b604082019050919050565b6000611d01602a8361203b565b9150611d0c826124ef565b604082019050919050565b6000611d2460158361203b565b9150611d2f8261253e565b602082019050919050565b6000611d4760148361203b565b9150611d5282612567565b602082019050919050565b611d66816120ea565b82525050565b6000602082019050611d816000830184611b1c565b92915050565b6000608082019050611d9c6000830187611b1c565b611da96020830186611b1c565b611db66040830185611d5d565b8181036060830152611dc88184611b3a565b905095945050505050565b6000602082019050611de86000830184611b2b565b92915050565b60006020820190508181036000830152611e0781611b73565b9050919050565b60006020820190508181036000830152611e2781611b96565b9050919050565b60006020820190508181036000830152611e4781611bb9565b9050919050565b60006020820190508181036000830152611e6781611bdc565b9050919050565b60006020820190508181036000830152611e8781611bff565b9050919050565b60006020820190508181036000830152611ea781611c22565b9050919050565b60006020820190508181036000830152611ec781611c45565b9050919050565b60006020820190508181036000830152611ee781611c68565b9050919050565b60006020820190508181036000830152611f0781611c8b565b9050919050565b60006020820190508181036000830152611f2781611cae565b9050919050565b60006020820190508181036000830152611f4781611cd1565b9050919050565b60006020820190508181036000830152611f6781611cf4565b9050919050565b60006020820190508181036000830152611f8781611d17565b9050919050565b60006020820190508181036000830152611fa781611d3a565b9050919050565b6000602082019050611fc36000830184611d5d565b92915050565b6000611fd3611fe4565b9050611fdf8282612136565b919050565b6000604051905090565b600067ffffffffffffffff82111561200957612008612196565b5b612012826121c5565b9050602081019050919050565b600081519050919050565b600082825260208201905092915050565b600082825260208201905092915050565b6000612057826120ea565b9150612062836120ea565b92508282101561207557612074612167565b5b828203905092915050565b600061208b826120ca565b9050919050565b60008115159050919050565b60007fffffffff0000000000000000000000000000000000000000000000000000000082169050919050565b600073ffffffffffffffffffffffffffffffffffffffff82169050919050565b6000819050919050565b82818337600083830152505050565b60005b83811015612121578082015181840152602081019050612106565b83811115612130576000848401525b50505050565b61213f826121c5565b810181811067ffffffffffffffff8211171561215e5761215d612196565b5b80604052505050565b7f4e487b7100000000000000000000000000000000000000000000000000000000600052601160045260246000fd5b7f4e487b7100000000000000000000000000000000000000000000000000000000600052604160045260246000fd5b6000601f19601f8301169050919050565b7f436f756e7465723a2064656372656d656e74206f766572666c6f770000000000600082015250565b7f44657374696e6174696f6e2063616e6e6f74206265207468652063757272656e60008201527f74206f776e657200000000000000000000000000000000000000000000000000602082015250565b7f436f6e7472616374206d757374206e6f742062652070617573656420696e206f60008201527f7264657220746f2063616c6c20746869732066756e6374696f6e616c69747900602082015250565b7f496e646578206d757374206265206c6f776572207468616e2074686520746f7460008201527f616c20737570706c790000000000000000000000000000000000000000000000602082015250565b7f496e646578206d757374206265206c6f776572207468616e20746f6b656e206360008201527f6f756e7400000000000000000000000000000000000000000000000000000000602082015250565b7f43616c6c65722063616e6e6f742073657420617070726f76616c20666f72206860008201527f696d73656c660000000000000000000000000000000000000000000000000000602082015250565b7f4163636f756e74206e6f7420617070726f766564206f72206f776e6572000000600082015250565b7f43616c6c6572206973206e6f742063757272656e74206f776e6572206f72206460008201527f6f6573206e6f74206861766520617070726f76616c20746f207472616e736d6960208201527f742074686520746f6b656e000000000000000000000000000000000000000000604082015250565b7f43616c6c65722063616e6e6f74206265206e756c6c2061646472657373000000600082015250565b7f43616c6c6572206d757374206265206f776e6572206f662074686520636f6e7460008201527f7261637400000000000000000000000000000000000000000000000000000000602082015250565b7f43616e6e6f74207472616e736665722045524337323120746f2074686973206160008201527f63636f756e740000000000000000000000000000000000000000000000000000602082015250565b7f46726f6d2061646472657373206973206e6f7420746865206f776e6572206f6660008201527f2074686520746f6b656e00000000000000000000000000000000000000000000602082015250565b7f546f206164647265737320697320696e76616c69640000000000000000000000600082015250565b7f43616c6c6572206d757374206265206120454f41000000000000000000000000600082015250565b61259981612080565b81146125a457600080fd5b50565b6125b081612092565b81146125bb57600080fd5b50565b6125c78161209e565b81146125d257600080fd5b50565b6125de816120ea565b81146125e957600080fd5b5056fea2646970667358221220813c2ccf2022efa41d4308f7924151358c7e170fc2ff0d8ce5eb0e0c40caa02b64736f6c63430008040033",
  "immutableReferences": {},
  "source": "// \"SPDX-License-Identifier: MIYA\"\n\npragma solidity ^0.8.0;\n\nimport \"@openzeppelin/contracts/utils/Address.sol\";\nimport \"@openzeppelin/contracts/utils/Counters.sol\";\nimport \"@openzeppelin/contracts/utils/math/SafeMath.sol\";\nimport \"@openzeppelin/contracts/token/ERC721/IERC721Receiver.sol\";\nimport \"./Provable.sol\";\n\ncontract Ownable {\n    event NEW_OWNER(address indexed _previousOwner, address indexed _newOnwer);\n\n    address private _owner;\n\n    constructor() {\n        _owner = msg.sender;\n        emit NEW_OWNER(address(0), _owner);\n    }\n\n    modifier realEOA() {\n        require(msg.sender != address(0), \"Caller cannot be null address\");\n        require(tx.origin == msg.sender, \"Caller must be a EOA\");\n        _;\n    }\n    modifier onlyOwner() {\n        require(msg.sender == _owner, \"Caller must be owner of the contract\");\n        _;\n    }\n\n    function getOwner() public view returns (address) {\n        return _owner;\n    }\n\n    function transferOwnership(address newOwner) public onlyOwner realEOA {\n        emit NEW_OWNER(_owner, newOwner);\n        _owner = newOwner;\n    }\n}\n\ncontract Pausable is Ownable {\n    bool private _paused;\n    event PAUSED(address indexed _origin);\n    event UNPAUSED(address indexed _origin);\n\n    constructor() {\n        _paused = false;\n    }\n\n    modifier whenNotPaused() {\n        require(\n            !_paused,\n            \"Contract must not be paused in order to call this functionality\"\n        );\n        _;\n    }\n\n    modifier paused() {\n        require(\n            _paused,\n            \"Contract must be paused in order to call this functionality\"\n        );\n        _;\n    }\n\n    function setPaused(bool isPaused) public onlyOwner {\n        _paused = isPaused;\n        if (_paused) {\n            emit PAUSED(msg.sender);\n        } else {\n            emit UNPAUSED(msg.sender);\n        }\n    }\n}\n\nabstract contract ERC165 {\n    bytes4 private constant _INTERFACE_ID_ERC165 = 0x01ffc9a7;\n    /*\n     * 0x01ffc9a7 ===\n     *     bytes4(keccak256('supportsInterface(bytes4)'))\n     */\n\n    /**\n     * @dev a mapping of interface id to whether or not it's supported\n     */\n    mapping(bytes4 => bool) private _supportedInterfaces;\n\n    /**\n     * @dev A contract implementing SupportsInterfaceWithLookup\n     * implement ERC165 itself\n     */\n    constructor() {\n        _registerInterface(_INTERFACE_ID_ERC165);\n    }\n\n    /**\n     * @dev implement supportsInterface(bytes4) using a lookup table\n     */\n    function supportsInterface(bytes4 interfaceId)\n        external\n        view\n        returns (bool)\n    {\n        return _supportedInterfaces[interfaceId];\n    }\n\n    /**\n     * @dev internal method for registering an interface\n     */\n    function _registerInterface(bytes4 interfaceId) internal {\n        require(interfaceId != 0xffffffff, \"InterfaceID not correct\");\n        _supportedInterfaces[interfaceId] = true;\n    }\n}\n\ncontract ERC721 is Pausable, ERC165 {\n    event Transfer(\n        address indexed _from,\n        address indexed _to,\n        uint256 indexed _tokenId\n    );\n\n    event Approval(\n        address indexed _owner,\n        address indexed _approved,\n        uint256 indexed _tokenId\n    );\n\n    event ApprovalForAll(\n        address indexed _owner,\n        address indexed _operator,\n        bool _approved\n    );\n\n    using SafeMath for uint256;\n    using Address for address;\n    using Counters for Counters.Counter;\n\n    // Equals to `bytes4(keccak256(\"onERC721Received(address,address,uint256,bytes)\"))`\n    // which can be also obtained as `IERC721Receiver(0).onERC721Received.selector`\n    bytes4 private constant _ERC721_RECEIVED = 0x150b7a02;\n\n    // Mapping from token ID to owner\n    mapping(uint256 => address) private _tokenOwner;\n\n    // Mapping from token ID to approved address\n    mapping(uint256 => address) private _tokenApprovals;\n\n    // Mapping from owner to number of owned token\n    // IMPORTANT: this mapping uses Counters lib which is used to protect overflow when incrementing/decrementing a uint\n    // use the following functions when interacting with Counters: increment(), decrement(), and current() to get the value\n    // see: https://github.com/OpenZeppelin/openzeppelin-contracts/blob/master/contracts/utils/Counters.sol\n    mapping(address => Counters.Counter) private _ownedTokensCount;\n\n    // Mapping from owner to operator approvals\n    mapping(address => mapping(address => bool)) private _operatorApprovals;\n\n    bytes4 private constant _INTERFACE_ID_ERC721 = 0x80ac58cd;\n\n    constructor() {\n        // register the supported interfaces to conform to ERC721 via ERC165\n        _registerInterface(_INTERFACE_ID_ERC721);\n    }\n\n    function balanceOf(address owner) public view returns (uint256) {\n        return _ownedTokensCount[owner].current();\n    }\n\n    function ownerOf(uint256 tokenId) public view returns (address) {\n        return _tokenOwner[tokenId];\n    }\n\n    //    @dev Approves another address to transfer the given token ID\n    function approve(address to, uint256 tokenId) public whenNotPaused {\n        address owner = ownerOf(tokenId);\n        require(to != owner, \"Destination cannot be the current owner\");\n\n        require(\n            _isApprovedOrOwner(msg.sender, tokenId),\n            \"Caller is not current owner or does not have approval to transmit the token\"\n        );\n\n        _tokenApprovals[tokenId] = to;\n        emit Approval(owner, to, tokenId);\n    }\n\n    function getApproved(uint256 tokenId) public view returns (address) {\n        return _tokenApprovals[tokenId];\n    }\n\n    /**\n     * @dev Sets or unsets the approval of a given operator\n     * An operator is allowed to transfer all tokens of the sender on their behalf\n     * @param to operator address to set the approval\n     * @param approved representing the status of the approval to be set\n     */\n    function setApprovalForAll(address to, bool approved) public whenNotPaused {\n        require(to != msg.sender, \"Caller cannot set approval for himself\");\n        _operatorApprovals[msg.sender][to] = approved;\n        emit ApprovalForAll(msg.sender, to, approved);\n    }\n\n    /**\n     * @dev Tells whether an operator is approved by a given owner\n     * @param owner owner address which you want to query the approval of\n     * @param operator operator address which you want to query the approval of\n     * @return bool whether the given operator is approved by the given owner\n     */\n    function isApprovedForAll(address owner, address operator)\n        public\n        view\n        returns (bool)\n    {\n        return _operatorApprovals[owner][operator];\n    }\n\n    function transferFrom(\n        address from,\n        address to,\n        uint256 tokenId\n    ) public whenNotPaused {\n        require(\n            _isApprovedOrOwner(msg.sender, tokenId),\n            \"Account not approved or owner\"\n        );\n\n        _transferFrom(from, to, tokenId);\n    }\n\n    function safeTransferFrom(\n        address from,\n        address to,\n        uint256 tokenId\n    ) public whenNotPaused {\n        safeTransferFrom(from, to, tokenId, \"\");\n    }\n\n    function safeTransferFrom(\n        address from,\n        address to,\n        uint256 tokenId,\n        bytes memory _data\n    ) public whenNotPaused {\n        transferFrom(from, to, tokenId);\n        require(\n            _checkOnERC721Received(from, to, tokenId, _data),\n            \"Cannot transfer ERC721 to this account\"\n        );\n    }\n\n    /**\n     * @dev Returns whether the specified token exists\n     * @param tokenId uint256 ID of the token to query the existence of\n     * @return bool whether the token exists\n     */\n    function _exists(uint256 tokenId) internal view returns (bool) {\n        address owner = _tokenOwner[tokenId];\n        return owner != address(0);\n    }\n\n    /**\n     * @dev Returns whether the given spender can transfer a given token ID\n     * @param spender address of the spender to query\n     * @param tokenId uint256 ID of the token to be transferred\n     * @return bool whether the msg.sender is approved for the given token ID,\n     * is an operator of the owner, or is the owner of the token\n     */\n    function _isApprovedOrOwner(address spender, uint256 tokenId)\n        internal\n        view\n        returns (bool)\n    {\n        address owner = ownerOf(tokenId);\n        return (spender == owner ||\n            getApproved(tokenId) == spender ||\n            isApprovedForAll(owner, spender));\n    }\n\n    // @dev Internal function to mint a new token\n    function _mint(address to, uint256 tokenId) internal virtual {\n        require(!_exists(tokenId), \"Token already exist\");\n        require(to != address(0), \"To address is invalid\");\n        _tokenOwner[tokenId] = to;\n        _ownedTokensCount[to].increment();\n        emit Transfer(msg.sender, to, tokenId);\n    }\n\n    // @dev Internal function to transfer ownership of a given token ID to another address.\n    function _transferFrom(\n        address from,\n        address to,\n        uint256 tokenId\n    ) internal virtual {\n        require(\n            _tokenOwner[tokenId] == from,\n            \"From address is not the owner of the token\"\n        );\n        require(to != address(0), \"To address is invalid\");\n        _clearApproval(tokenId);\n        _ownedTokensCount[from].decrement();\n        _ownedTokensCount[to].increment();\n        _tokenOwner[tokenId] = to;\n        emit Transfer(from, to, tokenId);\n    }\n\n    /**\n     * @dev Internal function to invoke `onERC721Received` on a target address\n     * The call is not executed if the target address is not a contract\n     * @param from address representing the previous owner of the given token ID\n     * @param to target address that will receive the tokens\n     * @param tokenId uint256 ID of the token to be transferred\n     * @param _data bytes optional data to send along with the call\n     * @return bool whether the call correctly returned the expected magic value\n     */\n    function _checkOnERC721Received(\n        address from,\n        address to,\n        uint256 tokenId,\n        bytes memory _data\n    ) internal returns (bool) {\n        if (!to.isContract()) {\n            return true;\n        }\n\n        bytes4 retval =\n            IERC721Receiver(to).onERC721Received(\n                msg.sender,\n                from,\n                tokenId,\n                _data\n            );\n        return (retval == _ERC721_RECEIVED);\n    }\n\n    // @dev Private function to clear current approval of a given token ID\n    function _clearApproval(uint256 tokenId) private {\n        if (_tokenApprovals[tokenId] != address(0)) {\n            _tokenApprovals[tokenId] = address(0);\n        }\n    }\n}\n\ncontract ERC721Enumerable is ERC165, ERC721 {\n    // Mapping from owner to list of owned token IDs\n    mapping(address => uint256[]) private _ownedTokens;\n\n    // Mapping from token ID to index of the owner tokens list\n    mapping(uint256 => uint256) private _ownedTokensIndex;\n\n    // Array with all token ids, used for enumeration\n    uint256[] private _allTokens;\n\n    // Mapping from token id to position in the allTokens array\n    mapping(uint256 => uint256) private _allTokensIndex;\n\n    bytes4 private constant _INTERFACE_ID_ERC721_ENUMERABLE = 0x780e9d63;\n\n    using SafeMath for uint256;\n\n    /*\n     * 0x780e9d63 ===\n     *     bytes4(keccak256('totalSupply()')) ^\n     *     bytes4(keccak256('tokenOfOwnerByIndex(address,uint256)')) ^\n     *     bytes4(keccak256('tokenByIndex(uint256)'))\n     */\n\n    /**\n     * @dev Constructor function\n     */\n    constructor() {\n        // register the supported interface to conform to ERC721Enumerable via ERC165\n        _registerInterface(_INTERFACE_ID_ERC721_ENUMERABLE);\n    }\n\n    /**\n     * @dev Gets the token ID at a given index of the tokens list of the requested owner\n     * @param owner address owning the tokens list to be accessed\n     * @param index uint256 representing the index to be accessed of the requested tokens list\n     * @return uint256 token ID at the given index of the tokens list owned by the requested address\n     */\n    function tokenOfOwnerByIndex(address owner, uint256 index)\n        public\n        view\n        returns (uint256)\n    {\n        require(\n            index < balanceOf(owner),\n            \"Index must be lower than token count\"\n        );\n        return _ownedTokens[owner][index];\n    }\n\n    /**\n     * @dev Gets the total amount of tokens stored by the contract\n     * @return uint256 representing the total amount of tokens\n     */\n    function totalSupply() public view returns (uint256) {\n        return _allTokens.length;\n    }\n\n    /**\n     * @dev Gets the token ID at a given index of all the tokens in this contract\n     * Reverts if the index is greater or equal to the total number of tokens\n     * @param index uint256 representing the index to be accessed of the tokens list\n     * @return uint256 token ID at the given index of the tokens list\n     */\n    function tokenByIndex(uint256 index) public view returns (uint256) {\n        require(\n            index < totalSupply(),\n            \"Index must be lower than the total supply\"\n        );\n        return _allTokens[index];\n    }\n\n    /**\n     * @dev Internal function to transfer ownership of a given token ID to another address.\n     * As opposed to transferFrom, this imposes no restrictions on msg.sender.\n     * @param from current owner of the token\n     * @param to address to receive the ownership of the given token ID\n     * @param tokenId uint256 ID of the token to be transferred\n     */\n    function _transferFrom(\n        address from,\n        address to,\n        uint256 tokenId\n    ) internal override {\n        super._transferFrom(from, to, tokenId);\n\n        _removeTokenFromOwnerEnumeration(from, tokenId);\n\n        _addTokenToOwnerEnumeration(to, tokenId);\n    }\n\n    /**\n     * @dev Internal function to mint a new token\n     * Reverts if the given token ID already exists\n     * @param to address the beneficiary that will own the minted token\n     * @param tokenId uint256 ID of the token to be minted\n     */\n    function _mint(address to, uint256 tokenId) internal override {\n        super._mint(to, tokenId);\n\n        _addTokenToOwnerEnumeration(to, tokenId);\n\n        _addTokenToAllTokensEnumeration(tokenId);\n    }\n\n    /**\n     * @dev Gets the list of token IDs of the requested owner\n     * @param owner address owning the tokens\n     * @return uint256[] List of token IDs owned by the requested address\n     */\n    function _tokensOfOwner(address owner)\n        internal\n        view\n        returns (uint256[] storage)\n    {\n        return _ownedTokens[owner];\n    }\n\n    /**\n     * @dev Private function to add a token to this extension's ownership-tracking data structures.\n     * @param to address representing the new owner of the given token ID\n     * @param tokenId uint256 ID of the token to be added to the tokens list of the given address\n     */\n    function _addTokenToOwnerEnumeration(address to, uint256 tokenId) private {\n        _ownedTokensIndex[tokenId] = _ownedTokens[to].length;\n        _ownedTokens[to].push(tokenId);\n    }\n\n    /**\n     * @dev Private function to add a token to this extension's token tracking data structures.\n     * @param tokenId uint256 ID of the token to be added to the tokens list\n     */\n    function _addTokenToAllTokensEnumeration(uint256 tokenId) private {\n        _allTokensIndex[tokenId] = _allTokens.length;\n        _allTokens.push(tokenId);\n    }\n\n    /**\n     * @dev Private function to remove a token from this extension's ownership-tracking data structures. Note that\n     * while the token is not assigned a new owner, the _ownedTokensIndex mapping is _not_ updated: this allows for\n     * gas optimizations e.g. when performing a transfer operation (avoiding double writes).\n     * This has O(1) time complexity, but alters the order of the _ownedTokens array.\n     * @param from address representing the previous owner of the given token ID\n     * @param tokenId uint256 ID of the token to be removed from the tokens list of the given address\n     */\n    function _removeTokenFromOwnerEnumeration(address from, uint256 tokenId)\n        private\n    {\n        // To prevent a gap in from's tokens array, we store the last token in the index of the token to delete, and\n        // then delete the last slot (swap and pop).\n\n        uint256 lastTokenIndex = _ownedTokens[from].length.sub(1);\n        uint256 tokenIndex = _ownedTokensIndex[tokenId];\n\n        // When the token to delete is the last token, the swap operation is unnecessary\n        if (tokenIndex != lastTokenIndex) {\n            uint256 lastTokenId = _ownedTokens[from][lastTokenIndex];\n\n            _ownedTokens[from][tokenIndex] = lastTokenId; // Move the last token to the slot of the to-delete token\n            _ownedTokensIndex[lastTokenId] = tokenIndex; // Update the moved token's index\n        }\n\n        // This also deletes the contents at the last position of the array\n        _ownedTokens[from].pop();\n\n        // Note that _ownedTokensIndex[tokenId] hasn't been cleared: it still points to the old slot (now occupied by\n        // lastTokenId, or just over the end of the array if the token was the last one).\n    }\n\n    /**\n     * @dev Private function to remove a token from this extension's token tracking data structures.\n     * This has O(1) time complexity, but alters the order of the _allTokens array.\n     * @param tokenId uint256 ID of the token to be removed from the tokens list\n     */\n    function _removeTokenFromAllTokensEnumeration(uint256 tokenId) private {\n        // To prevent a gap in the tokens array, we store the last token in the index of the token to delete, and\n        // then delete the last slot (swap and pop).\n\n        uint256 lastTokenIndex = _allTokens.length.sub(1);\n        uint256 tokenIndex = _allTokensIndex[tokenId];\n\n        // When the token to delete is the last token, the swap operation is unnecessary. However, since this occurs so\n        // rarely (when the last minted token is burnt) that we still do the swap here to avoid the gas cost of adding\n        // an 'if' statement (like in _removeTokenFromOwnerEnumeration)\n        uint256 lastTokenId = _allTokens[lastTokenIndex];\n\n        _allTokens[tokenIndex] = lastTokenId; // Move the last token to the slot of the to-delete token\n        _allTokensIndex[lastTokenId] = tokenIndex; // Update the moved token's index\n\n        // This also deletes the contents at the last position of the array\n        _allTokens.pop();\n        _allTokensIndex[tokenId] = 0;\n    }\n}\n\ncontract ERC721Metadata is ERC721Enumerable, usingProvable {\n    string private _name;\n    string private _symbol;\n    string private _baseTokenURI;\n    mapping(uint256 => string) private _tokenURIs;\n\n    bytes4 private constant _INTERFACE_ID_ERC721_METADATA = 0x5b5e139f;\n\n    /*\n     * 0x5b5e139f ===\n     *     bytes4(keccak256('name()')) ^\n     *     bytes4(keccak256('symbol()')) ^\n     *     bytes4(keccak256('tokenURI(uint256)'))\n     */\n\n    constructor(\n        string memory name_,\n        string memory symbol_,\n        string memory baseTokenURI_\n    ) {\n        require(\n            bytes(name_).length > 0 &&\n                bytes(symbol_).length > 0 &&\n                bytes(baseTokenURI_).length > 0,\n            \"Contract init is not correct\"\n        );\n        _name = name_;\n        _symbol = symbol_;\n        _baseTokenURI = baseTokenURI_;\n\n        _registerInterface(_INTERFACE_ID_ERC721_METADATA);\n    }\n\n    function name() public view returns (string memory) {\n        return _name;\n    }\n\n    function symbol() public view returns (string memory) {\n        return _symbol;\n    }\n\n    function getBaseTokenURI() public view returns (string memory) {\n        return _baseTokenURI;\n    }\n\n    function tokenURI(uint256 tokenId) public view returns (string memory) {\n        require(_exists(tokenId), \"TokenID does not exist\");\n        return _tokenURIs[tokenId];\n    }\n\n    function setTokenURI(uint256 tokenId) internal {\n        // require the token exists before setting\n        require(_exists(tokenId), \"Token does not exist\");\n        _tokenURIs[tokenId] = strConcat(_baseTokenURI, uint2str(tokenId));\n    }\n}\n\ncontract MiyaERC721Token is ERC721Metadata {\n    constructor()\n        ERC721Metadata(\n            \"MIYA721\",\n            \"MIYA\",\n            \"https://s3-us-west-2.amazonaws.com/udacity-blockchain/capstone/\"\n        )\n    {}\n\n    function mint(address to, uint256 tokenId)\n        public\n        virtual\n        onlyOwner\n        whenNotPaused\n        returns (bool)\n    {\n        super._mint(to, tokenId);\n        super.setTokenURI(tokenId);\n        return true;\n    }\n}\n",
  "sourcePath": "/Users/amine/Documents/programmes/Blockchain/Udacity/Blockchain-Capstone/eth-contracts/contracts/ERC721Mintable.sol",
  "compiler": {
    "name": "solc",
    "version": "0.8.4+commit.c7e474f2.Emscripten.clang"
  },
  "schemaVersion": "3.4.1",
  "updatedAt": "2021-06-19T20:27:05.297Z",
  "devdoc": {
    "kind": "dev",
    "methods": {
      "constructor": {
        "details": "Constructor function"
      },
      "isApprovedForAll(address,address)": {
        "details": "Tells whether an operator is approved by a given owner",
        "params": {
          "operator": "operator address which you want to query the approval of",
          "owner": "owner address which you want to query the approval of"
        },
        "returns": {
          "_0": "bool whether the given operator is approved by the given owner"
        }
      },
      "setApprovalForAll(address,bool)": {
        "details": "Sets or unsets the approval of a given operator An operator is allowed to transfer all tokens of the sender on their behalf",
        "params": {
          "approved": "representing the status of the approval to be set",
          "to": "operator address to set the approval"
        }
      },
      "supportsInterface(bytes4)": {
        "details": "implement supportsInterface(bytes4) using a lookup table"
      },
      "tokenByIndex(uint256)": {
        "details": "Gets the token ID at a given index of all the tokens in this contract Reverts if the index is greater or equal to the total number of tokens",
        "params": {
          "index": "uint256 representing the index to be accessed of the tokens list"
        },
        "returns": {
          "_0": "uint256 token ID at the given index of the tokens list"
        }
      },
      "tokenOfOwnerByIndex(address,uint256)": {
        "details": "Gets the token ID at a given index of the tokens list of the requested owner",
        "params": {
          "index": "uint256 representing the index to be accessed of the requested tokens list",
          "owner": "address owning the tokens list to be accessed"
        },
        "returns": {
          "_0": "uint256 token ID at the given index of the tokens list owned by the requested address"
        }
      },
      "totalSupply()": {
        "details": "Gets the total amount of tokens stored by the contract",
        "returns": {
          "_0": "uint256 representing the total amount of tokens"
        }
      }
    },
    "version": 1
  },
  "userdoc": {
    "kind": "user",
    "methods": {},
    "version": 1
  }
}