{
  "contractName": "ERC721Metadata",
  "abi": [
    {
      "inputs": [
        {
          "internalType": "string",
          "name": "name_",
          "type": "string"
        },
        {
          "internalType": "string",
          "name": "symbol_",
          "type": "string"
        },
        {
          "internalType": "string",
          "name": "baseTokenURI_",
          "type": "string"
        }
      ],
      "stateMutability": "nonpayable",
      "type": "constructor"
    },
    {
      "anonymous": false,
      "inputs": [
        {
          "indexed": true,
          "internalType": "address",
          "name": "_owner",
          "type": "address"
        },
        {
          "indexed": true,
          "internalType": "address",
          "name": "_approved",
          "type": "address"
        },
        {
          "indexed": true,
          "internalType": "uint256",
          "name": "_tokenId",
          "type": "uint256"
        }
      ],
      "name": "Approval",
      "type": "event"
    },
    {
      "anonymous": false,
      "inputs": [
        {
          "indexed": true,
          "internalType": "address",
          "name": "_owner",
          "type": "address"
        },
        {
          "indexed": true,
          "internalType": "address",
          "name": "_operator",
          "type": "address"
        },
        {
          "indexed": false,
          "internalType": "bool",
          "name": "_approved",
          "type": "bool"
        }
      ],
      "name": "ApprovalForAll",
      "type": "event"
    },
    {
      "anonymous": false,
      "inputs": [
        {
          "indexed": true,
          "internalType": "address",
          "name": "_previousOwner",
          "type": "address"
        },
        {
          "indexed": true,
          "internalType": "address",
          "name": "_newOnwer",
          "type": "address"
        }
      ],
      "name": "NEW_OWNER",
      "type": "event"
    },
    {
      "anonymous": false,
      "inputs": [
        {
          "indexed": true,
          "internalType": "address",
          "name": "_origin",
          "type": "address"
        }
      ],
      "name": "PAUSED",
      "type": "event"
    },
    {
      "anonymous": false,
      "inputs": [
        {
          "indexed": true,
          "internalType": "address",
          "name": "_from",
          "type": "address"
        },
        {
          "indexed": true,
          "internalType": "address",
          "name": "_to",
          "type": "address"
        },
        {
          "indexed": true,
          "internalType": "uint256",
          "name": "_tokenId",
          "type": "uint256"
        }
      ],
      "name": "Transfer",
      "type": "event"
    },
    {
      "anonymous": false,
      "inputs": [
        {
          "indexed": true,
          "internalType": "address",
          "name": "_origin",
          "type": "address"
        }
      ],
      "name": "UNPAUSED",
      "type": "event"
    },
    {
      "inputs": [
        {
          "internalType": "bytes32",
          "name": "_myid",
          "type": "bytes32"
        },
        {
          "internalType": "string",
          "name": "_result",
          "type": "string"
        }
      ],
      "name": "__callback",
      "outputs": [],
      "stateMutability": "nonpayable",
      "type": "function"
    },
    {
      "inputs": [
        {
          "internalType": "bytes32",
          "name": "_myid",
          "type": "bytes32"
        },
        {
          "internalType": "string",
          "name": "_result",
          "type": "string"
        },
        {
          "internalType": "bytes",
          "name": "_proof",
          "type": "bytes"
        }
      ],
      "name": "__callback",
      "outputs": [],
      "stateMutability": "nonpayable",
      "type": "function"
    },
    {
      "inputs": [
        {
          "internalType": "address",
          "name": "to",
          "type": "address"
        },
        {
          "internalType": "uint256",
          "name": "tokenId",
          "type": "uint256"
        }
      ],
      "name": "approve",
      "outputs": [],
      "stateMutability": "nonpayable",
      "type": "function"
    },
    {
      "inputs": [
        {
          "internalType": "address",
          "name": "owner",
          "type": "address"
        }
      ],
      "name": "balanceOf",
      "outputs": [
        {
          "internalType": "uint256",
          "name": "",
          "type": "uint256"
        }
      ],
      "stateMutability": "view",
      "type": "function"
    },
    {
      "inputs": [
        {
          "internalType": "uint256",
          "name": "tokenId",
          "type": "uint256"
        }
      ],
      "name": "getApproved",
      "outputs": [
        {
          "internalType": "address",
          "name": "",
          "type": "address"
        }
      ],
      "stateMutability": "view",
      "type": "function"
    },
    {
      "inputs": [],
      "name": "getOwner",
      "outputs": [
        {
          "internalType": "address",
          "name": "",
          "type": "address"
        }
      ],
      "stateMutability": "view",
      "type": "function"
    },
    {
      "inputs": [
        {
          "internalType": "address",
          "name": "owner",
          "type": "address"
        },
        {
          "internalType": "address",
          "name": "operator",
          "type": "address"
        }
      ],
      "name": "isApprovedForAll",
      "outputs": [
        {
          "internalType": "bool",
          "name": "",
          "type": "bool"
        }
      ],
      "stateMutability": "view",
      "type": "function"
    },
    {
      "inputs": [
        {
          "internalType": "uint256",
          "name": "tokenId",
          "type": "uint256"
        }
      ],
      "name": "ownerOf",
      "outputs": [
        {
          "internalType": "address",
          "name": "",
          "type": "address"
        }
      ],
      "stateMutability": "view",
      "type": "function"
    },
    {
      "inputs": [
        {
          "internalType": "address",
          "name": "from",
          "type": "address"
        },
        {
          "internalType": "address",
          "name": "to",
          "type": "address"
        },
        {
          "internalType": "uint256",
          "name": "tokenId",
          "type": "uint256"
        }
      ],
      "name": "safeTransferFrom",
      "outputs": [],
      "stateMutability": "nonpayable",
      "type": "function"
    },
    {
      "inputs": [
        {
          "internalType": "address",
          "name": "from",
          "type": "address"
        },
        {
          "internalType": "address",
          "name": "to",
          "type": "address"
        },
        {
          "internalType": "uint256",
          "name": "tokenId",
          "type": "uint256"
        },
        {
          "internalType": "bytes",
          "name": "_data",
          "type": "bytes"
        }
      ],
      "name": "safeTransferFrom",
      "outputs": [],
      "stateMutability": "nonpayable",
      "type": "function"
    },
    {
      "inputs": [
        {
          "internalType": "address",
          "name": "to",
          "type": "address"
        },
        {
          "internalType": "bool",
          "name": "approved",
          "type": "bool"
        }
      ],
      "name": "setApprovalForAll",
      "outputs": [],
      "stateMutability": "nonpayable",
      "type": "function"
    },
    {
      "inputs": [
        {
          "internalType": "bool",
          "name": "isPaused",
          "type": "bool"
        }
      ],
      "name": "setPaused",
      "outputs": [],
      "stateMutability": "nonpayable",
      "type": "function"
    },
    {
      "inputs": [
        {
          "internalType": "bytes4",
          "name": "interfaceId",
          "type": "bytes4"
        }
      ],
      "name": "supportsInterface",
      "outputs": [
        {
          "internalType": "bool",
          "name": "",
          "type": "bool"
        }
      ],
      "stateMutability": "view",
      "type": "function"
    },
    {
      "inputs": [
        {
          "internalType": "uint256",
          "name": "index",
          "type": "uint256"
        }
      ],
      "name": "tokenByIndex",
      "outputs": [
        {
          "internalType": "uint256",
          "name": "",
          "type": "uint256"
        }
      ],
      "stateMutability": "view",
      "type": "function"
    },
    {
      "inputs": [
        {
          "internalType": "address",
          "name": "owner",
          "type": "address"
        },
        {
          "internalType": "uint256",
          "name": "index",
          "type": "uint256"
        }
      ],
      "name": "tokenOfOwnerByIndex",
      "outputs": [
        {
          "internalType": "uint256",
          "name": "",
          "type": "uint256"
        }
      ],
      "stateMutability": "view",
      "type": "function"
    },
    {
      "inputs": [],
      "name": "totalSupply",
      "outputs": [
        {
          "internalType": "uint256",
          "name": "",
          "type": "uint256"
        }
      ],
      "stateMutability": "view",
      "type": "function"
    },
    {
      "inputs": [
        {
          "internalType": "address",
          "name": "from",
          "type": "address"
        },
        {
          "internalType": "address",
          "name": "to",
          "type": "address"
        },
        {
          "internalType": "uint256",
          "name": "tokenId",
          "type": "uint256"
        }
      ],
      "name": "transferFrom",
      "outputs": [],
      "stateMutability": "nonpayable",
      "type": "function"
    },
    {
      "inputs": [
        {
          "internalType": "address",
          "name": "newOwner",
          "type": "address"
        }
      ],
      "name": "transferOwnership",
      "outputs": [],
      "stateMutability": "nonpayable",
      "type": "function"
    },
    {
      "inputs": [],
      "name": "name",
      "outputs": [
        {
          "internalType": "string",
          "name": "",
          "type": "string"
        }
      ],
      "stateMutability": "view",
      "type": "function"
    },
    {
      "inputs": [],
      "name": "symbol",
      "outputs": [
        {
          "internalType": "string",
          "name": "",
          "type": "string"
        }
      ],
      "stateMutability": "view",
      "type": "function"
    },
    {
      "inputs": [],
      "name": "getBaseTokenURI",
      "outputs": [
        {
          "internalType": "string",
          "name": "",
          "type": "string"
        }
      ],
      "stateMutability": "view",
      "type": "function"
    },
    {
      "inputs": [
        {
          "internalType": "uint256",
          "name": "tokenId",
          "type": "uint256"
        }
      ],
      "name": "tokenURI",
      "outputs": [
        {
          "internalType": "string",
          "name": "",
          "type": "string"
        }
      ],
      "stateMutability": "view",
      "type": "function"
    }
  ],
  "bytecode": "0x60806040523480156200001157600080fd5b50604051620034e8380380620034e883398181016040528101906200003791906200041d565b336000806101000a81548173ffffffffffffffffffffffffffffffffffffffff021916908373ffffffffffffffffffffffffffffffffffffffff16021790555060008054906101000a900473ffffffffffffffffffffffffffffffffffffffff1673ffffffffffffffffffffffffffffffffffffffff16600073ffffffffffffffffffffffffffffffffffffffff167f626cdf6166418a6397bb90e5da5168ced0150f0bf4bc7c9389bf65369f18028060405160405180910390a360008060146101000a81548160ff021916908315150217905550620001246301ffc9a760e01b6200022360201b60201c565b6200013c6380ac58cd60e01b6200022360201b60201c565b6200015463780e9d6360e01b6200022360201b60201c565b6000835111801562000167575060008251115b801562000175575060008151115b620001b7576040517f08c379a0000000000000000000000000000000000000000000000000000000008152600401620001ae906200050c565b60405180910390fd5b82600f9080519060200190620001cf929190620002fb565b508160109080519060200190620001e8929190620002fb565b50806011908051906020019062000201929190620002fb565b506200021a635b5e139f60e01b6200022360201b60201c565b50505062000723565b63ffffffff60e01b817bffffffffffffffffffffffffffffffffffffffffffffffffffffffff191614156200028f576040517f08c379a000000000000000000000000000000000000000000000000000000000815260040162000286906200052e565b60405180910390fd5b6001806000837bffffffffffffffffffffffffffffffffffffffffffffffffffffffff19167bffffffffffffffffffffffffffffffffffffffffffffffffffffffff1916815260200190815260200160002060006101000a81548160ff02191690831515021790555050565b8280546200030990620005f6565b90600052602060002090601f0160209004810192826200032d576000855562000379565b82601f106200034857805160ff191683800117855562000379565b8280016001018555821562000379579182015b82811115620003785782518255916020019190600101906200035b565b5b5090506200038891906200038c565b5090565b5b80821115620003a75760008160009055506001016200038d565b5090565b6000620003c2620003bc8462000579565b62000550565b905082815260208101848484011115620003db57600080fd5b620003e8848285620005c0565b509392505050565b600082601f8301126200040257600080fd5b815162000414848260208601620003ab565b91505092915050565b6000806000606084860312156200043357600080fd5b600084015167ffffffffffffffff8111156200044e57600080fd5b6200045c86828701620003f0565b935050602084015167ffffffffffffffff8111156200047a57600080fd5b6200048886828701620003f0565b925050604084015167ffffffffffffffff811115620004a657600080fd5b620004b486828701620003f0565b9150509250925092565b6000620004cd601c83620005af565b9150620004da82620006d1565b602082019050919050565b6000620004f4601783620005af565b91506200050182620006fa565b602082019050919050565b600060208201905081810360008301526200052781620004be565b9050919050565b600060208201905081810360008301526200054981620004e5565b9050919050565b60006200055c6200056f565b90506200056a82826200062c565b919050565b6000604051905090565b600067ffffffffffffffff82111562000597576200059662000691565b5b620005a282620006c0565b9050602081019050919050565b600082825260208201905092915050565b60005b83811015620005e0578082015181840152602081019050620005c3565b83811115620005f0576000848401525b50505050565b600060028204905060018216806200060f57607f821691505b6020821081141562000626576200062562000662565b5b50919050565b6200063782620006c0565b810181811067ffffffffffffffff8211171562000659576200065862000691565b5b80604052505050565b7f4e487b7100000000000000000000000000000000000000000000000000000000600052602260045260246000fd5b7f4e487b7100000000000000000000000000000000000000000000000000000000600052604160045260246000fd5b6000601f19601f8301169050919050565b7f436f6e747261637420696e6974206973206e6f7420636f727265637400000000600082015250565b7f496e746572666163654944206e6f7420636f7272656374000000000000000000600082015250565b612db580620007336000396000f3fe608060405234801561001057600080fd5b50600436106101425760003560e01c80634f6ccce7116100b8578063a22cb4651161007c578063a22cb46514610387578063b88d4fde146103a3578063bdc32be0146103bf578063c87b56dd146103dd578063e985e9c51461040d578063f2fde38b1461043d57610142565b80634f6ccce7146102bb5780636352211e146102eb57806370a082311461031b578063893d20e81461034b57806395d89b411461036957610142565b806318160ddd1161010a57806318160ddd146101fd57806323b872dd1461021b57806327dc297e146102375780632f745c591461025357806338bbfa501461028357806342842e0e1461029f57610142565b806301ffc9a71461014757806306fdde0314610177578063081812fc14610195578063095ea7b3146101c557806316c38b3c146101e1575b600080fd5b610161600480360381019061015c91906120af565b610459565b60405161016e919061243d565b60405180910390f35b61017f6104c1565b60405161018c9190612458565b60405180910390f35b6101af60048036038101906101aa9190612101565b610553565b6040516101bc91906123d6565b60405180910390f35b6101df60048036038101906101da9190611f77565b610590565b005b6101fb60048036038101906101f69190611fb3565b610757565b005b6102056108a3565b604051610212919061265a565b60405180910390f35b61023560048036038101906102309190611e71565b6108b0565b005b610251600480360381019061024c9190611fdc565b610959565b005b61026d60048036038101906102689190611f77565b6109db565b60405161027a919061265a565b60405180910390f35b61029d60048036038101906102989190612030565b610ab1565b005b6102b960048036038101906102b49190611e71565b610ad4565b005b6102d560048036038101906102d09190612101565b610b44565b6040516102e2919061265a565b60405180910390f35b61030560048036038101906103009190612101565b610bdb565b60405161031291906123d6565b60405180910390f35b61033560048036038101906103309190611e0c565b610c18565b604051610342919061265a565b60405180910390f35b610353610c68565b60405161036091906123d6565b60405180910390f35b610371610c91565b60405161037e9190612458565b60405180910390f35b6103a1600480360381019061039c9190611f3b565b610d23565b005b6103bd60048036038101906103b89190611ec0565b610edf565b005b6103c7610f8b565b6040516103d49190612458565b60405180910390f35b6103f760048036038101906103f29190612101565b61101d565b6040516104049190612458565b60405180910390f35b61042760048036038101906104229190611e35565b61110a565b604051610434919061243d565b60405180910390f35b61045760048036038101906104529190611e0c565b61119e565b005b600060016000837bffffffffffffffffffffffffffffffffffffffffffffffffffffffff19167bffffffffffffffffffffffffffffffffffffffffffffffffffffffff1916815260200190815260200160002060009054906101000a900460ff169050919050565b6060600f80546104d090612828565b80601f01602080910402602001604051908101604052809291908181526020018280546104fc90612828565b80156105495780601f1061051e57610100808354040283529160200191610549565b820191906000526020600020905b81548152906001019060200180831161052c57829003601f168201915b5050505050905090565b60006003600083815260200190815260200160002060009054906101000a900473ffffffffffffffffffffffffffffffffffffffff169050919050565b600060149054906101000a900460ff16156105e0576040517f08c379a00000000000000000000000000000000000000000000000000000000081526004016105d7906124ba565b60405180910390fd5b60006105eb82610bdb565b90508073ffffffffffffffffffffffffffffffffffffffff168373ffffffffffffffffffffffffffffffffffffffff16141561065c576040517f08c379a00000000000000000000000000000000000000000000000000000000081526004016106539061249a565b60405180910390fd5b61066633836113c7565b6106a5576040517f08c379a000000000000000000000000000000000000000000000000000000000815260040161069c9061255a565b60405180910390fd5b826003600084815260200190815260200160002060006101000a81548173ffffffffffffffffffffffffffffffffffffffff021916908373ffffffffffffffffffffffffffffffffffffffff160217905550818373ffffffffffffffffffffffffffffffffffffffff168273ffffffffffffffffffffffffffffffffffffffff167f8c5be1e5ebec7d5bd14f71427d1e84f3dd0314c0f7b2291e5b200ac8c7c3b92560405160405180910390a4505050565b60008054906101000a900473ffffffffffffffffffffffffffffffffffffffff1673ffffffffffffffffffffffffffffffffffffffff163373ffffffffffffffffffffffffffffffffffffffff16146107e5576040517f08c379a00000000000000000000000000000000000000000000000000000000081526004016107dc9061259a565b60405180910390fd5b80600060146101000a81548160ff021916908315150217905550600060149054906101000a900460ff161561085c573373ffffffffffffffffffffffffffffffffffffffff167f4b747fea41327811583b4e6ed38857cbc8340504c45e4a5bae62602deaa2d7ca60405160405180910390a26108a0565b3373ffffffffffffffffffffffffffffffffffffffff167f3ffe570da3d55d4cf7ef7fa0466eb22a04ea114015c4514149c850a1663edf4560405160405180910390a25b50565b6000600880549050905090565b600060149054906101000a900460ff1615610900576040517f08c379a00000000000000000000000000000000000000000000000000000000081526004016108f7906124ba565b60405180910390fd5b61090a33826113c7565b610949576040517f08c379a00000000000000000000000000000000000000000000000000000000081526004016109409061253a565b60405180910390fd5b61095483838361145c565b505050565b6109d78282600067ffffffffffffffff81111561099f577f4e487b7100000000000000000000000000000000000000000000000000000000600052604160045260246000fd5b6040519080825280601f01601f1916602001820160405280156109d15781602001600182028036833780820191505090505b50610ab1565b5050565b60006109e683610c18565b8210610a27576040517f08c379a0000000000000000000000000000000000000000000000000000000008152600401610a1e906124fa565b60405180910390fd5b600660008473ffffffffffffffffffffffffffffffffffffffff1673ffffffffffffffffffffffffffffffffffffffff1681526020019081526020016000208281548110610a9e577f4e487b7100000000000000000000000000000000000000000000000000000000600052603260045260246000fd5b9060005260206000200154905092915050565b6000801b600d60008060001b815260200190815260200160002081905550505050565b600060149054906101000a900460ff1615610b24576040517f08c379a0000000000000000000000000000000000000000000000000000000008152600401610b1b906124ba565b60405180910390fd5b610b3f83838360405180602001604052806000815250610edf565b505050565b6000610b4e6108a3565b8210610b8f576040517f08c379a0000000000000000000000000000000000000000000000000000000008152600401610b86906124da565b60405180910390fd5b60088281548110610bc9577f4e487b7100000000000000000000000000000000000000000000000000000000600052603260045260246000fd5b90600052602060002001549050919050565b60006002600083815260200190815260200160002060009054906101000a900473ffffffffffffffffffffffffffffffffffffffff169050919050565b6000610c61600460008473ffffffffffffffffffffffffffffffffffffffff1673ffffffffffffffffffffffffffffffffffffffff168152602001908152602001600020611480565b9050919050565b60008060009054906101000a900473ffffffffffffffffffffffffffffffffffffffff16905090565b606060108054610ca090612828565b80601f0160208091040260200160405190810160405280929190818152602001828054610ccc90612828565b8015610d195780601f10610cee57610100808354040283529160200191610d19565b820191906000526020600020905b815481529060010190602001808311610cfc57829003601f168201915b5050505050905090565b600060149054906101000a900460ff1615610d73576040517f08c379a0000000000000000000000000000000000000000000000000000000008152600401610d6a906124ba565b60405180910390fd5b3373ffffffffffffffffffffffffffffffffffffffff168273ffffffffffffffffffffffffffffffffffffffff161415610de2576040517f08c379a0000000000000000000000000000000000000000000000000000000008152600401610dd99061251a565b60405180910390fd5b80600560003373ffffffffffffffffffffffffffffffffffffffff1673ffffffffffffffffffffffffffffffffffffffff16815260200190815260200160002060008473ffffffffffffffffffffffffffffffffffffffff1673ffffffffffffffffffffffffffffffffffffffff16815260200190815260200160002060006101000a81548160ff0219169083151502179055508173ffffffffffffffffffffffffffffffffffffffff163373ffffffffffffffffffffffffffffffffffffffff167f17307eab39ab6107e8899845ad3d59bd9653f200f220920489ca2b5937696c3183604051610ed3919061243d565b60405180910390a35050565b600060149054906101000a900460ff1615610f2f576040517f08c379a0000000000000000000000000000000000000000000000000000000008152600401610f26906124ba565b60405180910390fd5b610f3a8484846108b0565b610f468484848461148e565b610f85576040517f08c379a0000000000000000000000000000000000000000000000000000000008152600401610f7c906125ba565b60405180910390fd5b50505050565b606060118054610f9a90612828565b80601f0160208091040260200160405190810160405280929190818152602001828054610fc690612828565b80156110135780601f10610fe857610100808354040283529160200191611013565b820191906000526020600020905b815481529060010190602001808311610ff657829003601f168201915b5050505050905090565b6060611028826115a5565b611067576040517f08c379a000000000000000000000000000000000000000000000000000000000815260040161105e906125fa565b60405180910390fd5b60126000838152602001908152602001600020805461108590612828565b80601f01602080910402602001604051908101604052809291908181526020018280546110b190612828565b80156110fe5780601f106110d3576101008083540402835291602001916110fe565b820191906000526020600020905b8154815290600101906020018083116110e157829003601f168201915b50505050509050919050565b6000600560008473ffffffffffffffffffffffffffffffffffffffff1673ffffffffffffffffffffffffffffffffffffffff16815260200190815260200160002060008373ffffffffffffffffffffffffffffffffffffffff1673ffffffffffffffffffffffffffffffffffffffff16815260200190815260200160002060009054906101000a900460ff16905092915050565b60008054906101000a900473ffffffffffffffffffffffffffffffffffffffff1673ffffffffffffffffffffffffffffffffffffffff163373ffffffffffffffffffffffffffffffffffffffff161461122c576040517f08c379a00000000000000000000000000000000000000000000000000000000081526004016112239061259a565b60405180910390fd5b600073ffffffffffffffffffffffffffffffffffffffff163373ffffffffffffffffffffffffffffffffffffffff16141561129c576040517f08c379a00000000000000000000000000000000000000000000000000000000081526004016112939061257a565b60405180910390fd5b3373ffffffffffffffffffffffffffffffffffffffff163273ffffffffffffffffffffffffffffffffffffffff161461130a576040517f08c379a00000000000000000000000000000000000000000000000000000000081526004016113019061263a565b60405180910390fd5b8073ffffffffffffffffffffffffffffffffffffffff1660008054906101000a900473ffffffffffffffffffffffffffffffffffffffff1673ffffffffffffffffffffffffffffffffffffffff167f626cdf6166418a6397bb90e5da5168ced0150f0bf4bc7c9389bf65369f18028060405160405180910390a3806000806101000a81548173ffffffffffffffffffffffffffffffffffffffff021916908373ffffffffffffffffffffffffffffffffffffffff16021790555050565b6000806113d383610bdb565b90508073ffffffffffffffffffffffffffffffffffffffff168473ffffffffffffffffffffffffffffffffffffffff16148061144257508373ffffffffffffffffffffffffffffffffffffffff1661142a84610553565b73ffffffffffffffffffffffffffffffffffffffff16145b806114535750611452818561110a565b5b91505092915050565b611467838383611617565b6114718382611871565b61147b8282611aa1565b505050565b600081600001549050919050565b60006114af8473ffffffffffffffffffffffffffffffffffffffff16611b65565b6114bc576001905061159d565b60008473ffffffffffffffffffffffffffffffffffffffff1663150b7a02338887876040518563ffffffff1660e01b81526004016114fd94939291906123f1565b602060405180830381600087803b15801561151757600080fd5b505af115801561152b573d6000803e3d6000fd5b505050506040513d601f19601f8201168201806040525081019061154f91906120d8565b905063150b7a0260e01b7bffffffffffffffffffffffffffffffffffffffffffffffffffffffff1916817bffffffffffffffffffffffffffffffffffffffffffffffffffffffff1916149150505b949350505050565b6000806002600084815260200190815260200160002060009054906101000a900473ffffffffffffffffffffffffffffffffffffffff169050600073ffffffffffffffffffffffffffffffffffffffff168173ffffffffffffffffffffffffffffffffffffffff161415915050919050565b8273ffffffffffffffffffffffffffffffffffffffff166002600083815260200190815260200160002060009054906101000a900473ffffffffffffffffffffffffffffffffffffffff1673ffffffffffffffffffffffffffffffffffffffff16146116b8576040517f08c379a00000000000000000000000000000000000000000000000000000000081526004016116af906125da565b60405180910390fd5b600073ffffffffffffffffffffffffffffffffffffffff168273ffffffffffffffffffffffffffffffffffffffff161415611728576040517f08c379a000000000000000000000000000000000000000000000000000000000815260040161171f9061261a565b60405180910390fd5b61173181611b78565b611778600460008573ffffffffffffffffffffffffffffffffffffffff1673ffffffffffffffffffffffffffffffffffffffff168152602001908152602001600020611c36565b6117bf600460008473ffffffffffffffffffffffffffffffffffffffff1673ffffffffffffffffffffffffffffffffffffffff168152602001908152602001600020611c92565b816002600083815260200190815260200160002060006101000a81548173ffffffffffffffffffffffffffffffffffffffff021916908373ffffffffffffffffffffffffffffffffffffffff160217905550808273ffffffffffffffffffffffffffffffffffffffff168473ffffffffffffffffffffffffffffffffffffffff167fddf252ad1be2c89b69c2b068fc378daa952ba7f163c4a11628f55a4df523b3ef60405160405180910390a4505050565b60006118c96001600660008673ffffffffffffffffffffffffffffffffffffffff1673ffffffffffffffffffffffffffffffffffffffff16815260200190815260200160002080549050611ca890919063ffffffff16565b9050600060076000848152602001908152602001600020549050818114611a10576000600660008673ffffffffffffffffffffffffffffffffffffffff1673ffffffffffffffffffffffffffffffffffffffff1681526020019081526020016000208381548110611963577f4e487b7100000000000000000000000000000000000000000000000000000000600052603260045260246000fd5b9060005260206000200154905080600660008773ffffffffffffffffffffffffffffffffffffffff1673ffffffffffffffffffffffffffffffffffffffff16815260200190815260200160002083815481106119e8577f4e487b7100000000000000000000000000000000000000000000000000000000600052603260045260246000fd5b9060005260206000200181905550816007600083815260200190815260200160002081905550505b600660008573ffffffffffffffffffffffffffffffffffffffff1673ffffffffffffffffffffffffffffffffffffffff168152602001908152602001600020805480611a85577f4e487b7100000000000000000000000000000000000000000000000000000000600052603160045260246000fd5b6001900381819060005260206000200160009055905550505050565b600660008373ffffffffffffffffffffffffffffffffffffffff1673ffffffffffffffffffffffffffffffffffffffff168152602001908152602001600020805490506007600083815260200190815260200160002081905550600660008373ffffffffffffffffffffffffffffffffffffffff1673ffffffffffffffffffffffffffffffffffffffff1681526020019081526020016000208190806001815401808255809150506001900390600052602060002001600090919091909150555050565b600080823b905060008111915050919050565b600073ffffffffffffffffffffffffffffffffffffffff166003600083815260200190815260200160002060009054906101000a900473ffffffffffffffffffffffffffffffffffffffff1673ffffffffffffffffffffffffffffffffffffffff1614611c335760006003600083815260200190815260200160002060006101000a81548173ffffffffffffffffffffffffffffffffffffffff021916908373ffffffffffffffffffffffffffffffffffffffff1602179055505b50565b60008160000154905060008111611c82576040517f08c379a0000000000000000000000000000000000000000000000000000000008152600401611c799061247a565b60405180910390fd5b6001810382600001819055505050565b6001816000016000828254019250508190555050565b60008183611cb69190612734565b905092915050565b6000611cd1611ccc8461269a565b612675565b905082815260208101848484011115611ce957600080fd5b611cf48482856127e6565b509392505050565b6000611d0f611d0a846126cb565b612675565b905082815260208101848484011115611d2757600080fd5b611d328482856127e6565b509392505050565b600081359050611d4981612d0c565b92915050565b600081359050611d5e81612d23565b92915050565b600081359050611d7381612d3a565b92915050565b600081359050611d8881612d51565b92915050565b600081519050611d9d81612d51565b92915050565b600082601f830112611db457600080fd5b8135611dc4848260208601611cbe565b91505092915050565b600082601f830112611dde57600080fd5b8135611dee848260208601611cfc565b91505092915050565b600081359050611e0681612d68565b92915050565b600060208284031215611e1e57600080fd5b6000611e2c84828501611d3a565b91505092915050565b60008060408385031215611e4857600080fd5b6000611e5685828601611d3a565b9250506020611e6785828601611d3a565b9150509250929050565b600080600060608486031215611e8657600080fd5b6000611e9486828701611d3a565b9350506020611ea586828701611d3a565b9250506040611eb686828701611df7565b9150509250925092565b60008060008060808587031215611ed657600080fd5b6000611ee487828801611d3a565b9450506020611ef587828801611d3a565b9350506040611f0687828801611df7565b925050606085013567ffffffffffffffff811115611f2357600080fd5b611f2f87828801611da3565b91505092959194509250565b60008060408385031215611f4e57600080fd5b6000611f5c85828601611d3a565b9250506020611f6d85828601611d4f565b9150509250929050565b60008060408385031215611f8a57600080fd5b6000611f9885828601611d3a565b9250506020611fa985828601611df7565b9150509250929050565b600060208284031215611fc557600080fd5b6000611fd384828501611d4f565b91505092915050565b60008060408385031215611fef57600080fd5b6000611ffd85828601611d64565b925050602083013567ffffffffffffffff81111561201a57600080fd5b61202685828601611dcd565b9150509250929050565b60008060006060848603121561204557600080fd5b600061205386828701611d64565b935050602084013567ffffffffffffffff81111561207057600080fd5b61207c86828701611dcd565b925050604084013567ffffffffffffffff81111561209957600080fd5b6120a586828701611da3565b9150509250925092565b6000602082840312156120c157600080fd5b60006120cf84828501611d79565b91505092915050565b6000602082840312156120ea57600080fd5b60006120f884828501611d8e565b91505092915050565b60006020828403121561211357600080fd5b600061212184828501611df7565b91505092915050565b61213381612768565b82525050565b6121428161277a565b82525050565b6000612153826126fc565b61215d8185612712565b935061216d8185602086016127f5565b61217681612918565b840191505092915050565b600061218c82612707565b6121968185612723565b93506121a68185602086016127f5565b6121af81612918565b840191505092915050565b60006121c7601b83612723565b91506121d282612929565b602082019050919050565b60006121ea602783612723565b91506121f582612952565b604082019050919050565b600061220d603f83612723565b9150612218826129a1565b604082019050919050565b6000612230602983612723565b915061223b826129f0565b604082019050919050565b6000612253602483612723565b915061225e82612a3f565b604082019050919050565b6000612276602683612723565b915061228182612a8e565b604082019050919050565b6000612299601d83612723565b91506122a482612add565b602082019050919050565b60006122bc604b83612723565b91506122c782612b06565b606082019050919050565b60006122df601d83612723565b91506122ea82612b7b565b602082019050919050565b6000612302602483612723565b915061230d82612ba4565b604082019050919050565b6000612325602683612723565b915061233082612bf3565b604082019050919050565b6000612348602a83612723565b915061235382612c42565b604082019050919050565b600061236b601683612723565b915061237682612c91565b602082019050919050565b600061238e601583612723565b915061239982612cba565b602082019050919050565b60006123b1601483612723565b91506123bc82612ce3565b602082019050919050565b6123d0816127dc565b82525050565b60006020820190506123eb600083018461212a565b92915050565b6000608082019050612406600083018761212a565b612413602083018661212a565b61242060408301856123c7565b81810360608301526124328184612148565b905095945050505050565b60006020820190506124526000830184612139565b92915050565b600060208201905081810360008301526124728184612181565b905092915050565b60006020820190508181036000830152612493816121ba565b9050919050565b600060208201905081810360008301526124b3816121dd565b9050919050565b600060208201905081810360008301526124d381612200565b9050919050565b600060208201905081810360008301526124f381612223565b9050919050565b6000602082019050818103600083015261251381612246565b9050919050565b6000602082019050818103600083015261253381612269565b9050919050565b600060208201905081810360008301526125538161228c565b9050919050565b60006020820190508181036000830152612573816122af565b9050919050565b60006020820190508181036000830152612593816122d2565b9050919050565b600060208201905081810360008301526125b3816122f5565b9050919050565b600060208201905081810360008301526125d381612318565b9050919050565b600060208201905081810360008301526125f38161233b565b9050919050565b600060208201905081810360008301526126138161235e565b9050919050565b6000602082019050818103600083015261263381612381565b9050919050565b60006020820190508181036000830152612653816123a4565b9050919050565b600060208201905061266f60008301846123c7565b92915050565b600061267f612690565b905061268b828261285a565b919050565b6000604051905090565b600067ffffffffffffffff8211156126b5576126b46128e9565b5b6126be82612918565b9050602081019050919050565b600067ffffffffffffffff8211156126e6576126e56128e9565b5b6126ef82612918565b9050602081019050919050565b600081519050919050565b600081519050919050565b600082825260208201905092915050565b600082825260208201905092915050565b600061273f826127dc565b915061274a836127dc565b92508282101561275d5761275c61288b565b5b828203905092915050565b6000612773826127bc565b9050919050565b60008115159050919050565b6000819050919050565b60007fffffffff0000000000000000000000000000000000000000000000000000000082169050919050565b600073ffffffffffffffffffffffffffffffffffffffff82169050919050565b6000819050919050565b82818337600083830152505050565b60005b838110156128135780820151818401526020810190506127f8565b83811115612822576000848401525b50505050565b6000600282049050600182168061284057607f821691505b60208210811415612854576128536128ba565b5b50919050565b61286382612918565b810181811067ffffffffffffffff82111715612882576128816128e9565b5b80604052505050565b7f4e487b7100000000000000000000000000000000000000000000000000000000600052601160045260246000fd5b7f4e487b7100000000000000000000000000000000000000000000000000000000600052602260045260246000fd5b7f4e487b7100000000000000000000000000000000000000000000000000000000600052604160045260246000fd5b6000601f19601f8301169050919050565b7f436f756e7465723a2064656372656d656e74206f766572666c6f770000000000600082015250565b7f44657374696e6174696f6e2063616e6e6f74206265207468652063757272656e60008201527f74206f776e657200000000000000000000000000000000000000000000000000602082015250565b7f436f6e7472616374206d757374206e6f742062652070617573656420696e206f60008201527f7264657220746f2063616c6c20746869732066756e6374696f6e616c69747900602082015250565b7f496e646578206d757374206265206c6f776572207468616e2074686520746f7460008201527f616c20737570706c790000000000000000000000000000000000000000000000602082015250565b7f496e646578206d757374206265206c6f776572207468616e20746f6b656e206360008201527f6f756e7400000000000000000000000000000000000000000000000000000000602082015250565b7f43616c6c65722063616e6e6f742073657420617070726f76616c20666f72206860008201527f696d73656c660000000000000000000000000000000000000000000000000000602082015250565b7f4163636f756e74206e6f7420617070726f766564206f72206f776e6572000000600082015250565b7f43616c6c6572206973206e6f742063757272656e74206f776e6572206f72206460008201527f6f6573206e6f74206861766520617070726f76616c20746f207472616e736d6960208201527f742074686520746f6b656e000000000000000000000000000000000000000000604082015250565b7f43616c6c65722063616e6e6f74206265206e756c6c2061646472657373000000600082015250565b7f43616c6c6572206d757374206265206f776e6572206f662074686520636f6e7460008201527f7261637400000000000000000000000000000000000000000000000000000000602082015250565b7f43616e6e6f74207472616e736665722045524337323120746f2074686973206160008201527f63636f756e740000000000000000000000000000000000000000000000000000602082015250565b7f46726f6d2061646472657373206973206e6f7420746865206f776e6572206f6660008201527f2074686520746f6b656e00000000000000000000000000000000000000000000602082015250565b7f546f6b656e494420646f6573206e6f7420657869737400000000000000000000600082015250565b7f546f206164647265737320697320696e76616c69640000000000000000000000600082015250565b7f43616c6c6572206d757374206265206120454f41000000000000000000000000600082015250565b612d1581612768565b8114612d2057600080fd5b50565b612d2c8161277a565b8114612d3757600080fd5b50565b612d4381612786565b8114612d4e57600080fd5b50565b612d5a81612790565b8114612d6557600080fd5b50565b612d71816127dc565b8114612d7c57600080fd5b5056fea26469706673582212207337828b80e0bd4133d0f83729a2755fd130a1004d5a4695ece9d7919ef8c9fd64736f6c63430008040033",
  "immutableReferences": {},
  "source": "// \"SPDX-License-Identifier: MIYA\"\n\npragma solidity ^0.8.0;\n\nimport \"@openzeppelin/contracts/utils/Address.sol\";\nimport \"@openzeppelin/contracts/utils/Counters.sol\";\nimport \"@openzeppelin/contracts/utils/math/SafeMath.sol\";\nimport \"@openzeppelin/contracts/token/ERC721/IERC721Receiver.sol\";\nimport \"./Provable.sol\";\n\ncontract Ownable {\n    event NEW_OWNER(address indexed _previousOwner, address indexed _newOnwer);\n\n    address private _owner;\n\n    constructor() {\n        _owner = msg.sender;\n        emit NEW_OWNER(address(0), _owner);\n    }\n\n    modifier realEOA() {\n        require(msg.sender != address(0), \"Caller cannot be null address\");\n        require(tx.origin == msg.sender, \"Caller must be a EOA\");\n        _;\n    }\n    modifier onlyOwner() {\n        require(msg.sender == _owner, \"Caller must be owner of the contract\");\n        _;\n    }\n\n    function getOwner() public view returns (address) {\n        return _owner;\n    }\n\n    function transferOwnership(address newOwner) public onlyOwner realEOA {\n        emit NEW_OWNER(_owner, newOwner);\n        _owner = newOwner;\n    }\n}\n\ncontract Pausable is Ownable {\n    bool private _paused;\n    event PAUSED(address indexed _origin);\n    event UNPAUSED(address indexed _origin);\n\n    constructor() {\n        _paused = false;\n    }\n\n    modifier whenNotPaused() {\n        require(\n            !_paused,\n            \"Contract must not be paused in order to call this functionality\"\n        );\n        _;\n    }\n\n    modifier paused() {\n        require(\n            _paused,\n            \"Contract must be paused in order to call this functionality\"\n        );\n        _;\n    }\n\n    function setPaused(bool isPaused) public onlyOwner {\n        _paused = isPaused;\n        if (_paused) {\n            emit PAUSED(msg.sender);\n        } else {\n            emit UNPAUSED(msg.sender);\n        }\n    }\n}\n\nabstract contract ERC165 {\n    bytes4 private constant _INTERFACE_ID_ERC165 = 0x01ffc9a7;\n    /*\n     * 0x01ffc9a7 ===\n     *     bytes4(keccak256('supportsInterface(bytes4)'))\n     */\n\n    /**\n     * @dev a mapping of interface id to whether or not it's supported\n     */\n    mapping(bytes4 => bool) private _supportedInterfaces;\n\n    /**\n     * @dev A contract implementing SupportsInterfaceWithLookup\n     * implement ERC165 itself\n     */\n    constructor() {\n        _registerInterface(_INTERFACE_ID_ERC165);\n    }\n\n    /**\n     * @dev implement supportsInterface(bytes4) using a lookup table\n     */\n    function supportsInterface(bytes4 interfaceId)\n        external\n        view\n        returns (bool)\n    {\n        return _supportedInterfaces[interfaceId];\n    }\n\n    /**\n     * @dev internal method for registering an interface\n     */\n    function _registerInterface(bytes4 interfaceId) internal {\n        require(interfaceId != 0xffffffff, \"InterfaceID not correct\");\n        _supportedInterfaces[interfaceId] = true;\n    }\n}\n\ncontract ERC721 is Pausable, ERC165 {\n    event Transfer(\n        address indexed _from,\n        address indexed _to,\n        uint256 indexed _tokenId\n    );\n\n    event Approval(\n        address indexed _owner,\n        address indexed _approved,\n        uint256 indexed _tokenId\n    );\n\n    event ApprovalForAll(\n        address indexed _owner,\n        address indexed _operator,\n        bool _approved\n    );\n\n    using SafeMath for uint256;\n    using Address for address;\n    using Counters for Counters.Counter;\n\n    // Equals to `bytes4(keccak256(\"onERC721Received(address,address,uint256,bytes)\"))`\n    // which can be also obtained as `IERC721Receiver(0).onERC721Received.selector`\n    bytes4 private constant _ERC721_RECEIVED = 0x150b7a02;\n\n    // Mapping from token ID to owner\n    mapping(uint256 => address) private _tokenOwner;\n\n    // Mapping from token ID to approved address\n    mapping(uint256 => address) private _tokenApprovals;\n\n    // Mapping from owner to number of owned token\n    // IMPORTANT: this mapping uses Counters lib which is used to protect overflow when incrementing/decrementing a uint\n    // use the following functions when interacting with Counters: increment(), decrement(), and current() to get the value\n    // see: https://github.com/OpenZeppelin/openzeppelin-contracts/blob/master/contracts/utils/Counters.sol\n    mapping(address => Counters.Counter) private _ownedTokensCount;\n\n    // Mapping from owner to operator approvals\n    mapping(address => mapping(address => bool)) private _operatorApprovals;\n\n    bytes4 private constant _INTERFACE_ID_ERC721 = 0x80ac58cd;\n\n    constructor() {\n        // register the supported interfaces to conform to ERC721 via ERC165\n        _registerInterface(_INTERFACE_ID_ERC721);\n    }\n\n    function balanceOf(address owner) public view returns (uint256) {\n        return _ownedTokensCount[owner].current();\n    }\n\n    function ownerOf(uint256 tokenId) public view returns (address) {\n        return _tokenOwner[tokenId];\n    }\n\n    //    @dev Approves another address to transfer the given token ID\n    function approve(address to, uint256 tokenId) public whenNotPaused {\n        address owner = ownerOf(tokenId);\n        require(to != owner, \"Destination cannot be the current owner\");\n\n        require(\n            _isApprovedOrOwner(msg.sender, tokenId),\n            \"Caller is not current owner or does not have approval to transmit the token\"\n        );\n\n        _tokenApprovals[tokenId] = to;\n        emit Approval(owner, to, tokenId);\n    }\n\n    function getApproved(uint256 tokenId) public view returns (address) {\n        return _tokenApprovals[tokenId];\n    }\n\n    /**\n     * @dev Sets or unsets the approval of a given operator\n     * An operator is allowed to transfer all tokens of the sender on their behalf\n     * @param to operator address to set the approval\n     * @param approved representing the status of the approval to be set\n     */\n    function setApprovalForAll(address to, bool approved) public whenNotPaused {\n        require(to != msg.sender, \"Caller cannot set approval for himself\");\n        _operatorApprovals[msg.sender][to] = approved;\n        emit ApprovalForAll(msg.sender, to, approved);\n    }\n\n    /**\n     * @dev Tells whether an operator is approved by a given owner\n     * @param owner owner address which you want to query the approval of\n     * @param operator operator address which you want to query the approval of\n     * @return bool whether the given operator is approved by the given owner\n     */\n    function isApprovedForAll(address owner, address operator)\n        public\n        view\n        returns (bool)\n    {\n        return _operatorApprovals[owner][operator];\n    }\n\n    function transferFrom(\n        address from,\n        address to,\n        uint256 tokenId\n    ) public whenNotPaused {\n        require(\n            _isApprovedOrOwner(msg.sender, tokenId),\n            \"Account not approved or owner\"\n        );\n\n        _transferFrom(from, to, tokenId);\n    }\n\n    function safeTransferFrom(\n        address from,\n        address to,\n        uint256 tokenId\n    ) public whenNotPaused {\n        safeTransferFrom(from, to, tokenId, \"\");\n    }\n\n    function safeTransferFrom(\n        address from,\n        address to,\n        uint256 tokenId,\n        bytes memory _data\n    ) public whenNotPaused {\n        transferFrom(from, to, tokenId);\n        require(\n            _checkOnERC721Received(from, to, tokenId, _data),\n            \"Cannot transfer ERC721 to this account\"\n        );\n    }\n\n    /**\n     * @dev Returns whether the specified token exists\n     * @param tokenId uint256 ID of the token to query the existence of\n     * @return bool whether the token exists\n     */\n    function _exists(uint256 tokenId) internal view returns (bool) {\n        address owner = _tokenOwner[tokenId];\n        return owner != address(0);\n    }\n\n    /**\n     * @dev Returns whether the given spender can transfer a given token ID\n     * @param spender address of the spender to query\n     * @param tokenId uint256 ID of the token to be transferred\n     * @return bool whether the msg.sender is approved for the given token ID,\n     * is an operator of the owner, or is the owner of the token\n     */\n    function _isApprovedOrOwner(address spender, uint256 tokenId)\n        internal\n        view\n        returns (bool)\n    {\n        address owner = ownerOf(tokenId);\n        return (spender == owner ||\n            getApproved(tokenId) == spender ||\n            isApprovedForAll(owner, spender));\n    }\n\n    // @dev Internal function to mint a new token\n    function _mint(address to, uint256 tokenId) internal virtual {\n        require(!_exists(tokenId), \"Token already exist\");\n        require(to != address(0), \"To address is invalid\");\n        _tokenOwner[tokenId] = to;\n        _ownedTokensCount[to].increment();\n        emit Transfer(msg.sender, to, tokenId);\n    }\n\n    // @dev Internal function to transfer ownership of a given token ID to another address.\n    function _transferFrom(\n        address from,\n        address to,\n        uint256 tokenId\n    ) internal virtual {\n        require(\n            _tokenOwner[tokenId] == from,\n            \"From address is not the owner of the token\"\n        );\n        require(to != address(0), \"To address is invalid\");\n        _clearApproval(tokenId);\n        _ownedTokensCount[from].decrement();\n        _ownedTokensCount[to].increment();\n        _tokenOwner[tokenId] = to;\n        emit Transfer(from, to, tokenId);\n    }\n\n    /**\n     * @dev Internal function to invoke `onERC721Received` on a target address\n     * The call is not executed if the target address is not a contract\n     * @param from address representing the previous owner of the given token ID\n     * @param to target address that will receive the tokens\n     * @param tokenId uint256 ID of the token to be transferred\n     * @param _data bytes optional data to send along with the call\n     * @return bool whether the call correctly returned the expected magic value\n     */\n    function _checkOnERC721Received(\n        address from,\n        address to,\n        uint256 tokenId,\n        bytes memory _data\n    ) internal returns (bool) {\n        if (!to.isContract()) {\n            return true;\n        }\n\n        bytes4 retval =\n            IERC721Receiver(to).onERC721Received(\n                msg.sender,\n                from,\n                tokenId,\n                _data\n            );\n        return (retval == _ERC721_RECEIVED);\n    }\n\n    // @dev Private function to clear current approval of a given token ID\n    function _clearApproval(uint256 tokenId) private {\n        if (_tokenApprovals[tokenId] != address(0)) {\n            _tokenApprovals[tokenId] = address(0);\n        }\n    }\n}\n\ncontract ERC721Enumerable is ERC165, ERC721 {\n    // Mapping from owner to list of owned token IDs\n    mapping(address => uint256[]) private _ownedTokens;\n\n    // Mapping from token ID to index of the owner tokens list\n    mapping(uint256 => uint256) private _ownedTokensIndex;\n\n    // Array with all token ids, used for enumeration\n    uint256[] private _allTokens;\n\n    // Mapping from token id to position in the allTokens array\n    mapping(uint256 => uint256) private _allTokensIndex;\n\n    bytes4 private constant _INTERFACE_ID_ERC721_ENUMERABLE = 0x780e9d63;\n\n    using SafeMath for uint256;\n\n    /*\n     * 0x780e9d63 ===\n     *     bytes4(keccak256('totalSupply()')) ^\n     *     bytes4(keccak256('tokenOfOwnerByIndex(address,uint256)')) ^\n     *     bytes4(keccak256('tokenByIndex(uint256)'))\n     */\n\n    /**\n     * @dev Constructor function\n     */\n    constructor() {\n        // register the supported interface to conform to ERC721Enumerable via ERC165\n        _registerInterface(_INTERFACE_ID_ERC721_ENUMERABLE);\n    }\n\n    /**\n     * @dev Gets the token ID at a given index of the tokens list of the requested owner\n     * @param owner address owning the tokens list to be accessed\n     * @param index uint256 representing the index to be accessed of the requested tokens list\n     * @return uint256 token ID at the given index of the tokens list owned by the requested address\n     */\n    function tokenOfOwnerByIndex(address owner, uint256 index)\n        public\n        view\n        returns (uint256)\n    {\n        require(\n            index < balanceOf(owner),\n            \"Index must be lower than token count\"\n        );\n        return _ownedTokens[owner][index];\n    }\n\n    /**\n     * @dev Gets the total amount of tokens stored by the contract\n     * @return uint256 representing the total amount of tokens\n     */\n    function totalSupply() public view returns (uint256) {\n        return _allTokens.length;\n    }\n\n    /**\n     * @dev Gets the token ID at a given index of all the tokens in this contract\n     * Reverts if the index is greater or equal to the total number of tokens\n     * @param index uint256 representing the index to be accessed of the tokens list\n     * @return uint256 token ID at the given index of the tokens list\n     */\n    function tokenByIndex(uint256 index) public view returns (uint256) {\n        require(\n            index < totalSupply(),\n            \"Index must be lower than the total supply\"\n        );\n        return _allTokens[index];\n    }\n\n    /**\n     * @dev Internal function to transfer ownership of a given token ID to another address.\n     * As opposed to transferFrom, this imposes no restrictions on msg.sender.\n     * @param from current owner of the token\n     * @param to address to receive the ownership of the given token ID\n     * @param tokenId uint256 ID of the token to be transferred\n     */\n    function _transferFrom(\n        address from,\n        address to,\n        uint256 tokenId\n    ) internal override {\n        super._transferFrom(from, to, tokenId);\n\n        _removeTokenFromOwnerEnumeration(from, tokenId);\n\n        _addTokenToOwnerEnumeration(to, tokenId);\n    }\n\n    /**\n     * @dev Internal function to mint a new token\n     * Reverts if the given token ID already exists\n     * @param to address the beneficiary that will own the minted token\n     * @param tokenId uint256 ID of the token to be minted\n     */\n    function _mint(address to, uint256 tokenId) internal override {\n        super._mint(to, tokenId);\n\n        _addTokenToOwnerEnumeration(to, tokenId);\n\n        _addTokenToAllTokensEnumeration(tokenId);\n    }\n\n    /**\n     * @dev Gets the list of token IDs of the requested owner\n     * @param owner address owning the tokens\n     * @return uint256[] List of token IDs owned by the requested address\n     */\n    function _tokensOfOwner(address owner)\n        internal\n        view\n        returns (uint256[] storage)\n    {\n        return _ownedTokens[owner];\n    }\n\n    /**\n     * @dev Private function to add a token to this extension's ownership-tracking data structures.\n     * @param to address representing the new owner of the given token ID\n     * @param tokenId uint256 ID of the token to be added to the tokens list of the given address\n     */\n    function _addTokenToOwnerEnumeration(address to, uint256 tokenId) private {\n        _ownedTokensIndex[tokenId] = _ownedTokens[to].length;\n        _ownedTokens[to].push(tokenId);\n    }\n\n    /**\n     * @dev Private function to add a token to this extension's token tracking data structures.\n     * @param tokenId uint256 ID of the token to be added to the tokens list\n     */\n    function _addTokenToAllTokensEnumeration(uint256 tokenId) private {\n        _allTokensIndex[tokenId] = _allTokens.length;\n        _allTokens.push(tokenId);\n    }\n\n    /**\n     * @dev Private function to remove a token from this extension's ownership-tracking data structures. Note that\n     * while the token is not assigned a new owner, the _ownedTokensIndex mapping is _not_ updated: this allows for\n     * gas optimizations e.g. when performing a transfer operation (avoiding double writes).\n     * This has O(1) time complexity, but alters the order of the _ownedTokens array.\n     * @param from address representing the previous owner of the given token ID\n     * @param tokenId uint256 ID of the token to be removed from the tokens list of the given address\n     */\n    function _removeTokenFromOwnerEnumeration(address from, uint256 tokenId)\n        private\n    {\n        // To prevent a gap in from's tokens array, we store the last token in the index of the token to delete, and\n        // then delete the last slot (swap and pop).\n\n        uint256 lastTokenIndex = _ownedTokens[from].length.sub(1);\n        uint256 tokenIndex = _ownedTokensIndex[tokenId];\n\n        // When the token to delete is the last token, the swap operation is unnecessary\n        if (tokenIndex != lastTokenIndex) {\n            uint256 lastTokenId = _ownedTokens[from][lastTokenIndex];\n\n            _ownedTokens[from][tokenIndex] = lastTokenId; // Move the last token to the slot of the to-delete token\n            _ownedTokensIndex[lastTokenId] = tokenIndex; // Update the moved token's index\n        }\n\n        // This also deletes the contents at the last position of the array\n        _ownedTokens[from].pop();\n\n        // Note that _ownedTokensIndex[tokenId] hasn't been cleared: it still points to the old slot (now occupied by\n        // lastTokenId, or just over the end of the array if the token was the last one).\n    }\n\n    /**\n     * @dev Private function to remove a token from this extension's token tracking data structures.\n     * This has O(1) time complexity, but alters the order of the _allTokens array.\n     * @param tokenId uint256 ID of the token to be removed from the tokens list\n     */\n    function _removeTokenFromAllTokensEnumeration(uint256 tokenId) private {\n        // To prevent a gap in the tokens array, we store the last token in the index of the token to delete, and\n        // then delete the last slot (swap and pop).\n\n        uint256 lastTokenIndex = _allTokens.length.sub(1);\n        uint256 tokenIndex = _allTokensIndex[tokenId];\n\n        // When the token to delete is the last token, the swap operation is unnecessary. However, since this occurs so\n        // rarely (when the last minted token is burnt) that we still do the swap here to avoid the gas cost of adding\n        // an 'if' statement (like in _removeTokenFromOwnerEnumeration)\n        uint256 lastTokenId = _allTokens[lastTokenIndex];\n\n        _allTokens[tokenIndex] = lastTokenId; // Move the last token to the slot of the to-delete token\n        _allTokensIndex[lastTokenId] = tokenIndex; // Update the moved token's index\n\n        // This also deletes the contents at the last position of the array\n        _allTokens.pop();\n        _allTokensIndex[tokenId] = 0;\n    }\n}\n\ncontract ERC721Metadata is ERC721Enumerable, usingProvable {\n    string private _name;\n    string private _symbol;\n    string private _baseTokenURI;\n    mapping(uint256 => string) private _tokenURIs;\n\n    bytes4 private constant _INTERFACE_ID_ERC721_METADATA = 0x5b5e139f;\n\n    /*\n     * 0x5b5e139f ===\n     *     bytes4(keccak256('name()')) ^\n     *     bytes4(keccak256('symbol()')) ^\n     *     bytes4(keccak256('tokenURI(uint256)'))\n     */\n\n    constructor(\n        string memory name_,\n        string memory symbol_,\n        string memory baseTokenURI_\n    ) {\n        require(\n            bytes(name_).length > 0 &&\n                bytes(symbol_).length > 0 &&\n                bytes(baseTokenURI_).length > 0,\n            \"Contract init is not correct\"\n        );\n        _name = name_;\n        _symbol = symbol_;\n        _baseTokenURI = baseTokenURI_;\n\n        _registerInterface(_INTERFACE_ID_ERC721_METADATA);\n    }\n\n    function name() public view returns (string memory) {\n        return _name;\n    }\n\n    function symbol() public view returns (string memory) {\n        return _symbol;\n    }\n\n    function getBaseTokenURI() public view returns (string memory) {\n        return _baseTokenURI;\n    }\n\n    function tokenURI(uint256 tokenId) public view returns (string memory) {\n        require(_exists(tokenId), \"TokenID does not exist\");\n        return _tokenURIs[tokenId];\n    }\n\n    function setTokenURI(uint256 tokenId) internal {\n        // require the token exists before setting\n        require(_exists(tokenId), \"Token does not exist\");\n        _tokenURIs[tokenId] = strConcat(_baseTokenURI, uint2str(tokenId));\n    }\n}\n\ncontract MiyaERC721Token is ERC721Metadata {\n    constructor()\n        ERC721Metadata(\n            \"MIYA721\",\n            \"MIYA\",\n            \"https://s3-us-west-2.amazonaws.com/udacity-blockchain/capstone/\"\n        )\n    {}\n\n    function mint(address to, uint256 tokenId)\n        public\n        virtual\n        onlyOwner\n        whenNotPaused\n        returns (bool)\n    {\n        super._mint(to, tokenId);\n        super.setTokenURI(tokenId);\n        return true;\n    }\n}\n",
  "sourcePath": "/Users/amine/Documents/programmes/Blockchain/Udacity/Blockchain-Capstone/eth-contracts/contracts/ERC721Mintable.sol",
  "compiler": {
    "name": "solc",
    "version": "0.8.4+commit.c7e474f2.Emscripten.clang"
  },
  "schemaVersion": "3.4.1",
  "updatedAt": "2021-06-19T20:27:05.400Z",
  "devdoc": {
    "kind": "dev",
    "methods": {
      "__callback(bytes32,string)": {
        "details": "The following `__callback` functions are just placeholders ideally      meant to be defined in child contract when proofs are used.      The function bodies simply silence compiler warnings."
      },
      "isApprovedForAll(address,address)": {
        "details": "Tells whether an operator is approved by a given owner",
        "params": {
          "operator": "operator address which you want to query the approval of",
          "owner": "owner address which you want to query the approval of"
        },
        "returns": {
          "_0": "bool whether the given operator is approved by the given owner"
        }
      },
      "setApprovalForAll(address,bool)": {
        "details": "Sets or unsets the approval of a given operator An operator is allowed to transfer all tokens of the sender on their behalf",
        "params": {
          "approved": "representing the status of the approval to be set",
          "to": "operator address to set the approval"
        }
      },
      "supportsInterface(bytes4)": {
        "details": "implement supportsInterface(bytes4) using a lookup table"
      },
      "tokenByIndex(uint256)": {
        "details": "Gets the token ID at a given index of all the tokens in this contract Reverts if the index is greater or equal to the total number of tokens",
        "params": {
          "index": "uint256 representing the index to be accessed of the tokens list"
        },
        "returns": {
          "_0": "uint256 token ID at the given index of the tokens list"
        }
      },
      "tokenOfOwnerByIndex(address,uint256)": {
        "details": "Gets the token ID at a given index of the tokens list of the requested owner",
        "params": {
          "index": "uint256 representing the index to be accessed of the requested tokens list",
          "owner": "address owning the tokens list to be accessed"
        },
        "returns": {
          "_0": "uint256 token ID at the given index of the tokens list owned by the requested address"
        }
      },
      "totalSupply()": {
        "details": "Gets the total amount of tokens stored by the contract",
        "returns": {
          "_0": "uint256 representing the total amount of tokens"
        }
      }
    },
    "version": 1
  },
  "userdoc": {
    "kind": "user",
    "methods": {},
    "version": 1
  }
}