{
  "contractName": "MiyaERC721Token",
  "abi": [
    {
      "inputs": [],
      "stateMutability": "nonpayable",
      "type": "constructor"
    },
    {
      "anonymous": false,
      "inputs": [
        {
          "indexed": true,
          "internalType": "address",
          "name": "_owner",
          "type": "address"
        },
        {
          "indexed": true,
          "internalType": "address",
          "name": "_approved",
          "type": "address"
        },
        {
          "indexed": true,
          "internalType": "uint256",
          "name": "_tokenId",
          "type": "uint256"
        }
      ],
      "name": "Approval",
      "type": "event"
    },
    {
      "anonymous": false,
      "inputs": [
        {
          "indexed": true,
          "internalType": "address",
          "name": "_owner",
          "type": "address"
        },
        {
          "indexed": true,
          "internalType": "address",
          "name": "_operator",
          "type": "address"
        },
        {
          "indexed": false,
          "internalType": "bool",
          "name": "_approved",
          "type": "bool"
        }
      ],
      "name": "ApprovalForAll",
      "type": "event"
    },
    {
      "anonymous": false,
      "inputs": [
        {
          "indexed": true,
          "internalType": "address",
          "name": "_previousOwner",
          "type": "address"
        },
        {
          "indexed": true,
          "internalType": "address",
          "name": "_newOnwer",
          "type": "address"
        }
      ],
      "name": "NEW_OWNER",
      "type": "event"
    },
    {
      "anonymous": false,
      "inputs": [
        {
          "indexed": true,
          "internalType": "address",
          "name": "_origin",
          "type": "address"
        }
      ],
      "name": "PAUSED",
      "type": "event"
    },
    {
      "anonymous": false,
      "inputs": [
        {
          "indexed": true,
          "internalType": "address",
          "name": "_from",
          "type": "address"
        },
        {
          "indexed": true,
          "internalType": "address",
          "name": "_to",
          "type": "address"
        },
        {
          "indexed": true,
          "internalType": "uint256",
          "name": "_tokenId",
          "type": "uint256"
        }
      ],
      "name": "Transfer",
      "type": "event"
    },
    {
      "anonymous": false,
      "inputs": [
        {
          "indexed": true,
          "internalType": "address",
          "name": "_origin",
          "type": "address"
        }
      ],
      "name": "UNPAUSED",
      "type": "event"
    },
    {
      "inputs": [
        {
          "internalType": "bytes32",
          "name": "_myid",
          "type": "bytes32"
        },
        {
          "internalType": "string",
          "name": "_result",
          "type": "string"
        }
      ],
      "name": "__callback",
      "outputs": [],
      "stateMutability": "nonpayable",
      "type": "function"
    },
    {
      "inputs": [
        {
          "internalType": "bytes32",
          "name": "_myid",
          "type": "bytes32"
        },
        {
          "internalType": "string",
          "name": "_result",
          "type": "string"
        },
        {
          "internalType": "bytes",
          "name": "_proof",
          "type": "bytes"
        }
      ],
      "name": "__callback",
      "outputs": [],
      "stateMutability": "nonpayable",
      "type": "function"
    },
    {
      "inputs": [
        {
          "internalType": "address",
          "name": "to",
          "type": "address"
        },
        {
          "internalType": "uint256",
          "name": "tokenId",
          "type": "uint256"
        }
      ],
      "name": "approve",
      "outputs": [],
      "stateMutability": "nonpayable",
      "type": "function"
    },
    {
      "inputs": [
        {
          "internalType": "address",
          "name": "owner",
          "type": "address"
        }
      ],
      "name": "balanceOf",
      "outputs": [
        {
          "internalType": "uint256",
          "name": "",
          "type": "uint256"
        }
      ],
      "stateMutability": "view",
      "type": "function",
      "constant": true
    },
    {
      "inputs": [
        {
          "internalType": "uint256",
          "name": "tokenId",
          "type": "uint256"
        }
      ],
      "name": "getApproved",
      "outputs": [
        {
          "internalType": "address",
          "name": "",
          "type": "address"
        }
      ],
      "stateMutability": "view",
      "type": "function",
      "constant": true
    },
    {
      "inputs": [],
      "name": "getBaseTokenURI",
      "outputs": [
        {
          "internalType": "string",
          "name": "",
          "type": "string"
        }
      ],
      "stateMutability": "view",
      "type": "function",
      "constant": true
    },
    {
      "inputs": [],
      "name": "getOwner",
      "outputs": [
        {
          "internalType": "address",
          "name": "",
          "type": "address"
        }
      ],
      "stateMutability": "view",
      "type": "function",
      "constant": true
    },
    {
      "inputs": [
        {
          "internalType": "address",
          "name": "owner",
          "type": "address"
        },
        {
          "internalType": "address",
          "name": "operator",
          "type": "address"
        }
      ],
      "name": "isApprovedForAll",
      "outputs": [
        {
          "internalType": "bool",
          "name": "",
          "type": "bool"
        }
      ],
      "stateMutability": "view",
      "type": "function",
      "constant": true
    },
    {
      "inputs": [],
      "name": "name",
      "outputs": [
        {
          "internalType": "string",
          "name": "",
          "type": "string"
        }
      ],
      "stateMutability": "view",
      "type": "function",
      "constant": true
    },
    {
      "inputs": [
        {
          "internalType": "uint256",
          "name": "tokenId",
          "type": "uint256"
        }
      ],
      "name": "ownerOf",
      "outputs": [
        {
          "internalType": "address",
          "name": "",
          "type": "address"
        }
      ],
      "stateMutability": "view",
      "type": "function",
      "constant": true
    },
    {
      "inputs": [
        {
          "internalType": "address",
          "name": "from",
          "type": "address"
        },
        {
          "internalType": "address",
          "name": "to",
          "type": "address"
        },
        {
          "internalType": "uint256",
          "name": "tokenId",
          "type": "uint256"
        }
      ],
      "name": "safeTransferFrom",
      "outputs": [],
      "stateMutability": "nonpayable",
      "type": "function"
    },
    {
      "inputs": [
        {
          "internalType": "address",
          "name": "from",
          "type": "address"
        },
        {
          "internalType": "address",
          "name": "to",
          "type": "address"
        },
        {
          "internalType": "uint256",
          "name": "tokenId",
          "type": "uint256"
        },
        {
          "internalType": "bytes",
          "name": "_data",
          "type": "bytes"
        }
      ],
      "name": "safeTransferFrom",
      "outputs": [],
      "stateMutability": "nonpayable",
      "type": "function"
    },
    {
      "inputs": [
        {
          "internalType": "address",
          "name": "to",
          "type": "address"
        },
        {
          "internalType": "bool",
          "name": "approved",
          "type": "bool"
        }
      ],
      "name": "setApprovalForAll",
      "outputs": [],
      "stateMutability": "nonpayable",
      "type": "function"
    },
    {
      "inputs": [
        {
          "internalType": "bool",
          "name": "isPaused",
          "type": "bool"
        }
      ],
      "name": "setPaused",
      "outputs": [],
      "stateMutability": "nonpayable",
      "type": "function"
    },
    {
      "inputs": [
        {
          "internalType": "bytes4",
          "name": "interfaceId",
          "type": "bytes4"
        }
      ],
      "name": "supportsInterface",
      "outputs": [
        {
          "internalType": "bool",
          "name": "",
          "type": "bool"
        }
      ],
      "stateMutability": "view",
      "type": "function",
      "constant": true
    },
    {
      "inputs": [],
      "name": "symbol",
      "outputs": [
        {
          "internalType": "string",
          "name": "",
          "type": "string"
        }
      ],
      "stateMutability": "view",
      "type": "function",
      "constant": true
    },
    {
      "inputs": [
        {
          "internalType": "uint256",
          "name": "index",
          "type": "uint256"
        }
      ],
      "name": "tokenByIndex",
      "outputs": [
        {
          "internalType": "uint256",
          "name": "",
          "type": "uint256"
        }
      ],
      "stateMutability": "view",
      "type": "function",
      "constant": true
    },
    {
      "inputs": [
        {
          "internalType": "address",
          "name": "owner",
          "type": "address"
        },
        {
          "internalType": "uint256",
          "name": "index",
          "type": "uint256"
        }
      ],
      "name": "tokenOfOwnerByIndex",
      "outputs": [
        {
          "internalType": "uint256",
          "name": "",
          "type": "uint256"
        }
      ],
      "stateMutability": "view",
      "type": "function",
      "constant": true
    },
    {
      "inputs": [
        {
          "internalType": "uint256",
          "name": "tokenId",
          "type": "uint256"
        }
      ],
      "name": "tokenURI",
      "outputs": [
        {
          "internalType": "string",
          "name": "",
          "type": "string"
        }
      ],
      "stateMutability": "view",
      "type": "function",
      "constant": true
    },
    {
      "inputs": [],
      "name": "totalSupply",
      "outputs": [
        {
          "internalType": "uint256",
          "name": "",
          "type": "uint256"
        }
      ],
      "stateMutability": "view",
      "type": "function",
      "constant": true
    },
    {
      "inputs": [
        {
          "internalType": "address",
          "name": "from",
          "type": "address"
        },
        {
          "internalType": "address",
          "name": "to",
          "type": "address"
        },
        {
          "internalType": "uint256",
          "name": "tokenId",
          "type": "uint256"
        }
      ],
      "name": "transferFrom",
      "outputs": [],
      "stateMutability": "nonpayable",
      "type": "function"
    },
    {
      "inputs": [
        {
          "internalType": "address",
          "name": "newOwner",
          "type": "address"
        }
      ],
      "name": "transferOwnership",
      "outputs": [],
      "stateMutability": "nonpayable",
      "type": "function"
    },
    {
      "inputs": [
        {
          "internalType": "address",
          "name": "to",
          "type": "address"
        },
        {
          "internalType": "uint256",
          "name": "tokenId",
          "type": "uint256"
        }
      ],
      "name": "mint",
      "outputs": [
        {
          "internalType": "bool",
          "name": "",
          "type": "bool"
        }
      ],
      "stateMutability": "nonpayable",
      "type": "function"
    }
  ],
  "bytecode": "0x60806040523480156200001157600080fd5b506040518060400160405280600781526020017f4d495941373231000000000000000000000000000000000000000000000000008152506040518060400160405280600481526020017f4d495941000000000000000000000000000000000000000000000000000000008152506040518060600160405280603f815260200162004173603f9139336000806101000a81548173ffffffffffffffffffffffffffffffffffffffff021916908373ffffffffffffffffffffffffffffffffffffffff16021790555060008054906101000a900473ffffffffffffffffffffffffffffffffffffffff1673ffffffffffffffffffffffffffffffffffffffff16600073ffffffffffffffffffffffffffffffffffffffff167f626cdf6166418a6397bb90e5da5168ced0150f0bf4bc7c9389bf65369f18028060405160405180910390a360008060146101000a81548160ff021916908315150217905550620001856301ffc9a760e01b6200028460201b60201c565b6200019d6380ac58cd60e01b6200028460201b60201c565b620001b563780e9d6360e01b6200028460201b60201c565b60008351118015620001c8575060008251115b8015620001d6575060008151115b62000218576040517f08c379a00000000000000000000000000000000000000000000000000000000081526004016200020f906200045a565b60405180910390fd5b82600f9080519060200190620002309291906200035c565b508160109080519060200190620002499291906200035c565b508060119080519060200190620002629291906200035c565b506200027b635b5e139f60e01b6200028460201b60201c565b50505062000566565b63ffffffff60e01b817bffffffffffffffffffffffffffffffffffffffffffffffffffffffff19161415620002f0576040517f08c379a0000000000000000000000000000000000000000000000000000000008152600401620002e7906200047c565b60405180910390fd5b6001806000837bffffffffffffffffffffffffffffffffffffffffffffffffffffffff19167bffffffffffffffffffffffffffffffffffffffffffffffffffffffff1916815260200190815260200160002060006101000a81548160ff02191690831515021790555050565b8280546200036a90620004af565b90600052602060002090601f0160209004810192826200038e5760008555620003da565b82601f10620003a957805160ff1916838001178555620003da565b82800160010185558215620003da579182015b82811115620003d9578251825591602001919060010190620003bc565b5b509050620003e99190620003ed565b5090565b5b8082111562000408576000816000905550600101620003ee565b5090565b60006200041b601c836200049e565b9150620004288262000514565b602082019050919050565b6000620004426017836200049e565b91506200044f826200053d565b602082019050919050565b6000602082019050818103600083015262000475816200040c565b9050919050565b60006020820190508181036000830152620004978162000433565b9050919050565b600082825260208201905092915050565b60006002820490506001821680620004c857607f821691505b60208210811415620004df57620004de620004e5565b5b50919050565b7f4e487b7100000000000000000000000000000000000000000000000000000000600052602260045260246000fd5b7f436f6e747261637420696e6974206973206e6f7420636f727265637400000000600082015250565b7f496e746572666163654944206e6f7420636f7272656374000000000000000000600082015250565b613bfd80620005766000396000f3fe608060405234801561001057600080fd5b506004361061014d5760003560e01c806342842e0e116100c3578063a22cb4651161007c578063a22cb465146103c2578063b88d4fde146103de578063bdc32be0146103fa578063c87b56dd14610418578063e985e9c514610448578063f2fde38b146104785761014d565b806342842e0e146102da5780634f6ccce7146102f65780636352211e1461032657806370a0823114610356578063893d20e81461038657806395d89b41146103a45761014d565b806318160ddd1161011557806318160ddd1461020857806323b872dd1461022657806327dc297e146102425780632f745c591461025e57806338bbfa501461028e57806340c10f19146102aa5761014d565b806301ffc9a71461015257806306fdde0314610182578063081812fc146101a0578063095ea7b3146101d057806316c38b3c146101ec575b600080fd5b61016c60048036038101906101679190612cc5565b610494565b6040516101799190613099565b60405180910390f35b61018a6104fc565b60405161019791906130b4565b60405180910390f35b6101ba60048036038101906101b59190612d17565b61058e565b6040516101c79190613032565b60405180910390f35b6101ea60048036038101906101e59190612b8d565b6105cb565b005b61020660048036038101906102019190612bc9565b610792565b005b6102106108de565b60405161021d91906132f6565b60405180910390f35b610240600480360381019061023b9190612a87565b6108eb565b005b61025c60048036038101906102579190612bf2565b610994565b005b61027860048036038101906102739190612b8d565b610a16565b60405161028591906132f6565b60405180910390f35b6102a860048036038101906102a39190612c46565b610aec565b005b6102c460048036038101906102bf9190612b8d565b610b0f565b6040516102d19190613099565b60405180910390f35b6102f460048036038101906102ef9190612a87565b610c0d565b005b610310600480360381019061030b9190612d17565b610c7d565b60405161031d91906132f6565b60405180910390f35b610340600480360381019061033b9190612d17565b610d14565b60405161034d9190613032565b60405180910390f35b610370600480360381019061036b9190612a22565b610d51565b60405161037d91906132f6565b60405180910390f35b61038e610da1565b60405161039b9190613032565b60405180910390f35b6103ac610dca565b6040516103b991906130b4565b60405180910390f35b6103dc60048036038101906103d79190612b51565b610e5c565b005b6103f860048036038101906103f39190612ad6565b611018565b005b6104026110c4565b60405161040f91906130b4565b60405180910390f35b610432600480360381019061042d9190612d17565b611156565b60405161043f91906130b4565b60405180910390f35b610462600480360381019061045d9190612a4b565b611243565b60405161046f9190613099565b60405180910390f35b610492600480360381019061048d9190612a22565b6112d7565b005b600060016000837bffffffffffffffffffffffffffffffffffffffffffffffffffffffff19167bffffffffffffffffffffffffffffffffffffffffffffffffffffffff1916815260200190815260200160002060009054906101000a900460ff169050919050565b6060600f805461050b90613575565b80601f016020809104026020016040519081016040528092919081815260200182805461053790613575565b80156105845780601f1061055957610100808354040283529160200191610584565b820191906000526020600020905b81548152906001019060200180831161056757829003601f168201915b5050505050905090565b60006003600083815260200190815260200160002060009054906101000a900473ffffffffffffffffffffffffffffffffffffffff169050919050565b600060149054906101000a900460ff161561061b576040517f08c379a000000000000000000000000000000000000000000000000000000000815260040161061290613116565b60405180910390fd5b600061062682610d14565b90508073ffffffffffffffffffffffffffffffffffffffff168373ffffffffffffffffffffffffffffffffffffffff161415610697576040517f08c379a000000000000000000000000000000000000000000000000000000000815260040161068e906130f6565b60405180910390fd5b6106a13383611500565b6106e0576040517f08c379a00000000000000000000000000000000000000000000000000000000081526004016106d7906131f6565b60405180910390fd5b826003600084815260200190815260200160002060006101000a81548173ffffffffffffffffffffffffffffffffffffffff021916908373ffffffffffffffffffffffffffffffffffffffff160217905550818373ffffffffffffffffffffffffffffffffffffffff168273ffffffffffffffffffffffffffffffffffffffff167f8c5be1e5ebec7d5bd14f71427d1e84f3dd0314c0f7b2291e5b200ac8c7c3b92560405160405180910390a4505050565b60008054906101000a900473ffffffffffffffffffffffffffffffffffffffff1673ffffffffffffffffffffffffffffffffffffffff163373ffffffffffffffffffffffffffffffffffffffff1614610820576040517f08c379a000000000000000000000000000000000000000000000000000000000815260040161081790613236565b60405180910390fd5b80600060146101000a81548160ff021916908315150217905550600060149054906101000a900460ff1615610897573373ffffffffffffffffffffffffffffffffffffffff167f4b747fea41327811583b4e6ed38857cbc8340504c45e4a5bae62602deaa2d7ca60405160405180910390a26108db565b3373ffffffffffffffffffffffffffffffffffffffff167f3ffe570da3d55d4cf7ef7fa0466eb22a04ea114015c4514149c850a1663edf4560405160405180910390a25b50565b6000600880549050905090565b600060149054906101000a900460ff161561093b576040517f08c379a000000000000000000000000000000000000000000000000000000000815260040161093290613116565b60405180910390fd5b6109453382611500565b610984576040517f08c379a000000000000000000000000000000000000000000000000000000000815260040161097b906131b6565b60405180910390fd5b61098f838383611595565b505050565b610a128282600067ffffffffffffffff8111156109da577f4e487b7100000000000000000000000000000000000000000000000000000000600052604160045260246000fd5b6040519080825280601f01601f191660200182016040528015610a0c5781602001600182028036833780820191505090505b50610aec565b5050565b6000610a2183610d51565b8210610a62576040517f08c379a0000000000000000000000000000000000000000000000000000000008152600401610a5990613156565b60405180910390fd5b600660008473ffffffffffffffffffffffffffffffffffffffff1673ffffffffffffffffffffffffffffffffffffffff1681526020019081526020016000208281548110610ad9577f4e487b7100000000000000000000000000000000000000000000000000000000600052603260045260246000fd5b9060005260206000200154905092915050565b6000801b600d60008060001b815260200190815260200160002081905550505050565b60008060009054906101000a900473ffffffffffffffffffffffffffffffffffffffff1673ffffffffffffffffffffffffffffffffffffffff163373ffffffffffffffffffffffffffffffffffffffff1614610ba0576040517f08c379a0000000000000000000000000000000000000000000000000000000008152600401610b9790613236565b60405180910390fd5b600060149054906101000a900460ff1615610bf0576040517f08c379a0000000000000000000000000000000000000000000000000000000008152600401610be790613116565b60405180910390fd5b610bfa83836115b9565b610c03826115da565b6001905092915050565b600060149054906101000a900460ff1615610c5d576040517f08c379a0000000000000000000000000000000000000000000000000000000008152600401610c5490613116565b60405180910390fd5b610c7883838360405180602001604052806000815250611018565b505050565b6000610c876108de565b8210610cc8576040517f08c379a0000000000000000000000000000000000000000000000000000000008152600401610cbf90613136565b60405180910390fd5b60088281548110610d02577f4e487b7100000000000000000000000000000000000000000000000000000000600052603260045260246000fd5b90600052602060002001549050919050565b60006002600083815260200190815260200160002060009054906101000a900473ffffffffffffffffffffffffffffffffffffffff169050919050565b6000610d9a600460008473ffffffffffffffffffffffffffffffffffffffff1673ffffffffffffffffffffffffffffffffffffffff1681526020019081526020016000206116e8565b9050919050565b60008060009054906101000a900473ffffffffffffffffffffffffffffffffffffffff16905090565b606060108054610dd990613575565b80601f0160208091040260200160405190810160405280929190818152602001828054610e0590613575565b8015610e525780601f10610e2757610100808354040283529160200191610e52565b820191906000526020600020905b815481529060010190602001808311610e3557829003601f168201915b5050505050905090565b600060149054906101000a900460ff1615610eac576040517f08c379a0000000000000000000000000000000000000000000000000000000008152600401610ea390613116565b60405180910390fd5b3373ffffffffffffffffffffffffffffffffffffffff168273ffffffffffffffffffffffffffffffffffffffff161415610f1b576040517f08c379a0000000000000000000000000000000000000000000000000000000008152600401610f1290613196565b60405180910390fd5b80600560003373ffffffffffffffffffffffffffffffffffffffff1673ffffffffffffffffffffffffffffffffffffffff16815260200190815260200160002060008473ffffffffffffffffffffffffffffffffffffffff1673ffffffffffffffffffffffffffffffffffffffff16815260200190815260200160002060006101000a81548160ff0219169083151502179055508173ffffffffffffffffffffffffffffffffffffffff163373ffffffffffffffffffffffffffffffffffffffff167f17307eab39ab6107e8899845ad3d59bd9653f200f220920489ca2b5937696c318360405161100c9190613099565b60405180910390a35050565b600060149054906101000a900460ff1615611068576040517f08c379a000000000000000000000000000000000000000000000000000000000815260040161105f90613116565b60405180910390fd5b6110738484846108eb565b61107f848484846116f6565b6110be576040517f08c379a00000000000000000000000000000000000000000000000000000000081526004016110b590613256565b60405180910390fd5b50505050565b6060601180546110d390613575565b80601f01602080910402602001604051908101604052809291908181526020018280546110ff90613575565b801561114c5780601f106111215761010080835404028352916020019161114c565b820191906000526020600020905b81548152906001019060200180831161112f57829003601f168201915b5050505050905090565b60606111618261180d565b6111a0576040517f08c379a000000000000000000000000000000000000000000000000000000000815260040161119790613296565b60405180910390fd5b6012600083815260200190815260200160002080546111be90613575565b80601f01602080910402602001604051908101604052809291908181526020018280546111ea90613575565b80156112375780601f1061120c57610100808354040283529160200191611237565b820191906000526020600020905b81548152906001019060200180831161121a57829003601f168201915b50505050509050919050565b6000600560008473ffffffffffffffffffffffffffffffffffffffff1673ffffffffffffffffffffffffffffffffffffffff16815260200190815260200160002060008373ffffffffffffffffffffffffffffffffffffffff1673ffffffffffffffffffffffffffffffffffffffff16815260200190815260200160002060009054906101000a900460ff16905092915050565b60008054906101000a900473ffffffffffffffffffffffffffffffffffffffff1673ffffffffffffffffffffffffffffffffffffffff163373ffffffffffffffffffffffffffffffffffffffff1614611365576040517f08c379a000000000000000000000000000000000000000000000000000000000815260040161135c90613236565b60405180910390fd5b600073ffffffffffffffffffffffffffffffffffffffff163373ffffffffffffffffffffffffffffffffffffffff1614156113d5576040517f08c379a00000000000000000000000000000000000000000000000000000000081526004016113cc90613216565b60405180910390fd5b3373ffffffffffffffffffffffffffffffffffffffff163273ffffffffffffffffffffffffffffffffffffffff1614611443576040517f08c379a000000000000000000000000000000000000000000000000000000000815260040161143a906132d6565b60405180910390fd5b8073ffffffffffffffffffffffffffffffffffffffff1660008054906101000a900473ffffffffffffffffffffffffffffffffffffffff1673ffffffffffffffffffffffffffffffffffffffff167f626cdf6166418a6397bb90e5da5168ced0150f0bf4bc7c9389bf65369f18028060405160405180910390a3806000806101000a81548173ffffffffffffffffffffffffffffffffffffffff021916908373ffffffffffffffffffffffffffffffffffffffff16021790555050565b60008061150c83610d14565b90508073ffffffffffffffffffffffffffffffffffffffff168473ffffffffffffffffffffffffffffffffffffffff16148061157b57508373ffffffffffffffffffffffffffffffffffffffff166115638461058e565b73ffffffffffffffffffffffffffffffffffffffff16145b8061158c575061158b8185611243565b5b91505092915050565b6115a083838361187f565b6115aa8382611ad9565b6115b48282611d09565b505050565b6115c38282611dcd565b6115cd8282611d09565b6115d681611f7e565b5050565b6115e38161180d565b611622576040517f08c379a0000000000000000000000000000000000000000000000000000000008152600401611619906131d6565b60405180910390fd5b6116be6011805461163290613575565b80601f016020809104026020016040519081016040528092919081815260200182805461165e90613575565b80156116ab5780601f10611680576101008083540402835291602001916116ab565b820191906000526020600020905b81548152906001019060200180831161168e57829003601f168201915b50505050506116b983611fc7565b612177565b6012600083815260200190815260200160002090805190602001906116e4929190612831565b5050565b600081600001549050919050565b60006117178473ffffffffffffffffffffffffffffffffffffffff166121bb565b6117245760019050611805565b60008473ffffffffffffffffffffffffffffffffffffffff1663150b7a02338887876040518563ffffffff1660e01b8152600401611765949392919061304d565b602060405180830381600087803b15801561177f57600080fd5b505af1158015611793573d6000803e3d6000fd5b505050506040513d601f19601f820116820180604052508101906117b79190612cee565b905063150b7a0260e01b7bffffffffffffffffffffffffffffffffffffffffffffffffffffffff1916817bffffffffffffffffffffffffffffffffffffffffffffffffffffffff1916149150505b949350505050565b6000806002600084815260200190815260200160002060009054906101000a900473ffffffffffffffffffffffffffffffffffffffff169050600073ffffffffffffffffffffffffffffffffffffffff168173ffffffffffffffffffffffffffffffffffffffff161415915050919050565b8273ffffffffffffffffffffffffffffffffffffffff166002600083815260200190815260200160002060009054906101000a900473ffffffffffffffffffffffffffffffffffffffff1673ffffffffffffffffffffffffffffffffffffffff1614611920576040517f08c379a000000000000000000000000000000000000000000000000000000000815260040161191790613276565b60405180910390fd5b600073ffffffffffffffffffffffffffffffffffffffff168273ffffffffffffffffffffffffffffffffffffffff161415611990576040517f08c379a0000000000000000000000000000000000000000000000000000000008152600401611987906132b6565b60405180910390fd5b611999816121ce565b6119e0600460008573ffffffffffffffffffffffffffffffffffffffff1673ffffffffffffffffffffffffffffffffffffffff16815260200190815260200160002061228c565b611a27600460008473ffffffffffffffffffffffffffffffffffffffff1673ffffffffffffffffffffffffffffffffffffffff1681526020019081526020016000206122e8565b816002600083815260200190815260200160002060006101000a81548173ffffffffffffffffffffffffffffffffffffffff021916908373ffffffffffffffffffffffffffffffffffffffff160217905550808273ffffffffffffffffffffffffffffffffffffffff168473ffffffffffffffffffffffffffffffffffffffff167fddf252ad1be2c89b69c2b068fc378daa952ba7f163c4a11628f55a4df523b3ef60405160405180910390a4505050565b6000611b316001600660008673ffffffffffffffffffffffffffffffffffffffff1673ffffffffffffffffffffffffffffffffffffffff168152602001908152602001600020805490506122fe90919063ffffffff16565b9050600060076000848152602001908152602001600020549050818114611c78576000600660008673ffffffffffffffffffffffffffffffffffffffff1673ffffffffffffffffffffffffffffffffffffffff1681526020019081526020016000208381548110611bcb577f4e487b7100000000000000000000000000000000000000000000000000000000600052603260045260246000fd5b9060005260206000200154905080600660008773ffffffffffffffffffffffffffffffffffffffff1673ffffffffffffffffffffffffffffffffffffffff1681526020019081526020016000208381548110611c50577f4e487b7100000000000000000000000000000000000000000000000000000000600052603260045260246000fd5b9060005260206000200181905550816007600083815260200190815260200160002081905550505b600660008573ffffffffffffffffffffffffffffffffffffffff1673ffffffffffffffffffffffffffffffffffffffff168152602001908152602001600020805480611ced577f4e487b7100000000000000000000000000000000000000000000000000000000600052603160045260246000fd5b6001900381819060005260206000200160009055905550505050565b600660008373ffffffffffffffffffffffffffffffffffffffff1673ffffffffffffffffffffffffffffffffffffffff168152602001908152602001600020805490506007600083815260200190815260200160002081905550600660008373ffffffffffffffffffffffffffffffffffffffff1673ffffffffffffffffffffffffffffffffffffffff1681526020019081526020016000208190806001815401808255809150506001900390600052602060002001600090919091909150555050565b611dd68161180d565b15611e16576040517f08c379a0000000000000000000000000000000000000000000000000000000008152600401611e0d90613176565b60405180910390fd5b600073ffffffffffffffffffffffffffffffffffffffff168273ffffffffffffffffffffffffffffffffffffffff161415611e86576040517f08c379a0000000000000000000000000000000000000000000000000000000008152600401611e7d906132b6565b60405180910390fd5b816002600083815260200190815260200160002060006101000a81548173ffffffffffffffffffffffffffffffffffffffff021916908373ffffffffffffffffffffffffffffffffffffffff160217905550611f1f600460008473ffffffffffffffffffffffffffffffffffffffff1673ffffffffffffffffffffffffffffffffffffffff1681526020019081526020016000206122e8565b808273ffffffffffffffffffffffffffffffffffffffff163373ffffffffffffffffffffffffffffffffffffffff167fddf252ad1be2c89b69c2b068fc378daa952ba7f163c4a11628f55a4df523b3ef60405160405180910390a45050565b6008805490506009600083815260200190815260200160002081905550600881908060018154018082558091505060019003906000526020600020016000909190919091505550565b6060600082141561200f576040518060400160405280600181526020017f30000000000000000000000000000000000000000000000000000000000000008152509050612172565b600082905060005b6000821461204157808061202a906135d8565b915050600a8261203a9190613426565b9150612017565b60008167ffffffffffffffff811115612083577f4e487b7100000000000000000000000000000000000000000000000000000000600052604160045260246000fd5b6040519080825280601f01601f1916602001820160405280156120b55781602001600182028036833780820191505090505b50905060008290505b6000861461216a57600a866120d39190613621565b60306120df91906133d0565b60f81b82826120ed9061354b565b92508281518110612127577f4e487b7100000000000000000000000000000000000000000000000000000000600052603260045260246000fd5b60200101907effffffffffffffffffffffffffffffffffffffffffffffffffffffffffffff1916908160001a905350600a866121639190613426565b95506120be565b819450505050505b919050565b60606121b38383604051806020016040528060008152506040518060200160405280600081525060405180602001604052806000815250612314565b905092915050565b600080823b905060008111915050919050565b600073ffffffffffffffffffffffffffffffffffffffff166003600083815260200190815260200160002060009054906101000a900473ffffffffffffffffffffffffffffffffffffffff1673ffffffffffffffffffffffffffffffffffffffff16146122895760006003600083815260200190815260200160002060006101000a81548173ffffffffffffffffffffffffffffffffffffffff021916908373ffffffffffffffffffffffffffffffffffffffff1602179055505b50565b600081600001549050600081116122d8576040517f08c379a00000000000000000000000000000000000000000000000000000000081526004016122cf906130d6565b60405180910390fd5b6001810382600001819055505050565b6001816000016000828254019250508190555050565b6000818361230c9190613457565b905092915050565b60606000869050600086905060008690506000869050600086905060008151835185518751895161234591906133d0565b61234f91906133d0565b61235991906133d0565b61236391906133d0565b67ffffffffffffffff8111156123a2577f4e487b7100000000000000000000000000000000000000000000000000000000600052604160045260246000fd5b6040519080825280601f01601f1916602001820160405280156123d45781602001600182028036833780820191505090505b5090506000819050600080600090505b88518110156124b857888181518110612426577f4e487b7100000000000000000000000000000000000000000000000000000000600052603260045260246000fd5b602001015160f81c60f81b83838061243d906135d8565b945081518110612476577f4e487b7100000000000000000000000000000000000000000000000000000000600052603260045260246000fd5b60200101907effffffffffffffffffffffffffffffffffffffffffffffffffffffffffffff1916908160001a90535080806124b0906135d8565b9150506123e4565b600090505b8751811015612591578781815181106124ff577f4e487b7100000000000000000000000000000000000000000000000000000000600052603260045260246000fd5b602001015160f81c60f81b838380612516906135d8565b94508151811061254f577f4e487b7100000000000000000000000000000000000000000000000000000000600052603260045260246000fd5b60200101907effffffffffffffffffffffffffffffffffffffffffffffffffffffffffffff1916908160001a9053508080612589906135d8565b9150506124bd565b600090505b865181101561266a578681815181106125d8577f4e487b7100000000000000000000000000000000000000000000000000000000600052603260045260246000fd5b602001015160f81c60f81b8383806125ef906135d8565b945081518110612628577f4e487b7100000000000000000000000000000000000000000000000000000000600052603260045260246000fd5b60200101907effffffffffffffffffffffffffffffffffffffffffffffffffffffffffffff1916908160001a9053508080612662906135d8565b915050612596565b600090505b8551811015612743578581815181106126b1577f4e487b7100000000000000000000000000000000000000000000000000000000600052603260045260246000fd5b602001015160f81c60f81b8383806126c8906135d8565b945081518110612701577f4e487b7100000000000000000000000000000000000000000000000000000000600052603260045260246000fd5b60200101907effffffffffffffffffffffffffffffffffffffffffffffffffffffffffffff1916908160001a905350808061273b906135d8565b91505061266f565b600090505b845181101561281c5784818151811061278a577f4e487b7100000000000000000000000000000000000000000000000000000000600052603260045260246000fd5b602001015160f81c60f81b8383806127a1906135d8565b9450815181106127da577f4e487b7100000000000000000000000000000000000000000000000000000000600052603260045260246000fd5b60200101907effffffffffffffffffffffffffffffffffffffffffffffffffffffffffffff1916908160001a9053508080612814906135d8565b915050612748565b82995050505050505050505095945050505050565b82805461283d90613575565b90600052602060002090601f01602090048101928261285f57600085556128a6565b82601f1061287857805160ff19168380011785556128a6565b828001600101855582156128a6579182015b828111156128a557825182559160200191906001019061288a565b5b5090506128b391906128b7565b5090565b5b808211156128d05760008160009055506001016128b8565b5090565b60006128e76128e284613336565b613311565b9050828152602081018484840111156128ff57600080fd5b61290a848285613509565b509392505050565b600061292561292084613367565b613311565b90508281526020810184848401111561293d57600080fd5b612948848285613509565b509392505050565b60008135905061295f81613b54565b92915050565b60008135905061297481613b6b565b92915050565b60008135905061298981613b82565b92915050565b60008135905061299e81613b99565b92915050565b6000815190506129b381613b99565b92915050565b600082601f8301126129ca57600080fd5b81356129da8482602086016128d4565b91505092915050565b600082601f8301126129f457600080fd5b8135612a04848260208601612912565b91505092915050565b600081359050612a1c81613bb0565b92915050565b600060208284031215612a3457600080fd5b6000612a4284828501612950565b91505092915050565b60008060408385031215612a5e57600080fd5b6000612a6c85828601612950565b9250506020612a7d85828601612950565b9150509250929050565b600080600060608486031215612a9c57600080fd5b6000612aaa86828701612950565b9350506020612abb86828701612950565b9250506040612acc86828701612a0d565b9150509250925092565b60008060008060808587031215612aec57600080fd5b6000612afa87828801612950565b9450506020612b0b87828801612950565b9350506040612b1c87828801612a0d565b925050606085013567ffffffffffffffff811115612b3957600080fd5b612b45878288016129b9565b91505092959194509250565b60008060408385031215612b6457600080fd5b6000612b7285828601612950565b9250506020612b8385828601612965565b9150509250929050565b60008060408385031215612ba057600080fd5b6000612bae85828601612950565b9250506020612bbf85828601612a0d565b9150509250929050565b600060208284031215612bdb57600080fd5b6000612be984828501612965565b91505092915050565b60008060408385031215612c0557600080fd5b6000612c138582860161297a565b925050602083013567ffffffffffffffff811115612c3057600080fd5b612c3c858286016129e3565b9150509250929050565b600080600060608486031215612c5b57600080fd5b6000612c698682870161297a565b935050602084013567ffffffffffffffff811115612c8657600080fd5b612c92868287016129e3565b925050604084013567ffffffffffffffff811115612caf57600080fd5b612cbb868287016129b9565b9150509250925092565b600060208284031215612cd757600080fd5b6000612ce58482850161298f565b91505092915050565b600060208284031215612d0057600080fd5b6000612d0e848285016129a4565b91505092915050565b600060208284031215612d2957600080fd5b6000612d3784828501612a0d565b91505092915050565b612d498161348b565b82525050565b612d588161349d565b82525050565b6000612d6982613398565b612d7381856133ae565b9350612d83818560208601613518565b612d8c8161370e565b840191505092915050565b6000612da2826133a3565b612dac81856133bf565b9350612dbc818560208601613518565b612dc58161370e565b840191505092915050565b6000612ddd601b836133bf565b9150612de88261371f565b602082019050919050565b6000612e006027836133bf565b9150612e0b82613748565b604082019050919050565b6000612e23603f836133bf565b9150612e2e82613797565b604082019050919050565b6000612e466029836133bf565b9150612e51826137e6565b604082019050919050565b6000612e696024836133bf565b9150612e7482613835565b604082019050919050565b6000612e8c6013836133bf565b9150612e9782613884565b602082019050919050565b6000612eaf6026836133bf565b9150612eba826138ad565b604082019050919050565b6000612ed2601d836133bf565b9150612edd826138fc565b602082019050919050565b6000612ef56014836133bf565b9150612f0082613925565b602082019050919050565b6000612f18604b836133bf565b9150612f238261394e565b606082019050919050565b6000612f3b601d836133bf565b9150612f46826139c3565b602082019050919050565b6000612f5e6024836133bf565b9150612f69826139ec565b604082019050919050565b6000612f816026836133bf565b9150612f8c82613a3b565b604082019050919050565b6000612fa4602a836133bf565b9150612faf82613a8a565b604082019050919050565b6000612fc76016836133bf565b9150612fd282613ad9565b602082019050919050565b6000612fea6015836133bf565b9150612ff582613b02565b602082019050919050565b600061300d6014836133bf565b915061301882613b2b565b602082019050919050565b61302c816134ff565b82525050565b60006020820190506130476000830184612d40565b92915050565b60006080820190506130626000830187612d40565b61306f6020830186612d40565b61307c6040830185613023565b818103606083015261308e8184612d5e565b905095945050505050565b60006020820190506130ae6000830184612d4f565b92915050565b600060208201905081810360008301526130ce8184612d97565b905092915050565b600060208201905081810360008301526130ef81612dd0565b9050919050565b6000602082019050818103600083015261310f81612df3565b9050919050565b6000602082019050818103600083015261312f81612e16565b9050919050565b6000602082019050818103600083015261314f81612e39565b9050919050565b6000602082019050818103600083015261316f81612e5c565b9050919050565b6000602082019050818103600083015261318f81612e7f565b9050919050565b600060208201905081810360008301526131af81612ea2565b9050919050565b600060208201905081810360008301526131cf81612ec5565b9050919050565b600060208201905081810360008301526131ef81612ee8565b9050919050565b6000602082019050818103600083015261320f81612f0b565b9050919050565b6000602082019050818103600083015261322f81612f2e565b9050919050565b6000602082019050818103600083015261324f81612f51565b9050919050565b6000602082019050818103600083015261326f81612f74565b9050919050565b6000602082019050818103600083015261328f81612f97565b9050919050565b600060208201905081810360008301526132af81612fba565b9050919050565b600060208201905081810360008301526132cf81612fdd565b9050919050565b600060208201905081810360008301526132ef81613000565b9050919050565b600060208201905061330b6000830184613023565b92915050565b600061331b61332c565b905061332782826135a7565b919050565b6000604051905090565b600067ffffffffffffffff821115613351576133506136df565b5b61335a8261370e565b9050602081019050919050565b600067ffffffffffffffff821115613382576133816136df565b5b61338b8261370e565b9050602081019050919050565b600081519050919050565b600081519050919050565b600082825260208201905092915050565b600082825260208201905092915050565b60006133db826134ff565b91506133e6836134ff565b9250827fffffffffffffffffffffffffffffffffffffffffffffffffffffffffffffffff0382111561341b5761341a613652565b5b828201905092915050565b6000613431826134ff565b915061343c836134ff565b92508261344c5761344b613681565b5b828204905092915050565b6000613462826134ff565b915061346d836134ff565b9250828210156134805761347f613652565b5b828203905092915050565b6000613496826134df565b9050919050565b60008115159050919050565b6000819050919050565b60007fffffffff0000000000000000000000000000000000000000000000000000000082169050919050565b600073ffffffffffffffffffffffffffffffffffffffff82169050919050565b6000819050919050565b82818337600083830152505050565b60005b8381101561353657808201518184015260208101905061351b565b83811115613545576000848401525b50505050565b6000613556826134ff565b9150600082141561356a57613569613652565b5b600182039050919050565b6000600282049050600182168061358d57607f821691505b602082108114156135a1576135a06136b0565b5b50919050565b6135b08261370e565b810181811067ffffffffffffffff821117156135cf576135ce6136df565b5b80604052505050565b60006135e3826134ff565b91507fffffffffffffffffffffffffffffffffffffffffffffffffffffffffffffffff82141561361657613615613652565b5b600182019050919050565b600061362c826134ff565b9150613637836134ff565b92508261364757613646613681565b5b828206905092915050565b7f4e487b7100000000000000000000000000000000000000000000000000000000600052601160045260246000fd5b7f4e487b7100000000000000000000000000000000000000000000000000000000600052601260045260246000fd5b7f4e487b7100000000000000000000000000000000000000000000000000000000600052602260045260246000fd5b7f4e487b7100000000000000000000000000000000000000000000000000000000600052604160045260246000fd5b6000601f19601f8301169050919050565b7f436f756e7465723a2064656372656d656e74206f766572666c6f770000000000600082015250565b7f44657374696e6174696f6e2063616e6e6f74206265207468652063757272656e60008201527f74206f776e657200000000000000000000000000000000000000000000000000602082015250565b7f436f6e7472616374206d757374206e6f742062652070617573656420696e206f60008201527f7264657220746f2063616c6c20746869732066756e6374696f6e616c69747900602082015250565b7f496e646578206d757374206265206c6f776572207468616e2074686520746f7460008201527f616c20737570706c790000000000000000000000000000000000000000000000602082015250565b7f496e646578206d757374206265206c6f776572207468616e20746f6b656e206360008201527f6f756e7400000000000000000000000000000000000000000000000000000000602082015250565b7f546f6b656e20616c726561647920657869737400000000000000000000000000600082015250565b7f43616c6c65722063616e6e6f742073657420617070726f76616c20666f72206860008201527f696d73656c660000000000000000000000000000000000000000000000000000602082015250565b7f4163636f756e74206e6f7420617070726f766564206f72206f776e6572000000600082015250565b7f546f6b656e20646f6573206e6f74206578697374000000000000000000000000600082015250565b7f43616c6c6572206973206e6f742063757272656e74206f776e6572206f72206460008201527f6f6573206e6f74206861766520617070726f76616c20746f207472616e736d6960208201527f742074686520746f6b656e000000000000000000000000000000000000000000604082015250565b7f43616c6c65722063616e6e6f74206265206e756c6c2061646472657373000000600082015250565b7f43616c6c6572206d757374206265206f776e6572206f662074686520636f6e7460008201527f7261637400000000000000000000000000000000000000000000000000000000602082015250565b7f43616e6e6f74207472616e736665722045524337323120746f2074686973206160008201527f63636f756e740000000000000000000000000000000000000000000000000000602082015250565b7f46726f6d2061646472657373206973206e6f7420746865206f776e6572206f6660008201527f2074686520746f6b656e00000000000000000000000000000000000000000000602082015250565b7f546f6b656e494420646f6573206e6f7420657869737400000000000000000000600082015250565b7f546f206164647265737320697320696e76616c69640000000000000000000000600082015250565b7f43616c6c6572206d757374206265206120454f41000000000000000000000000600082015250565b613b5d8161348b565b8114613b6857600080fd5b50565b613b748161349d565b8114613b7f57600080fd5b50565b613b8b816134a9565b8114613b9657600080fd5b50565b613ba2816134b3565b8114613bad57600080fd5b50565b613bb9816134ff565b8114613bc457600080fd5b5056fea2646970667358221220d30b194037f9b625930f8c102da2f62e782cadb3956ca7cca176c7fe1ba47ba764736f6c6343000804003368747470733a2f2f73332d75732d776573742d322e616d617a6f6e6177732e636f6d2f756461636974792d626c6f636b636861696e2f63617073746f6e652f",
  "immutableReferences": {},
  "source": "// \"SPDX-License-Identifier: MIYA\"\n\npragma solidity ^0.8.0;\n\nimport \"@openzeppelin/contracts/utils/Address.sol\";\nimport \"@openzeppelin/contracts/utils/Counters.sol\";\nimport \"@openzeppelin/contracts/utils/math/SafeMath.sol\";\nimport \"@openzeppelin/contracts/token/ERC721/IERC721Receiver.sol\";\nimport \"./Provable.sol\";\n\ncontract Ownable {\n    event NEW_OWNER(address indexed _previousOwner, address indexed _newOnwer);\n\n    address private _owner;\n\n    constructor() {\n        _owner = msg.sender;\n        emit NEW_OWNER(address(0), _owner);\n    }\n\n    modifier realEOA() {\n        require(msg.sender != address(0), \"Caller cannot be null address\");\n        require(tx.origin == msg.sender, \"Caller must be a EOA\");\n        _;\n    }\n    modifier onlyOwner() {\n        require(msg.sender == _owner, \"Caller must be owner of the contract\");\n        _;\n    }\n\n    function getOwner() public view returns (address) {\n        return _owner;\n    }\n\n    function transferOwnership(address newOwner) public onlyOwner realEOA {\n        emit NEW_OWNER(_owner, newOwner);\n        _owner = newOwner;\n    }\n}\n\ncontract Pausable is Ownable {\n    bool private _paused;\n    event PAUSED(address indexed _origin);\n    event UNPAUSED(address indexed _origin);\n\n    constructor() {\n        _paused = false;\n    }\n\n    modifier whenNotPaused() {\n        require(\n            !_paused,\n            \"Contract must not be paused in order to call this functionality\"\n        );\n        _;\n    }\n\n    modifier paused() {\n        require(\n            _paused,\n            \"Contract must be paused in order to call this functionality\"\n        );\n        _;\n    }\n\n    function setPaused(bool isPaused) public onlyOwner {\n        _paused = isPaused;\n        if (_paused) {\n            emit PAUSED(msg.sender);\n        } else {\n            emit UNPAUSED(msg.sender);\n        }\n    }\n}\n\nabstract contract ERC165 {\n    bytes4 private constant _INTERFACE_ID_ERC165 = 0x01ffc9a7;\n    /*\n     * 0x01ffc9a7 ===\n     *     bytes4(keccak256('supportsInterface(bytes4)'))\n     */\n\n    /**\n     * @dev a mapping of interface id to whether or not it's supported\n     */\n    mapping(bytes4 => bool) private _supportedInterfaces;\n\n    /**\n     * @dev A contract implementing SupportsInterfaceWithLookup\n     * implement ERC165 itself\n     */\n    constructor() {\n        _registerInterface(_INTERFACE_ID_ERC165);\n    }\n\n    /**\n     * @dev implement supportsInterface(bytes4) using a lookup table\n     */\n    function supportsInterface(bytes4 interfaceId)\n        external\n        view\n        returns (bool)\n    {\n        return _supportedInterfaces[interfaceId];\n    }\n\n    /**\n     * @dev internal method for registering an interface\n     */\n    function _registerInterface(bytes4 interfaceId) internal {\n        require(interfaceId != 0xffffffff, \"InterfaceID not correct\");\n        _supportedInterfaces[interfaceId] = true;\n    }\n}\n\ncontract ERC721 is Pausable, ERC165 {\n    event Transfer(\n        address indexed _from,\n        address indexed _to,\n        uint256 indexed _tokenId\n    );\n\n    event Approval(\n        address indexed _owner,\n        address indexed _approved,\n        uint256 indexed _tokenId\n    );\n\n    event ApprovalForAll(\n        address indexed _owner,\n        address indexed _operator,\n        bool _approved\n    );\n\n    using SafeMath for uint256;\n    using Address for address;\n    using Counters for Counters.Counter;\n\n    // Equals to `bytes4(keccak256(\"onERC721Received(address,address,uint256,bytes)\"))`\n    // which can be also obtained as `IERC721Receiver(0).onERC721Received.selector`\n    bytes4 private constant _ERC721_RECEIVED = 0x150b7a02;\n\n    // Mapping from token ID to owner\n    mapping(uint256 => address) private _tokenOwner;\n\n    // Mapping from token ID to approved address\n    mapping(uint256 => address) private _tokenApprovals;\n\n    // Mapping from owner to number of owned token\n    // IMPORTANT: this mapping uses Counters lib which is used to protect overflow when incrementing/decrementing a uint\n    // use the following functions when interacting with Counters: increment(), decrement(), and current() to get the value\n    // see: https://github.com/OpenZeppelin/openzeppelin-contracts/blob/master/contracts/utils/Counters.sol\n    mapping(address => Counters.Counter) private _ownedTokensCount;\n\n    // Mapping from owner to operator approvals\n    mapping(address => mapping(address => bool)) private _operatorApprovals;\n\n    bytes4 private constant _INTERFACE_ID_ERC721 = 0x80ac58cd;\n\n    constructor() {\n        // register the supported interfaces to conform to ERC721 via ERC165\n        _registerInterface(_INTERFACE_ID_ERC721);\n    }\n\n    function balanceOf(address owner) public view returns (uint256) {\n        return _ownedTokensCount[owner].current();\n    }\n\n    function ownerOf(uint256 tokenId) public view returns (address) {\n        return _tokenOwner[tokenId];\n    }\n\n    //    @dev Approves another address to transfer the given token ID\n    function approve(address to, uint256 tokenId) public whenNotPaused {\n        address owner = ownerOf(tokenId);\n        require(to != owner, \"Destination cannot be the current owner\");\n\n        require(\n            _isApprovedOrOwner(msg.sender, tokenId),\n            \"Caller is not current owner or does not have approval to transmit the token\"\n        );\n\n        _tokenApprovals[tokenId] = to;\n        emit Approval(owner, to, tokenId);\n    }\n\n    function getApproved(uint256 tokenId) public view returns (address) {\n        return _tokenApprovals[tokenId];\n    }\n\n    /**\n     * @dev Sets or unsets the approval of a given operator\n     * An operator is allowed to transfer all tokens of the sender on their behalf\n     * @param to operator address to set the approval\n     * @param approved representing the status of the approval to be set\n     */\n    function setApprovalForAll(address to, bool approved) public whenNotPaused {\n        require(to != msg.sender, \"Caller cannot set approval for himself\");\n        _operatorApprovals[msg.sender][to] = approved;\n        emit ApprovalForAll(msg.sender, to, approved);\n    }\n\n    /**\n     * @dev Tells whether an operator is approved by a given owner\n     * @param owner owner address which you want to query the approval of\n     * @param operator operator address which you want to query the approval of\n     * @return bool whether the given operator is approved by the given owner\n     */\n    function isApprovedForAll(address owner, address operator)\n        public\n        view\n        returns (bool)\n    {\n        return _operatorApprovals[owner][operator];\n    }\n\n    function transferFrom(\n        address from,\n        address to,\n        uint256 tokenId\n    ) public whenNotPaused {\n        require(\n            _isApprovedOrOwner(msg.sender, tokenId),\n            \"Account not approved or owner\"\n        );\n\n        _transferFrom(from, to, tokenId);\n    }\n\n    function safeTransferFrom(\n        address from,\n        address to,\n        uint256 tokenId\n    ) public whenNotPaused {\n        safeTransferFrom(from, to, tokenId, \"\");\n    }\n\n    function safeTransferFrom(\n        address from,\n        address to,\n        uint256 tokenId,\n        bytes memory _data\n    ) public whenNotPaused {\n        transferFrom(from, to, tokenId);\n        require(\n            _checkOnERC721Received(from, to, tokenId, _data),\n            \"Cannot transfer ERC721 to this account\"\n        );\n    }\n\n    /**\n     * @dev Returns whether the specified token exists\n     * @param tokenId uint256 ID of the token to query the existence of\n     * @return bool whether the token exists\n     */\n    function _exists(uint256 tokenId) internal view returns (bool) {\n        address owner = _tokenOwner[tokenId];\n        return owner != address(0);\n    }\n\n    /**\n     * @dev Returns whether the given spender can transfer a given token ID\n     * @param spender address of the spender to query\n     * @param tokenId uint256 ID of the token to be transferred\n     * @return bool whether the msg.sender is approved for the given token ID,\n     * is an operator of the owner, or is the owner of the token\n     */\n    function _isApprovedOrOwner(address spender, uint256 tokenId)\n        internal\n        view\n        returns (bool)\n    {\n        address owner = ownerOf(tokenId);\n        return (spender == owner ||\n            getApproved(tokenId) == spender ||\n            isApprovedForAll(owner, spender));\n    }\n\n    // @dev Internal function to mint a new token\n    function _mint(address to, uint256 tokenId) internal virtual {\n        require(!_exists(tokenId), \"Token already exist\");\n        require(to != address(0), \"To address is invalid\");\n        _tokenOwner[tokenId] = to;\n        _ownedTokensCount[to].increment();\n        emit Transfer(msg.sender, to, tokenId);\n    }\n\n    // @dev Internal function to transfer ownership of a given token ID to another address.\n    function _transferFrom(\n        address from,\n        address to,\n        uint256 tokenId\n    ) internal virtual {\n        require(\n            _tokenOwner[tokenId] == from,\n            \"From address is not the owner of the token\"\n        );\n        require(to != address(0), \"To address is invalid\");\n        _clearApproval(tokenId);\n        _ownedTokensCount[from].decrement();\n        _ownedTokensCount[to].increment();\n        _tokenOwner[tokenId] = to;\n        emit Transfer(from, to, tokenId);\n    }\n\n    /**\n     * @dev Internal function to invoke `onERC721Received` on a target address\n     * The call is not executed if the target address is not a contract\n     * @param from address representing the previous owner of the given token ID\n     * @param to target address that will receive the tokens\n     * @param tokenId uint256 ID of the token to be transferred\n     * @param _data bytes optional data to send along with the call\n     * @return bool whether the call correctly returned the expected magic value\n     */\n    function _checkOnERC721Received(\n        address from,\n        address to,\n        uint256 tokenId,\n        bytes memory _data\n    ) internal returns (bool) {\n        if (!to.isContract()) {\n            return true;\n        }\n\n        bytes4 retval =\n            IERC721Receiver(to).onERC721Received(\n                msg.sender,\n                from,\n                tokenId,\n                _data\n            );\n        return (retval == _ERC721_RECEIVED);\n    }\n\n    // @dev Private function to clear current approval of a given token ID\n    function _clearApproval(uint256 tokenId) private {\n        if (_tokenApprovals[tokenId] != address(0)) {\n            _tokenApprovals[tokenId] = address(0);\n        }\n    }\n}\n\ncontract ERC721Enumerable is ERC165, ERC721 {\n    // Mapping from owner to list of owned token IDs\n    mapping(address => uint256[]) private _ownedTokens;\n\n    // Mapping from token ID to index of the owner tokens list\n    mapping(uint256 => uint256) private _ownedTokensIndex;\n\n    // Array with all token ids, used for enumeration\n    uint256[] private _allTokens;\n\n    // Mapping from token id to position in the allTokens array\n    mapping(uint256 => uint256) private _allTokensIndex;\n\n    bytes4 private constant _INTERFACE_ID_ERC721_ENUMERABLE = 0x780e9d63;\n\n    using SafeMath for uint256;\n\n    /*\n     * 0x780e9d63 ===\n     *     bytes4(keccak256('totalSupply()')) ^\n     *     bytes4(keccak256('tokenOfOwnerByIndex(address,uint256)')) ^\n     *     bytes4(keccak256('tokenByIndex(uint256)'))\n     */\n\n    /**\n     * @dev Constructor function\n     */\n    constructor() {\n        // register the supported interface to conform to ERC721Enumerable via ERC165\n        _registerInterface(_INTERFACE_ID_ERC721_ENUMERABLE);\n    }\n\n    /**\n     * @dev Gets the token ID at a given index of the tokens list of the requested owner\n     * @param owner address owning the tokens list to be accessed\n     * @param index uint256 representing the index to be accessed of the requested tokens list\n     * @return uint256 token ID at the given index of the tokens list owned by the requested address\n     */\n    function tokenOfOwnerByIndex(address owner, uint256 index)\n        public\n        view\n        returns (uint256)\n    {\n        require(\n            index < balanceOf(owner),\n            \"Index must be lower than token count\"\n        );\n        return _ownedTokens[owner][index];\n    }\n\n    /**\n     * @dev Gets the total amount of tokens stored by the contract\n     * @return uint256 representing the total amount of tokens\n     */\n    function totalSupply() public view returns (uint256) {\n        return _allTokens.length;\n    }\n\n    /**\n     * @dev Gets the token ID at a given index of all the tokens in this contract\n     * Reverts if the index is greater or equal to the total number of tokens\n     * @param index uint256 representing the index to be accessed of the tokens list\n     * @return uint256 token ID at the given index of the tokens list\n     */\n    function tokenByIndex(uint256 index) public view returns (uint256) {\n        require(\n            index < totalSupply(),\n            \"Index must be lower than the total supply\"\n        );\n        return _allTokens[index];\n    }\n\n    /**\n     * @dev Internal function to transfer ownership of a given token ID to another address.\n     * As opposed to transferFrom, this imposes no restrictions on msg.sender.\n     * @param from current owner of the token\n     * @param to address to receive the ownership of the given token ID\n     * @param tokenId uint256 ID of the token to be transferred\n     */\n    function _transferFrom(\n        address from,\n        address to,\n        uint256 tokenId\n    ) internal override {\n        super._transferFrom(from, to, tokenId);\n\n        _removeTokenFromOwnerEnumeration(from, tokenId);\n\n        _addTokenToOwnerEnumeration(to, tokenId);\n    }\n\n    /**\n     * @dev Internal function to mint a new token\n     * Reverts if the given token ID already exists\n     * @param to address the beneficiary that will own the minted token\n     * @param tokenId uint256 ID of the token to be minted\n     */\n    function _mint(address to, uint256 tokenId) internal override {\n        super._mint(to, tokenId);\n\n        _addTokenToOwnerEnumeration(to, tokenId);\n\n        _addTokenToAllTokensEnumeration(tokenId);\n    }\n\n    /**\n     * @dev Gets the list of token IDs of the requested owner\n     * @param owner address owning the tokens\n     * @return uint256[] List of token IDs owned by the requested address\n     */\n    function _tokensOfOwner(address owner)\n        internal\n        view\n        returns (uint256[] storage)\n    {\n        return _ownedTokens[owner];\n    }\n\n    /**\n     * @dev Private function to add a token to this extension's ownership-tracking data structures.\n     * @param to address representing the new owner of the given token ID\n     * @param tokenId uint256 ID of the token to be added to the tokens list of the given address\n     */\n    function _addTokenToOwnerEnumeration(address to, uint256 tokenId) private {\n        _ownedTokensIndex[tokenId] = _ownedTokens[to].length;\n        _ownedTokens[to].push(tokenId);\n    }\n\n    /**\n     * @dev Private function to add a token to this extension's token tracking data structures.\n     * @param tokenId uint256 ID of the token to be added to the tokens list\n     */\n    function _addTokenToAllTokensEnumeration(uint256 tokenId) private {\n        _allTokensIndex[tokenId] = _allTokens.length;\n        _allTokens.push(tokenId);\n    }\n\n    /**\n     * @dev Private function to remove a token from this extension's ownership-tracking data structures. Note that\n     * while the token is not assigned a new owner, the _ownedTokensIndex mapping is _not_ updated: this allows for\n     * gas optimizations e.g. when performing a transfer operation (avoiding double writes).\n     * This has O(1) time complexity, but alters the order of the _ownedTokens array.\n     * @param from address representing the previous owner of the given token ID\n     * @param tokenId uint256 ID of the token to be removed from the tokens list of the given address\n     */\n    function _removeTokenFromOwnerEnumeration(address from, uint256 tokenId)\n        private\n    {\n        // To prevent a gap in from's tokens array, we store the last token in the index of the token to delete, and\n        // then delete the last slot (swap and pop).\n\n        uint256 lastTokenIndex = _ownedTokens[from].length.sub(1);\n        uint256 tokenIndex = _ownedTokensIndex[tokenId];\n\n        // When the token to delete is the last token, the swap operation is unnecessary\n        if (tokenIndex != lastTokenIndex) {\n            uint256 lastTokenId = _ownedTokens[from][lastTokenIndex];\n\n            _ownedTokens[from][tokenIndex] = lastTokenId; // Move the last token to the slot of the to-delete token\n            _ownedTokensIndex[lastTokenId] = tokenIndex; // Update the moved token's index\n        }\n\n        // This also deletes the contents at the last position of the array\n        _ownedTokens[from].pop();\n\n        // Note that _ownedTokensIndex[tokenId] hasn't been cleared: it still points to the old slot (now occupied by\n        // lastTokenId, or just over the end of the array if the token was the last one).\n    }\n\n    /**\n     * @dev Private function to remove a token from this extension's token tracking data structures.\n     * This has O(1) time complexity, but alters the order of the _allTokens array.\n     * @param tokenId uint256 ID of the token to be removed from the tokens list\n     */\n    function _removeTokenFromAllTokensEnumeration(uint256 tokenId) private {\n        // To prevent a gap in the tokens array, we store the last token in the index of the token to delete, and\n        // then delete the last slot (swap and pop).\n\n        uint256 lastTokenIndex = _allTokens.length.sub(1);\n        uint256 tokenIndex = _allTokensIndex[tokenId];\n\n        // When the token to delete is the last token, the swap operation is unnecessary. However, since this occurs so\n        // rarely (when the last minted token is burnt) that we still do the swap here to avoid the gas cost of adding\n        // an 'if' statement (like in _removeTokenFromOwnerEnumeration)\n        uint256 lastTokenId = _allTokens[lastTokenIndex];\n\n        _allTokens[tokenIndex] = lastTokenId; // Move the last token to the slot of the to-delete token\n        _allTokensIndex[lastTokenId] = tokenIndex; // Update the moved token's index\n\n        // This also deletes the contents at the last position of the array\n        _allTokens.pop();\n        _allTokensIndex[tokenId] = 0;\n    }\n}\n\ncontract ERC721Metadata is ERC721Enumerable, usingProvable {\n    string private _name;\n    string private _symbol;\n    string private _baseTokenURI;\n    mapping(uint256 => string) private _tokenURIs;\n\n    bytes4 private constant _INTERFACE_ID_ERC721_METADATA = 0x5b5e139f;\n\n    /*\n     * 0x5b5e139f ===\n     *     bytes4(keccak256('name()')) ^\n     *     bytes4(keccak256('symbol()')) ^\n     *     bytes4(keccak256('tokenURI(uint256)'))\n     */\n\n    constructor(\n        string memory name_,\n        string memory symbol_,\n        string memory baseTokenURI_\n    ) {\n        require(\n            bytes(name_).length > 0 &&\n                bytes(symbol_).length > 0 &&\n                bytes(baseTokenURI_).length > 0,\n            \"Contract init is not correct\"\n        );\n        _name = name_;\n        _symbol = symbol_;\n        _baseTokenURI = baseTokenURI_;\n\n        _registerInterface(_INTERFACE_ID_ERC721_METADATA);\n    }\n\n    function name() public view returns (string memory) {\n        return _name;\n    }\n\n    function symbol() public view returns (string memory) {\n        return _symbol;\n    }\n\n    function getBaseTokenURI() public view returns (string memory) {\n        return _baseTokenURI;\n    }\n\n    function tokenURI(uint256 tokenId) public view returns (string memory) {\n        require(_exists(tokenId), \"TokenID does not exist\");\n        return _tokenURIs[tokenId];\n    }\n\n    function setTokenURI(uint256 tokenId) internal {\n        // require the token exists before setting\n        require(_exists(tokenId), \"Token does not exist\");\n        _tokenURIs[tokenId] = strConcat(_baseTokenURI, uint2str(tokenId));\n    }\n}\n\ncontract MiyaERC721Token is ERC721Metadata {\n    constructor()\n        ERC721Metadata(\n            \"MIYA721\",\n            \"MIYA\",\n            \"https://s3-us-west-2.amazonaws.com/udacity-blockchain/capstone/\"\n        )\n    {}\n\n    function mint(address to, uint256 tokenId)\n        public\n        virtual\n        onlyOwner\n        whenNotPaused\n        returns (bool)\n    {\n        super._mint(to, tokenId);\n        super.setTokenURI(tokenId);\n        return true;\n    }\n}\n",
  "sourcePath": "/Users/amine/Documents/programmes/Blockchain/Udacity/Blockchain-Capstone/eth-contracts/contracts/ERC721Mintable.sol",
  "compiler": {
    "name": "solc",
    "version": "0.8.4+commit.c7e474f2.Emscripten.clang"
  },
  "schemaVersion": "3.4.1",
  "updatedAt": "2021-06-19T20:31:26.071Z",
  "networkType": "ethereum",
  "devdoc": {
    "kind": "dev",
    "methods": {
      "__callback(bytes32,string)": {
        "details": "The following `__callback` functions are just placeholders ideally      meant to be defined in child contract when proofs are used.      The function bodies simply silence compiler warnings."
      },
      "isApprovedForAll(address,address)": {
        "details": "Tells whether an operator is approved by a given owner",
        "params": {
          "operator": "operator address which you want to query the approval of",
          "owner": "owner address which you want to query the approval of"
        },
        "returns": {
          "_0": "bool whether the given operator is approved by the given owner"
        }
      },
      "setApprovalForAll(address,bool)": {
        "details": "Sets or unsets the approval of a given operator An operator is allowed to transfer all tokens of the sender on their behalf",
        "params": {
          "approved": "representing the status of the approval to be set",
          "to": "operator address to set the approval"
        }
      },
      "supportsInterface(bytes4)": {
        "details": "implement supportsInterface(bytes4) using a lookup table"
      },
      "tokenByIndex(uint256)": {
        "details": "Gets the token ID at a given index of all the tokens in this contract Reverts if the index is greater or equal to the total number of tokens",
        "params": {
          "index": "uint256 representing the index to be accessed of the tokens list"
        },
        "returns": {
          "_0": "uint256 token ID at the given index of the tokens list"
        }
      },
      "tokenOfOwnerByIndex(address,uint256)": {
        "details": "Gets the token ID at a given index of the tokens list of the requested owner",
        "params": {
          "index": "uint256 representing the index to be accessed of the requested tokens list",
          "owner": "address owning the tokens list to be accessed"
        },
        "returns": {
          "_0": "uint256 token ID at the given index of the tokens list owned by the requested address"
        }
      },
      "totalSupply()": {
        "details": "Gets the total amount of tokens stored by the contract",
        "returns": {
          "_0": "uint256 representing the total amount of tokens"
        }
      }
    },
    "version": 1
  },
  "userdoc": {
    "kind": "user",
    "methods": {},
    "version": 1
  }
}