{
  "contractName": "SolnSquareVerifier",
  "abi": [
    {
      "inputs": [
        {
          "internalType": "address",
          "name": "_verifier",
          "type": "address"
        }
      ],
      "stateMutability": "nonpayable",
      "type": "constructor"
    },
    {
      "anonymous": false,
      "inputs": [
        {
          "indexed": true,
          "internalType": "address",
          "name": "_owner",
          "type": "address"
        },
        {
          "indexed": true,
          "internalType": "address",
          "name": "_approved",
          "type": "address"
        },
        {
          "indexed": true,
          "internalType": "uint256",
          "name": "_tokenId",
          "type": "uint256"
        }
      ],
      "name": "Approval",
      "type": "event"
    },
    {
      "anonymous": false,
      "inputs": [
        {
          "indexed": true,
          "internalType": "address",
          "name": "_owner",
          "type": "address"
        },
        {
          "indexed": true,
          "internalType": "address",
          "name": "_operator",
          "type": "address"
        },
        {
          "indexed": false,
          "internalType": "bool",
          "name": "_approved",
          "type": "bool"
        }
      ],
      "name": "ApprovalForAll",
      "type": "event"
    },
    {
      "anonymous": false,
      "inputs": [
        {
          "indexed": true,
          "internalType": "address",
          "name": "_previousOwner",
          "type": "address"
        },
        {
          "indexed": true,
          "internalType": "address",
          "name": "_newOnwer",
          "type": "address"
        }
      ],
      "name": "NEW_OWNER",
      "type": "event"
    },
    {
      "anonymous": false,
      "inputs": [
        {
          "indexed": true,
          "internalType": "uint256",
          "name": "_tokenId",
          "type": "uint256"
        },
        {
          "indexed": true,
          "internalType": "bytes32",
          "name": "_index",
          "type": "bytes32"
        },
        {
          "indexed": true,
          "internalType": "address",
          "name": "_prover",
          "type": "address"
        }
      ],
      "name": "NEW_SOLUTION",
      "type": "event"
    },
    {
      "anonymous": false,
      "inputs": [
        {
          "indexed": true,
          "internalType": "address",
          "name": "_origin",
          "type": "address"
        }
      ],
      "name": "PAUSED",
      "type": "event"
    },
    {
      "anonymous": false,
      "inputs": [
        {
          "indexed": true,
          "internalType": "address",
          "name": "_from",
          "type": "address"
        },
        {
          "indexed": true,
          "internalType": "address",
          "name": "_to",
          "type": "address"
        },
        {
          "indexed": true,
          "internalType": "uint256",
          "name": "_tokenId",
          "type": "uint256"
        }
      ],
      "name": "Transfer",
      "type": "event"
    },
    {
      "anonymous": false,
      "inputs": [
        {
          "indexed": true,
          "internalType": "address",
          "name": "_origin",
          "type": "address"
        }
      ],
      "name": "UNPAUSED",
      "type": "event"
    },
    {
      "inputs": [
        {
          "internalType": "bytes32",
          "name": "_myid",
          "type": "bytes32"
        },
        {
          "internalType": "string",
          "name": "_result",
          "type": "string"
        }
      ],
      "name": "__callback",
      "outputs": [],
      "stateMutability": "nonpayable",
      "type": "function"
    },
    {
      "inputs": [
        {
          "internalType": "bytes32",
          "name": "_myid",
          "type": "bytes32"
        },
        {
          "internalType": "string",
          "name": "_result",
          "type": "string"
        },
        {
          "internalType": "bytes",
          "name": "_proof",
          "type": "bytes"
        }
      ],
      "name": "__callback",
      "outputs": [],
      "stateMutability": "nonpayable",
      "type": "function"
    },
    {
      "inputs": [
        {
          "internalType": "address",
          "name": "to",
          "type": "address"
        },
        {
          "internalType": "uint256",
          "name": "tokenId",
          "type": "uint256"
        }
      ],
      "name": "approve",
      "outputs": [],
      "stateMutability": "nonpayable",
      "type": "function"
    },
    {
      "inputs": [
        {
          "internalType": "address",
          "name": "owner",
          "type": "address"
        }
      ],
      "name": "balanceOf",
      "outputs": [
        {
          "internalType": "uint256",
          "name": "",
          "type": "uint256"
        }
      ],
      "stateMutability": "view",
      "type": "function",
      "constant": true
    },
    {
      "inputs": [
        {
          "internalType": "uint256",
          "name": "tokenId",
          "type": "uint256"
        }
      ],
      "name": "getApproved",
      "outputs": [
        {
          "internalType": "address",
          "name": "",
          "type": "address"
        }
      ],
      "stateMutability": "view",
      "type": "function",
      "constant": true
    },
    {
      "inputs": [],
      "name": "getBaseTokenURI",
      "outputs": [
        {
          "internalType": "string",
          "name": "",
          "type": "string"
        }
      ],
      "stateMutability": "view",
      "type": "function",
      "constant": true
    },
    {
      "inputs": [],
      "name": "getOwner",
      "outputs": [
        {
          "internalType": "address",
          "name": "",
          "type": "address"
        }
      ],
      "stateMutability": "view",
      "type": "function",
      "constant": true
    },
    {
      "inputs": [
        {
          "internalType": "address",
          "name": "owner",
          "type": "address"
        },
        {
          "internalType": "address",
          "name": "operator",
          "type": "address"
        }
      ],
      "name": "isApprovedForAll",
      "outputs": [
        {
          "internalType": "bool",
          "name": "",
          "type": "bool"
        }
      ],
      "stateMutability": "view",
      "type": "function",
      "constant": true
    },
    {
      "inputs": [],
      "name": "name",
      "outputs": [
        {
          "internalType": "string",
          "name": "",
          "type": "string"
        }
      ],
      "stateMutability": "view",
      "type": "function",
      "constant": true
    },
    {
      "inputs": [
        {
          "internalType": "uint256",
          "name": "tokenId",
          "type": "uint256"
        }
      ],
      "name": "ownerOf",
      "outputs": [
        {
          "internalType": "address",
          "name": "",
          "type": "address"
        }
      ],
      "stateMutability": "view",
      "type": "function",
      "constant": true
    },
    {
      "inputs": [
        {
          "internalType": "address",
          "name": "from",
          "type": "address"
        },
        {
          "internalType": "address",
          "name": "to",
          "type": "address"
        },
        {
          "internalType": "uint256",
          "name": "tokenId",
          "type": "uint256"
        }
      ],
      "name": "safeTransferFrom",
      "outputs": [],
      "stateMutability": "nonpayable",
      "type": "function"
    },
    {
      "inputs": [
        {
          "internalType": "address",
          "name": "from",
          "type": "address"
        },
        {
          "internalType": "address",
          "name": "to",
          "type": "address"
        },
        {
          "internalType": "uint256",
          "name": "tokenId",
          "type": "uint256"
        },
        {
          "internalType": "bytes",
          "name": "_data",
          "type": "bytes"
        }
      ],
      "name": "safeTransferFrom",
      "outputs": [],
      "stateMutability": "nonpayable",
      "type": "function"
    },
    {
      "inputs": [
        {
          "internalType": "address",
          "name": "to",
          "type": "address"
        },
        {
          "internalType": "bool",
          "name": "approved",
          "type": "bool"
        }
      ],
      "name": "setApprovalForAll",
      "outputs": [],
      "stateMutability": "nonpayable",
      "type": "function"
    },
    {
      "inputs": [
        {
          "internalType": "bool",
          "name": "isPaused",
          "type": "bool"
        }
      ],
      "name": "setPaused",
      "outputs": [],
      "stateMutability": "nonpayable",
      "type": "function"
    },
    {
      "inputs": [
        {
          "internalType": "bytes4",
          "name": "interfaceId",
          "type": "bytes4"
        }
      ],
      "name": "supportsInterface",
      "outputs": [
        {
          "internalType": "bool",
          "name": "",
          "type": "bool"
        }
      ],
      "stateMutability": "view",
      "type": "function",
      "constant": true
    },
    {
      "inputs": [],
      "name": "symbol",
      "outputs": [
        {
          "internalType": "string",
          "name": "",
          "type": "string"
        }
      ],
      "stateMutability": "view",
      "type": "function",
      "constant": true
    },
    {
      "inputs": [
        {
          "internalType": "uint256",
          "name": "index",
          "type": "uint256"
        }
      ],
      "name": "tokenByIndex",
      "outputs": [
        {
          "internalType": "uint256",
          "name": "",
          "type": "uint256"
        }
      ],
      "stateMutability": "view",
      "type": "function",
      "constant": true
    },
    {
      "inputs": [
        {
          "internalType": "address",
          "name": "owner",
          "type": "address"
        },
        {
          "internalType": "uint256",
          "name": "index",
          "type": "uint256"
        }
      ],
      "name": "tokenOfOwnerByIndex",
      "outputs": [
        {
          "internalType": "uint256",
          "name": "",
          "type": "uint256"
        }
      ],
      "stateMutability": "view",
      "type": "function",
      "constant": true
    },
    {
      "inputs": [
        {
          "internalType": "uint256",
          "name": "tokenId",
          "type": "uint256"
        }
      ],
      "name": "tokenURI",
      "outputs": [
        {
          "internalType": "string",
          "name": "",
          "type": "string"
        }
      ],
      "stateMutability": "view",
      "type": "function",
      "constant": true
    },
    {
      "inputs": [],
      "name": "totalSupply",
      "outputs": [
        {
          "internalType": "uint256",
          "name": "",
          "type": "uint256"
        }
      ],
      "stateMutability": "view",
      "type": "function",
      "constant": true
    },
    {
      "inputs": [
        {
          "internalType": "address",
          "name": "from",
          "type": "address"
        },
        {
          "internalType": "address",
          "name": "to",
          "type": "address"
        },
        {
          "internalType": "uint256",
          "name": "tokenId",
          "type": "uint256"
        }
      ],
      "name": "transferFrom",
      "outputs": [],
      "stateMutability": "nonpayable",
      "type": "function"
    },
    {
      "inputs": [
        {
          "internalType": "address",
          "name": "newOwner",
          "type": "address"
        }
      ],
      "name": "transferOwnership",
      "outputs": [],
      "stateMutability": "nonpayable",
      "type": "function"
    },
    {
      "inputs": [
        {
          "internalType": "uint256[2]",
          "name": "a",
          "type": "uint256[2]"
        },
        {
          "internalType": "uint256[2][2]",
          "name": "b",
          "type": "uint256[2][2]"
        },
        {
          "internalType": "uint256[2]",
          "name": "c",
          "type": "uint256[2]"
        },
        {
          "internalType": "uint256",
          "name": "tokenId",
          "type": "uint256"
        }
      ],
      "name": "addSolution",
      "outputs": [],
      "stateMutability": "nonpayable",
      "type": "function"
    },
    {
      "inputs": [
        {
          "internalType": "address",
          "name": "to",
          "type": "address"
        },
        {
          "internalType": "uint256",
          "name": "tokenId",
          "type": "uint256"
        }
      ],
      "name": "mint",
      "outputs": [
        {
          "internalType": "bool",
          "name": "",
          "type": "bool"
        }
      ],
      "stateMutability": "nonpayable",
      "type": "function"
    }
  ],
  "bytecode": "0x60806040523480156200001157600080fd5b506040516200513e3803806200513e83398181016040528101906200003791906200048a565b6040518060400160405280600781526020017f4d495941373231000000000000000000000000000000000000000000000000008152506040518060400160405280600481526020017f4d495941000000000000000000000000000000000000000000000000000000008152506040518060600160405280603f8152602001620050ff603f9139336000806101000a81548173ffffffffffffffffffffffffffffffffffffffff021916908373ffffffffffffffffffffffffffffffffffffffff16021790555060008054906101000a900473ffffffffffffffffffffffffffffffffffffffff1673ffffffffffffffffffffffffffffffffffffffff16600073ffffffffffffffffffffffffffffffffffffffff167f626cdf6166418a6397bb90e5da5168ced0150f0bf4bc7c9389bf65369f18028060405160405180910390a360008060146101000a81548160ff021916908315150217905550620001aa6301ffc9a760e01b620002eb60201b60201c565b620001c26380ac58cd60e01b620002eb60201b60201c565b620001da63780e9d6360e01b620002eb60201b60201c565b60008351118015620001ed575060008251115b8015620001fb575060008151115b6200023d576040517f08c379a0000000000000000000000000000000000000000000000000000000008152600401620002349062000504565b60405180910390fd5b82600f908051906020019062000255929190620003c3565b5081601090805190602001906200026e929190620003c3565b50806011908051906020019062000287929190620003c3565b50620002a0635b5e139f60e01b620002eb60201b60201c565b50505080601560006101000a81548173ffffffffffffffffffffffffffffffffffffffff021916908373ffffffffffffffffffffffffffffffffffffffff160217905550506200065e565b63ffffffff60e01b817bffffffffffffffffffffffffffffffffffffffffffffffffffffffff1916141562000357576040517f08c379a00000000000000000000000000000000000000000000000000000000081526004016200034e9062000526565b60405180910390fd5b6001806000837bffffffffffffffffffffffffffffffffffffffffffffffffffffffff19167bffffffffffffffffffffffffffffffffffffffffffffffffffffffff1916815260200190815260200160002060006101000a81548160ff02191690831515021790555050565b828054620003d1906200058d565b90600052602060002090601f016020900481019282620003f5576000855562000441565b82601f106200041057805160ff191683800117855562000441565b8280016001018555821562000441579182015b828111156200044057825182559160200191906001019062000423565b5b50905062000450919062000454565b5090565b5b808211156200046f57600081600090555060010162000455565b5090565b600081519050620004848162000644565b92915050565b6000602082840312156200049d57600080fd5b6000620004ad8482850162000473565b91505092915050565b6000620004c5601c8362000548565b9150620004d282620005f2565b602082019050919050565b6000620004ec60178362000548565b9150620004f9826200061b565b602082019050919050565b600060208201905081810360008301526200051f81620004b6565b9050919050565b600060208201905081810360008301526200054181620004dd565b9050919050565b600082825260208201905092915050565b600062000566826200056d565b9050919050565b600073ffffffffffffffffffffffffffffffffffffffff82169050919050565b60006002820490506001821680620005a657607f821691505b60208210811415620005bd57620005bc620005c3565b5b50919050565b7f4e487b7100000000000000000000000000000000000000000000000000000000600052602260045260246000fd5b7f436f6e747261637420696e6974206973206e6f7420636f727265637400000000600082015250565b7f496e746572666163654944206e6f7420636f7272656374000000000000000000600082015250565b6200064f8162000559565b81146200065b57600080fd5b50565b614a91806200066e6000396000f3fe608060405234801561001057600080fd5b50600436106101585760003560e01c806342842e0e116100c3578063a22cb4651161007c578063a22cb465146103e9578063b88d4fde14610405578063bdc32be014610421578063c87b56dd1461043f578063e985e9c51461046f578063f2fde38b1461049f57610158565b806342842e0e146103015780634f6ccce71461031d5780636352211e1461034d57806370a082311461037d578063893d20e8146103ad57806395d89b41146103cb57610158565b806323b872dd1161011557806323b872dd14610231578063276492cc1461024d57806327dc297e146102695780632f745c591461028557806338bbfa50146102b557806340c10f19146102d157610158565b806301ffc9a71461015d57806306fdde031461018d578063081812fc146101ab578063095ea7b3146101db57806316c38b3c146101f757806318160ddd14610213575b600080fd5b610177600480360381019061017291906134f4565b6104bb565b6040516101849190613c94565b60405180910390f35b610195610523565b6040516101a29190613caf565b60405180910390f35b6101c560048036038101906101c09190613546565b6105b5565b6040516101d29190613be6565b60405180910390f35b6101f560048036038101906101f0919061332e565b6105f2565b005b610211600480360381019061020c91906133cf565b6107b9565b005b61021b610905565b6040516102289190613f91565b60405180910390f35b61024b60048036038101906102469190613228565b610912565b005b6102676004803603810190610262919061336a565b6109bb565b005b610283600480360381019061027e9190613421565b610e76565b005b61029f600480360381019061029a919061332e565b610ef8565b6040516102ac9190613f91565b60405180910390f35b6102cf60048036038101906102ca9190613475565b610fce565b005b6102eb60048036038101906102e6919061332e565b610ff1565b6040516102f89190613c94565b60405180910390f35b61031b60048036038101906103169190613228565b61110c565b005b61033760048036038101906103329190613546565b61117c565b6040516103449190613f91565b60405180910390f35b61036760048036038101906103629190613546565b611213565b6040516103749190613be6565b60405180910390f35b610397600480360381019061039291906131c3565b611250565b6040516103a49190613f91565b60405180910390f35b6103b56112a0565b6040516103c29190613be6565b60405180910390f35b6103d36112c9565b6040516103e09190613caf565b60405180910390f35b61040360048036038101906103fe91906132f2565b61135b565b005b61041f600480360381019061041a9190613277565b611517565b005b6104296115c3565b6040516104369190613caf565b60405180910390f35b61045960048036038101906104549190613546565b611655565b6040516104669190613caf565b60405180910390f35b610489600480360381019061048491906131ec565b611742565b6040516104969190613c94565b60405180910390f35b6104b960048036038101906104b491906131c3565b6117d6565b005b600060016000837bffffffffffffffffffffffffffffffffffffffffffffffffffffffff19167bffffffffffffffffffffffffffffffffffffffffffffffffffffffff1916815260200190815260200160002060009054906101000a900460ff169050919050565b6060600f80546105329061433c565b80601f016020809104026020016040519081016040528092919081815260200182805461055e9061433c565b80156105ab5780601f10610580576101008083540402835291602001916105ab565b820191906000526020600020905b81548152906001019060200180831161058e57829003601f168201915b5050505050905090565b60006003600083815260200190815260200160002060009054906101000a900473ffffffffffffffffffffffffffffffffffffffff169050919050565b600060149054906101000a900460ff1615610642576040517f08c379a000000000000000000000000000000000000000000000000000000000815260040161063990613d71565b60405180910390fd5b600061064d82611213565b90508073ffffffffffffffffffffffffffffffffffffffff168373ffffffffffffffffffffffffffffffffffffffff1614156106be576040517f08c379a00000000000000000000000000000000000000000000000000000000081526004016106b590613d51565b60405180910390fd5b6106c833836119ff565b610707576040517f08c379a00000000000000000000000000000000000000000000000000000000081526004016106fe90613e91565b60405180910390fd5b826003600084815260200190815260200160002060006101000a81548173ffffffffffffffffffffffffffffffffffffffff021916908373ffffffffffffffffffffffffffffffffffffffff160217905550818373ffffffffffffffffffffffffffffffffffffffff168273ffffffffffffffffffffffffffffffffffffffff167f8c5be1e5ebec7d5bd14f71427d1e84f3dd0314c0f7b2291e5b200ac8c7c3b92560405160405180910390a4505050565b60008054906101000a900473ffffffffffffffffffffffffffffffffffffffff1673ffffffffffffffffffffffffffffffffffffffff163373ffffffffffffffffffffffffffffffffffffffff1614610847576040517f08c379a000000000000000000000000000000000000000000000000000000000815260040161083e90613ed1565b60405180910390fd5b80600060146101000a81548160ff021916908315150217905550600060149054906101000a900460ff16156108be573373ffffffffffffffffffffffffffffffffffffffff167f4b747fea41327811583b4e6ed38857cbc8340504c45e4a5bae62602deaa2d7ca60405160405180910390a2610902565b3373ffffffffffffffffffffffffffffffffffffffff167f3ffe570da3d55d4cf7ef7fa0466eb22a04ea114015c4514149c850a1663edf4560405160405180910390a25b50565b6000600880549050905090565b600060149054906101000a900460ff1615610962576040517f08c379a000000000000000000000000000000000000000000000000000000000815260040161095990613d71565b60405180910390fd5b61096c33826119ff565b6109ab576040517f08c379a00000000000000000000000000000000000000000000000000000000081526004016109a290613e51565b60405180910390fd5b6109b6838383611a94565b505050565b600060149054906101000a900460ff1615610a0b576040517f08c379a0000000000000000000000000000000000000000000000000000000008152600401610a0290613d71565b60405180910390fd5b610a13612e44565b610a268283611ab890919063ffffffff16565b81600060028110610a60577f4e487b7100000000000000000000000000000000000000000000000000000000600052603260045260246000fd5b602002018181525050600181600160028110610aa5577f4e487b7100000000000000000000000000000000000000000000000000000000600052603260045260246000fd5b602002018181525050600085858584604051602001610ac79493929190613b98565b6040516020818303038152906040528051906020012090506013600082815260200190815260200160002060020160149054906101000a900460ff1615610b43576040517f08c379a0000000000000000000000000000000000000000000000000000000008152600401610b3a90613cd1565b60405180910390fd5b6014600084815260200190815260200160002060020160149054906101000a900460ff1615610ba7576040517f08c379a0000000000000000000000000000000000000000000000000000000008152600401610b9e90613d11565b60405180910390fd5b601560009054906101000a900473ffffffffffffffffffffffffffffffffffffffff1673ffffffffffffffffffffffffffffffffffffffff1663621e9ec0878787866040518563ffffffff1660e01b8152600401610c089493929190613c4d565b60206040518083038186803b158015610c2057600080fd5b505afa158015610c34573d6000803e3d6000fd5b505050506040513d601f19601f82011682018060405250810190610c5891906133f8565b610c97576040517f08c379a0000000000000000000000000000000000000000000000000000000008152600401610c8e90613dd1565b60405180910390fd5b610c9f612e66565b838160000181815250508181602001818152505033816040019073ffffffffffffffffffffffffffffffffffffffff16908173ffffffffffffffffffffffffffffffffffffffff168152505060018160600190151590811515815250508060136000848152602001908152602001600020600082015181600001556020820151816001015560408201518160020160006101000a81548173ffffffffffffffffffffffffffffffffffffffff021916908373ffffffffffffffffffffffffffffffffffffffff16021790555060608201518160020160146101000a81548160ff0219169083151502179055509050508060146000868152602001908152602001600020600082015181600001556020820151816001015560408201518160020160006101000a81548173ffffffffffffffffffffffffffffffffffffffff021916908373ffffffffffffffffffffffffffffffffffffffff16021790555060608201518160020160146101000a81548160ff021916908315150217905550905050806040015173ffffffffffffffffffffffffffffffffffffffff168160200151857f0886fc7e058f3ce188c659046e1354eb9da3c8a845727ec1e0e3e18e9318a4ac60405160405180910390a450505050505050565b610ef48282600067ffffffffffffffff811115610ebc577f4e487b7100000000000000000000000000000000000000000000000000000000600052604160045260246000fd5b6040519080825280601f01601f191660200182016040528015610eee5781602001600182028036833780820191505090505b50610fce565b5050565b6000610f0383611250565b8210610f44576040517f08c379a0000000000000000000000000000000000000000000000000000000008152600401610f3b90613df1565b60405180910390fd5b600660008473ffffffffffffffffffffffffffffffffffffffff1673ffffffffffffffffffffffffffffffffffffffff1681526020019081526020016000208281548110610fbb577f4e487b7100000000000000000000000000000000000000000000000000000000600052603260045260246000fd5b9060005260206000200154905092915050565b6000801b600d60008060001b815260200190815260200160002081905550505050565b60006014600083815260200190815260200160002060020160149054906101000a900460ff16611056576040517f08c379a000000000000000000000000000000000000000000000000000000000815260040161104d90613db1565b60405180910390fd5b8273ffffffffffffffffffffffffffffffffffffffff166014600084815260200190815260200160002060020160009054906101000a900473ffffffffffffffffffffffffffffffffffffffff1673ffffffffffffffffffffffffffffffffffffffff16146110fa576040517f08c379a00000000000000000000000000000000000000000000000000000000081526004016110f190613cf1565b60405180910390fd5b6111048383611ace565b905092915050565b600060149054906101000a900460ff161561115c576040517f08c379a000000000000000000000000000000000000000000000000000000000815260040161115390613d71565b60405180910390fd5b61117783838360405180602001604052806000815250611517565b505050565b6000611186610905565b82106111c7576040517f08c379a00000000000000000000000000000000000000000000000000000000081526004016111be90613d91565b60405180910390fd5b60088281548110611201577f4e487b7100000000000000000000000000000000000000000000000000000000600052603260045260246000fd5b90600052602060002001549050919050565b60006002600083815260200190815260200160002060009054906101000a900473ffffffffffffffffffffffffffffffffffffffff169050919050565b6000611299600460008473ffffffffffffffffffffffffffffffffffffffff1673ffffffffffffffffffffffffffffffffffffffff168152602001908152602001600020611bcc565b9050919050565b60008060009054906101000a900473ffffffffffffffffffffffffffffffffffffffff16905090565b6060601080546112d89061433c565b80601f01602080910402602001604051908101604052809291908181526020018280546113049061433c565b80156113515780601f1061132657610100808354040283529160200191611351565b820191906000526020600020905b81548152906001019060200180831161133457829003601f168201915b5050505050905090565b600060149054906101000a900460ff16156113ab576040517f08c379a00000000000000000000000000000000000000000000000000000000081526004016113a290613d71565b60405180910390fd5b3373ffffffffffffffffffffffffffffffffffffffff168273ffffffffffffffffffffffffffffffffffffffff16141561141a576040517f08c379a000000000000000000000000000000000000000000000000000000000815260040161141190613e31565b60405180910390fd5b80600560003373ffffffffffffffffffffffffffffffffffffffff1673ffffffffffffffffffffffffffffffffffffffff16815260200190815260200160002060008473ffffffffffffffffffffffffffffffffffffffff1673ffffffffffffffffffffffffffffffffffffffff16815260200190815260200160002060006101000a81548160ff0219169083151502179055508173ffffffffffffffffffffffffffffffffffffffff163373ffffffffffffffffffffffffffffffffffffffff167f17307eab39ab6107e8899845ad3d59bd9653f200f220920489ca2b5937696c318360405161150b9190613c94565b60405180910390a35050565b600060149054906101000a900460ff1615611567576040517f08c379a000000000000000000000000000000000000000000000000000000000815260040161155e90613d71565b60405180910390fd5b611572848484610912565b61157e84848484611bda565b6115bd576040517f08c379a00000000000000000000000000000000000000000000000000000000081526004016115b490613ef1565b60405180910390fd5b50505050565b6060601180546115d29061433c565b80601f01602080910402602001604051908101604052809291908181526020018280546115fe9061433c565b801561164b5780601f106116205761010080835404028352916020019161164b565b820191906000526020600020905b81548152906001019060200180831161162e57829003601f168201915b5050505050905090565b606061166082611cf1565b61169f576040517f08c379a000000000000000000000000000000000000000000000000000000000815260040161169690613f31565b60405180910390fd5b6012600083815260200190815260200160002080546116bd9061433c565b80601f01602080910402602001604051908101604052809291908181526020018280546116e99061433c565b80156117365780601f1061170b57610100808354040283529160200191611736565b820191906000526020600020905b81548152906001019060200180831161171957829003601f168201915b50505050509050919050565b6000600560008473ffffffffffffffffffffffffffffffffffffffff1673ffffffffffffffffffffffffffffffffffffffff16815260200190815260200160002060008373ffffffffffffffffffffffffffffffffffffffff1673ffffffffffffffffffffffffffffffffffffffff16815260200190815260200160002060009054906101000a900460ff16905092915050565b60008054906101000a900473ffffffffffffffffffffffffffffffffffffffff1673ffffffffffffffffffffffffffffffffffffffff163373ffffffffffffffffffffffffffffffffffffffff1614611864576040517f08c379a000000000000000000000000000000000000000000000000000000000815260040161185b90613ed1565b60405180910390fd5b600073ffffffffffffffffffffffffffffffffffffffff163373ffffffffffffffffffffffffffffffffffffffff1614156118d4576040517f08c379a00000000000000000000000000000000000000000000000000000000081526004016118cb90613eb1565b60405180910390fd5b3373ffffffffffffffffffffffffffffffffffffffff163273ffffffffffffffffffffffffffffffffffffffff1614611942576040517f08c379a000000000000000000000000000000000000000000000000000000000815260040161193990613f71565b60405180910390fd5b8073ffffffffffffffffffffffffffffffffffffffff1660008054906101000a900473ffffffffffffffffffffffffffffffffffffffff1673ffffffffffffffffffffffffffffffffffffffff167f626cdf6166418a6397bb90e5da5168ced0150f0bf4bc7c9389bf65369f18028060405160405180910390a3806000806101000a81548173ffffffffffffffffffffffffffffffffffffffff021916908373ffffffffffffffffffffffffffffffffffffffff16021790555050565b600080611a0b83611213565b90508073ffffffffffffffffffffffffffffffffffffffff168473ffffffffffffffffffffffffffffffffffffffff161480611a7a57508373ffffffffffffffffffffffffffffffffffffffff16611a62846105b5565b73ffffffffffffffffffffffffffffffffffffffff16145b80611a8b5750611a8a8185611742565b5b91505092915050565b611a9f838383611d63565b611aa98382611fbd565b611ab382826121ed565b505050565b60008183611ac691906141c4565b905092915050565b60008060009054906101000a900473ffffffffffffffffffffffffffffffffffffffff1673ffffffffffffffffffffffffffffffffffffffff163373ffffffffffffffffffffffffffffffffffffffff1614611b5f576040517f08c379a0000000000000000000000000000000000000000000000000000000008152600401611b5690613ed1565b60405180910390fd5b600060149054906101000a900460ff1615611baf576040517f08c379a0000000000000000000000000000000000000000000000000000000008152600401611ba690613d71565b60405180910390fd5b611bb983836122b1565b611bc2826122d2565b6001905092915050565b600081600001549050919050565b6000611bfb8473ffffffffffffffffffffffffffffffffffffffff166123e0565b611c085760019050611ce9565b60008473ffffffffffffffffffffffffffffffffffffffff1663150b7a02338887876040518563ffffffff1660e01b8152600401611c499493929190613c01565b602060405180830381600087803b158015611c6357600080fd5b505af1158015611c77573d6000803e3d6000fd5b505050506040513d601f19601f82011682018060405250810190611c9b919061351d565b905063150b7a0260e01b7bffffffffffffffffffffffffffffffffffffffffffffffffffffffff1916817bffffffffffffffffffffffffffffffffffffffffffffffffffffffff1916149150505b949350505050565b6000806002600084815260200190815260200160002060009054906101000a900473ffffffffffffffffffffffffffffffffffffffff169050600073ffffffffffffffffffffffffffffffffffffffff168173ffffffffffffffffffffffffffffffffffffffff161415915050919050565b8273ffffffffffffffffffffffffffffffffffffffff166002600083815260200190815260200160002060009054906101000a900473ffffffffffffffffffffffffffffffffffffffff1673ffffffffffffffffffffffffffffffffffffffff1614611e04576040517f08c379a0000000000000000000000000000000000000000000000000000000008152600401611dfb90613f11565b60405180910390fd5b600073ffffffffffffffffffffffffffffffffffffffff168273ffffffffffffffffffffffffffffffffffffffff161415611e74576040517f08c379a0000000000000000000000000000000000000000000000000000000008152600401611e6b90613f51565b60405180910390fd5b611e7d816123f3565b611ec4600460008573ffffffffffffffffffffffffffffffffffffffff1673ffffffffffffffffffffffffffffffffffffffff1681526020019081526020016000206124b1565b611f0b600460008473ffffffffffffffffffffffffffffffffffffffff1673ffffffffffffffffffffffffffffffffffffffff16815260200190815260200160002061250d565b816002600083815260200190815260200160002060006101000a81548173ffffffffffffffffffffffffffffffffffffffff021916908373ffffffffffffffffffffffffffffffffffffffff160217905550808273ffffffffffffffffffffffffffffffffffffffff168473ffffffffffffffffffffffffffffffffffffffff167fddf252ad1be2c89b69c2b068fc378daa952ba7f163c4a11628f55a4df523b3ef60405160405180910390a4505050565b60006120156001600660008673ffffffffffffffffffffffffffffffffffffffff1673ffffffffffffffffffffffffffffffffffffffff1681526020019081526020016000208054905061252390919063ffffffff16565b905060006007600084815260200190815260200160002054905081811461215c576000600660008673ffffffffffffffffffffffffffffffffffffffff1673ffffffffffffffffffffffffffffffffffffffff16815260200190815260200160002083815481106120af577f4e487b7100000000000000000000000000000000000000000000000000000000600052603260045260246000fd5b9060005260206000200154905080600660008773ffffffffffffffffffffffffffffffffffffffff1673ffffffffffffffffffffffffffffffffffffffff1681526020019081526020016000208381548110612134577f4e487b7100000000000000000000000000000000000000000000000000000000600052603260045260246000fd5b9060005260206000200181905550816007600083815260200190815260200160002081905550505b600660008573ffffffffffffffffffffffffffffffffffffffff1673ffffffffffffffffffffffffffffffffffffffff1681526020019081526020016000208054806121d1577f4e487b7100000000000000000000000000000000000000000000000000000000600052603160045260246000fd5b6001900381819060005260206000200160009055905550505050565b600660008373ffffffffffffffffffffffffffffffffffffffff1673ffffffffffffffffffffffffffffffffffffffff168152602001908152602001600020805490506007600083815260200190815260200160002081905550600660008373ffffffffffffffffffffffffffffffffffffffff1673ffffffffffffffffffffffffffffffffffffffff1681526020019081526020016000208190806001815401808255809150506001900390600052602060002001600090919091909150555050565b6122bb8282612539565b6122c582826121ed565b6122ce816126ea565b5050565b6122db81611cf1565b61231a576040517f08c379a000000000000000000000000000000000000000000000000000000000815260040161231190613e71565b60405180910390fd5b6123b66011805461232a9061433c565b80601f01602080910402602001604051908101604052809291908181526020018280546123569061433c565b80156123a35780601f10612378576101008083540402835291602001916123a3565b820191906000526020600020905b81548152906001019060200180831161238657829003601f168201915b50505050506123b183612733565b6128e3565b6012600083815260200190815260200160002090805190602001906123dc929190612ea9565b5050565b600080823b905060008111915050919050565b600073ffffffffffffffffffffffffffffffffffffffff166003600083815260200190815260200160002060009054906101000a900473ffffffffffffffffffffffffffffffffffffffff1673ffffffffffffffffffffffffffffffffffffffff16146124ae5760006003600083815260200190815260200160002060006101000a81548173ffffffffffffffffffffffffffffffffffffffff021916908373ffffffffffffffffffffffffffffffffffffffff1602179055505b50565b600081600001549050600081116124fd576040517f08c379a00000000000000000000000000000000000000000000000000000000081526004016124f490613d31565b60405180910390fd5b6001810382600001819055505050565b6001816000016000828254019250508190555050565b60008183612531919061421e565b905092915050565b61254281611cf1565b15612582576040517f08c379a000000000000000000000000000000000000000000000000000000000815260040161257990613e11565b60405180910390fd5b600073ffffffffffffffffffffffffffffffffffffffff168273ffffffffffffffffffffffffffffffffffffffff1614156125f2576040517f08c379a00000000000000000000000000000000000000000000000000000000081526004016125e990613f51565b60405180910390fd5b816002600083815260200190815260200160002060006101000a81548173ffffffffffffffffffffffffffffffffffffffff021916908373ffffffffffffffffffffffffffffffffffffffff16021790555061268b600460008473ffffffffffffffffffffffffffffffffffffffff1673ffffffffffffffffffffffffffffffffffffffff16815260200190815260200160002061250d565b808273ffffffffffffffffffffffffffffffffffffffff163373ffffffffffffffffffffffffffffffffffffffff167fddf252ad1be2c89b69c2b068fc378daa952ba7f163c4a11628f55a4df523b3ef60405160405180910390a45050565b6008805490506009600083815260200190815260200160002081905550600881908060018154018082558091505060019003906000526020600020016000909190919091505550565b6060600082141561277b576040518060400160405280600181526020017f300000000000000000000000000000000000000000000000000000000000000081525090506128de565b600082905060005b600082146127ad5780806127969061439f565b915050600a826127a69190614193565b9150612783565b60008167ffffffffffffffff8111156127ef577f4e487b7100000000000000000000000000000000000000000000000000000000600052604160045260246000fd5b6040519080825280601f01601f1916602001820160405280156128215781602001600182028036833780820191505090505b50905060008290505b600086146128d657600a8661283f91906143e8565b603061284b919061413d565b60f81b828261285990614312565b92508281518110612893577f4e487b7100000000000000000000000000000000000000000000000000000000600052603260045260246000fd5b60200101907effffffffffffffffffffffffffffffffffffffffffffffffffffffffffffff1916908160001a905350600a866128cf9190614193565b955061282a565b819450505050505b919050565b606061291f8383604051806020016040528060008152506040518060200160405280600081525060405180602001604052806000815250612927565b905092915050565b606060008690506000869050600086905060008690506000869050600081518351855187518951612958919061413d565b612962919061413d565b61296c919061413d565b612976919061413d565b67ffffffffffffffff8111156129b5577f4e487b7100000000000000000000000000000000000000000000000000000000600052604160045260246000fd5b6040519080825280601f01601f1916602001820160405280156129e75781602001600182028036833780820191505090505b5090506000819050600080600090505b8851811015612acb57888181518110612a39577f4e487b7100000000000000000000000000000000000000000000000000000000600052603260045260246000fd5b602001015160f81c60f81b838380612a509061439f565b945081518110612a89577f4e487b7100000000000000000000000000000000000000000000000000000000600052603260045260246000fd5b60200101907effffffffffffffffffffffffffffffffffffffffffffffffffffffffffffff1916908160001a9053508080612ac39061439f565b9150506129f7565b600090505b8751811015612ba457878181518110612b12577f4e487b7100000000000000000000000000000000000000000000000000000000600052603260045260246000fd5b602001015160f81c60f81b838380612b299061439f565b945081518110612b62577f4e487b7100000000000000000000000000000000000000000000000000000000600052603260045260246000fd5b60200101907effffffffffffffffffffffffffffffffffffffffffffffffffffffffffffff1916908160001a9053508080612b9c9061439f565b915050612ad0565b600090505b8651811015612c7d57868181518110612beb577f4e487b7100000000000000000000000000000000000000000000000000000000600052603260045260246000fd5b602001015160f81c60f81b838380612c029061439f565b945081518110612c3b577f4e487b7100000000000000000000000000000000000000000000000000000000600052603260045260246000fd5b60200101907effffffffffffffffffffffffffffffffffffffffffffffffffffffffffffff1916908160001a9053508080612c759061439f565b915050612ba9565b600090505b8551811015612d5657858181518110612cc4577f4e487b7100000000000000000000000000000000000000000000000000000000600052603260045260246000fd5b602001015160f81c60f81b838380612cdb9061439f565b945081518110612d14577f4e487b7100000000000000000000000000000000000000000000000000000000600052603260045260246000fd5b60200101907effffffffffffffffffffffffffffffffffffffffffffffffffffffffffffff1916908160001a9053508080612d4e9061439f565b915050612c82565b600090505b8451811015612e2f57848181518110612d9d577f4e487b7100000000000000000000000000000000000000000000000000000000600052603260045260246000fd5b602001015160f81c60f81b838380612db49061439f565b945081518110612ded577f4e487b7100000000000000000000000000000000000000000000000000000000600052603260045260246000fd5b60200101907effffffffffffffffffffffffffffffffffffffffffffffffffffffffffffff1916908160001a9053508080612e279061439f565b915050612d5b565b82995050505050505050505095945050505050565b6040518060400160405280600290602082028036833780820191505090505090565b60405180608001604052806000815260200160008019168152602001600073ffffffffffffffffffffffffffffffffffffffff1681526020016000151581525090565b828054612eb59061433c565b90600052602060002090601f016020900481019282612ed75760008555612f1e565b82601f10612ef057805160ff1916838001178555612f1e565b82800160010185558215612f1e579182015b82811115612f1d578251825591602001919060010190612f02565b5b509050612f2b9190612f2f565b5090565b5b80821115612f48576000816000905550600101612f30565b5090565b6000612f5f612f5a84613fd1565b613fac565b90508082856040860282011115612f7557600080fd5b60005b85811015612fa55781612f8b88826130ca565b845260208401935060408301925050600181019050612f78565b5050509392505050565b6000612fc2612fbd84613ff7565b613fac565b90508082856020860282011115612fd857600080fd5b60005b858110156130085781612fee88826131ae565b845260208401935060208301925050600181019050612fdb565b5050509392505050565b60006130256130208461401d565b613fac565b90508281526020810184848401111561303d57600080fd5b6130488482856142d0565b509392505050565b600061306361305e8461404e565b613fac565b90508281526020810184848401111561307b57600080fd5b6130868482856142d0565b509392505050565b60008135905061309d816149e8565b92915050565b600082601f8301126130b457600080fd5b60026130c1848285612f4c565b91505092915050565b600082601f8301126130db57600080fd5b60026130e8848285612faf565b91505092915050565b600081359050613100816149ff565b92915050565b600081519050613115816149ff565b92915050565b60008135905061312a81614a16565b92915050565b60008135905061313f81614a2d565b92915050565b60008151905061315481614a2d565b92915050565b600082601f83011261316b57600080fd5b813561317b848260208601613012565b91505092915050565b600082601f83011261319557600080fd5b81356131a5848260208601613050565b91505092915050565b6000813590506131bd81614a44565b92915050565b6000602082840312156131d557600080fd5b60006131e38482850161308e565b91505092915050565b600080604083850312156131ff57600080fd5b600061320d8582860161308e565b925050602061321e8582860161308e565b9150509250929050565b60008060006060848603121561323d57600080fd5b600061324b8682870161308e565b935050602061325c8682870161308e565b925050604061326d868287016131ae565b9150509250925092565b6000806000806080858703121561328d57600080fd5b600061329b8782880161308e565b94505060206132ac8782880161308e565b93505060406132bd878288016131ae565b925050606085013567ffffffffffffffff8111156132da57600080fd5b6132e68782880161315a565b91505092959194509250565b6000806040838503121561330557600080fd5b60006133138582860161308e565b9250506020613324858286016130f1565b9150509250929050565b6000806040838503121561334157600080fd5b600061334f8582860161308e565b9250506020613360858286016131ae565b9150509250929050565b600080600080610120858703121561338157600080fd5b600061338f878288016130ca565b94505060406133a0878288016130a3565b93505060c06133b1878288016130ca565b9250506101006133c3878288016131ae565b91505092959194509250565b6000602082840312156133e157600080fd5b60006133ef848285016130f1565b91505092915050565b60006020828403121561340a57600080fd5b600061341884828501613106565b91505092915050565b6000806040838503121561343457600080fd5b60006134428582860161311b565b925050602083013567ffffffffffffffff81111561345f57600080fd5b61346b85828601613184565b9150509250929050565b60008060006060848603121561348a57600080fd5b60006134988682870161311b565b935050602084013567ffffffffffffffff8111156134b557600080fd5b6134c186828701613184565b925050604084013567ffffffffffffffff8111156134de57600080fd5b6134ea8682870161315a565b9150509250925092565b60006020828403121561350657600080fd5b600061351484828501613130565b91505092915050565b60006020828403121561352f57600080fd5b600061353d84828501613145565b91505092915050565b60006020828403121561355857600080fd5b6000613566848285016131ae565b91505092915050565b600061357b838361368c565b60408301905092915050565b6000613593838361373a565b60408301905092915050565b60006135ab8383613b6b565b60208301905092915050565b60006135c38383613b89565b60208301905092915050565b6135d881614252565b82525050565b6135e781614093565b6135f181846140d9565b92506135fc8261407f565b8060005b8381101561362d578151613614878261356f565b965061361f836140bf565b925050600181019050613600565b505050505050565b61363e81614093565b61364881846140e4565b92506136538261407f565b8060005b8381101561368457815161366b8782613587565b9650613676836140bf565b925050600181019050613657565b505050505050565b6136958161409e565b61369f81846140ef565b92506136aa82614089565b8060005b838110156136db5781516136c2878261359f565b96506136cd836140cc565b9250506001810190506136ae565b505050505050565b6136ec8161409e565b6136f681846140fa565b925061370182614089565b8060005b83811015613732578151613719878261359f565b9650613724836140cc565b925050600181019050613705565b505050505050565b6137438161409e565b61374d8184614105565b925061375882614089565b8060005b8381101561378957815161377087826135b7565b965061377b836140cc565b92505060018101905061375c565b505050505050565b61379a8161409e565b6137a48184614110565b92506137af82614089565b8060005b838110156137e05781516137c787826135b7565b96506137d2836140cc565b9250506001810190506137b3565b505050505050565b6137f181614264565b82525050565b6000613802826140a9565b61380c818561411b565b935061381c8185602086016142df565b613825816144d5565b840191505092915050565b600061383b826140b4565b613845818561412c565b93506138558185602086016142df565b61385e816144d5565b840191505092915050565b6000613876601d8361412c565b9150613881826144e6565b602082019050919050565b600061389960148361412c565b91506138a48261450f565b602082019050919050565b60006138bc601f8361412c565b91506138c782614538565b602082019050919050565b60006138df601b8361412c565b91506138ea82614561565b602082019050919050565b600061390260278361412c565b915061390d8261458a565b604082019050919050565b6000613925603f8361412c565b9150613930826145d9565b604082019050919050565b600061394860298361412c565b915061395382614628565b604082019050919050565b600061396b60208361412c565b915061397682614677565b602082019050919050565b600061398e60178361412c565b9150613999826146a0565b602082019050919050565b60006139b160248361412c565b91506139bc826146c9565b604082019050919050565b60006139d460138361412c565b91506139df82614718565b602082019050919050565b60006139f760268361412c565b9150613a0282614741565b604082019050919050565b6000613a1a601d8361412c565b9150613a2582614790565b602082019050919050565b6000613a3d60148361412c565b9150613a48826147b9565b602082019050919050565b6000613a60604b8361412c565b9150613a6b826147e2565b606082019050919050565b6000613a83601d8361412c565b9150613a8e82614857565b602082019050919050565b6000613aa660248361412c565b9150613ab182614880565b604082019050919050565b6000613ac960268361412c565b9150613ad4826148cf565b604082019050919050565b6000613aec602a8361412c565b9150613af78261491e565b604082019050919050565b6000613b0f60168361412c565b9150613b1a8261496d565b602082019050919050565b6000613b3260158361412c565b9150613b3d82614996565b602082019050919050565b6000613b5560148361412c565b9150613b60826149bf565b602082019050919050565b613b74816142c6565b82525050565b613b83816142c6565b82525050565b613b92816142c6565b82525050565b6000613ba48287613791565b604082019150613bb48286613635565b608082019150613bc48285613791565b604082019150613bd48284613791565b60408201915081905095945050505050565b6000602082019050613bfb60008301846135cf565b92915050565b6000608082019050613c1660008301876135cf565b613c2360208301866135cf565b613c306040830185613b7a565b8181036060830152613c4281846137f7565b905095945050505050565b600061014082019050613c6360008301876136e3565b613c7060408301866135de565b613c7d60c08301856136e3565b613c8b6101008301846136e3565b95945050505050565b6000602082019050613ca960008301846137e8565b92915050565b60006020820190508181036000830152613cc98184613830565b905092915050565b60006020820190508181036000830152613cea81613869565b9050919050565b60006020820190508181036000830152613d0a8161388c565b9050919050565b60006020820190508181036000830152613d2a816138af565b9050919050565b60006020820190508181036000830152613d4a816138d2565b9050919050565b60006020820190508181036000830152613d6a816138f5565b9050919050565b60006020820190508181036000830152613d8a81613918565b9050919050565b60006020820190508181036000830152613daa8161393b565b9050919050565b60006020820190508181036000830152613dca8161395e565b9050919050565b60006020820190508181036000830152613dea81613981565b9050919050565b60006020820190508181036000830152613e0a816139a4565b9050919050565b60006020820190508181036000830152613e2a816139c7565b9050919050565b60006020820190508181036000830152613e4a816139ea565b9050919050565b60006020820190508181036000830152613e6a81613a0d565b9050919050565b60006020820190508181036000830152613e8a81613a30565b9050919050565b60006020820190508181036000830152613eaa81613a53565b9050919050565b60006020820190508181036000830152613eca81613a76565b9050919050565b60006020820190508181036000830152613eea81613a99565b9050919050565b60006020820190508181036000830152613f0a81613abc565b9050919050565b60006020820190508181036000830152613f2a81613adf565b9050919050565b60006020820190508181036000830152613f4a81613b02565b9050919050565b60006020820190508181036000830152613f6a81613b25565b9050919050565b60006020820190508181036000830152613f8a81613b48565b9050919050565b6000602082019050613fa66000830184613b7a565b92915050565b6000613fb6613fc7565b9050613fc2828261436e565b919050565b6000604051905090565b600067ffffffffffffffff821115613fec57613feb6144a6565b5b602082029050919050565b600067ffffffffffffffff821115614012576140116144a6565b5b602082029050919050565b600067ffffffffffffffff821115614038576140376144a6565b5b614041826144d5565b9050602081019050919050565b600067ffffffffffffffff821115614069576140686144a6565b5b614072826144d5565b9050602081019050919050565b6000819050919050565b6000819050919050565b600060029050919050565b600060029050919050565b600081519050919050565b600081519050919050565b6000602082019050919050565b6000602082019050919050565b600081905092915050565b600081905092915050565b600081905092915050565b600081905092915050565b600081905092915050565b600081905092915050565b600082825260208201905092915050565b600082825260208201905092915050565b6000614148826142c6565b9150614153836142c6565b9250827fffffffffffffffffffffffffffffffffffffffffffffffffffffffffffffffff0382111561418857614187614419565b5b828201905092915050565b600061419e826142c6565b91506141a9836142c6565b9250826141b9576141b8614448565b5b828204905092915050565b60006141cf826142c6565b91506141da836142c6565b9250817fffffffffffffffffffffffffffffffffffffffffffffffffffffffffffffffff048311821515161561421357614212614419565b5b828202905092915050565b6000614229826142c6565b9150614234836142c6565b92508282101561424757614246614419565b5b828203905092915050565b600061425d826142a6565b9050919050565b60008115159050919050565b6000819050919050565b60007fffffffff0000000000000000000000000000000000000000000000000000000082169050919050565b600073ffffffffffffffffffffffffffffffffffffffff82169050919050565b6000819050919050565b82818337600083830152505050565b60005b838110156142fd5780820151818401526020810190506142e2565b8381111561430c576000848401525b50505050565b600061431d826142c6565b9150600082141561433157614330614419565b5b600182039050919050565b6000600282049050600182168061435457607f821691505b6020821081141561436857614367614477565b5b50919050565b614377826144d5565b810181811067ffffffffffffffff82111715614396576143956144a6565b5b80604052505050565b60006143aa826142c6565b91507fffffffffffffffffffffffffffffffffffffffffffffffffffffffffffffffff8214156143dd576143dc614419565b5b600182019050919050565b60006143f3826142c6565b91506143fe836142c6565b92508261440e5761440d614448565b5b828206905092915050565b7f4e487b7100000000000000000000000000000000000000000000000000000000600052601160045260246000fd5b7f4e487b7100000000000000000000000000000000000000000000000000000000600052601260045260246000fd5b7f4e487b7100000000000000000000000000000000000000000000000000000000600052602260045260246000fd5b7f4e487b7100000000000000000000000000000000000000000000000000000000600052604160045260246000fd5b6000601f19601f8301169050919050565b7f536f6c7574696f6e2077617320616c72656164792070726f7669646564000000600082015250565b7f546f6b656e206f776e65722069732077726f6e67000000000000000000000000600082015250565b7f5468697320746f6b656e2077617320616c726561647920766572696669656400600082015250565b7f436f756e7465723a2064656372656d656e74206f766572666c6f770000000000600082015250565b7f44657374696e6174696f6e2063616e6e6f74206265207468652063757272656e60008201527f74206f776e657200000000000000000000000000000000000000000000000000602082015250565b7f436f6e7472616374206d757374206e6f742062652070617573656420696e206f60008201527f7264657220746f2063616c6c20746869732066756e6374696f6e616c69747900602082015250565b7f496e646578206d757374206265206c6f776572207468616e2074686520746f7460008201527f616c20737570706c790000000000000000000000000000000000000000000000602082015250565b7f546f6b656e206f776e65727368697020776173206e6f74207665726966696564600082015250565b7f50726f76696465642070726f6f662069732077726f6e67000000000000000000600082015250565b7f496e646578206d757374206265206c6f776572207468616e20746f6b656e206360008201527f6f756e7400000000000000000000000000000000000000000000000000000000602082015250565b7f546f6b656e20616c726561647920657869737400000000000000000000000000600082015250565b7f43616c6c65722063616e6e6f742073657420617070726f76616c20666f72206860008201527f696d73656c660000000000000000000000000000000000000000000000000000602082015250565b7f4163636f756e74206e6f7420617070726f766564206f72206f776e6572000000600082015250565b7f546f6b656e20646f6573206e6f74206578697374000000000000000000000000600082015250565b7f43616c6c6572206973206e6f742063757272656e74206f776e6572206f72206460008201527f6f6573206e6f74206861766520617070726f76616c20746f207472616e736d6960208201527f742074686520746f6b656e000000000000000000000000000000000000000000604082015250565b7f43616c6c65722063616e6e6f74206265206e756c6c2061646472657373000000600082015250565b7f43616c6c6572206d757374206265206f776e6572206f662074686520636f6e7460008201527f7261637400000000000000000000000000000000000000000000000000000000602082015250565b7f43616e6e6f74207472616e736665722045524337323120746f2074686973206160008201527f63636f756e740000000000000000000000000000000000000000000000000000602082015250565b7f46726f6d2061646472657373206973206e6f7420746865206f776e6572206f6660008201527f2074686520746f6b656e00000000000000000000000000000000000000000000602082015250565b7f546f6b656e494420646f6573206e6f7420657869737400000000000000000000600082015250565b7f546f206164647265737320697320696e76616c69640000000000000000000000600082015250565b7f43616c6c6572206d757374206265206120454f41000000000000000000000000600082015250565b6149f181614252565b81146149fc57600080fd5b50565b614a0881614264565b8114614a1357600080fd5b50565b614a1f81614270565b8114614a2a57600080fd5b50565b614a368161427a565b8114614a4157600080fd5b50565b614a4d816142c6565b8114614a5857600080fd5b5056fea2646970667358221220e4b4c09f83845e6a2874f5cf651ece3e89794a5dfa4c729f9084a9bb61a79cbe64736f6c6343000804003368747470733a2f2f73332d75732d776573742d322e616d617a6f6e6177732e636f6d2f756461636974792d626c6f636b636861696e2f63617073746f6e652f",
  "immutableReferences": {},
  "source": "// \"SPDX-License-Identifier: MIYA\"\npragma solidity ^0.8.0;\n\nimport \"./Verifier.sol\";\nimport \"./ERC721Mintable.sol\";\nimport \"@openzeppelin/contracts/utils/math/SafeMath.sol\";\n\ncontract SolnSquareVerifier is MiyaERC721Token {\n    using SafeMath for uint256;\n\n    struct Solution {\n        uint256 tokenId;\n        bytes32 index;\n        address prover;\n        bool isVerified;\n    }\n\n    mapping(bytes32 => Solution) private uniqueSolutionsByIndex;\n    mapping(uint256 => Solution) private uniqueSolutionsByToken;\n\n    Verifier private verifier;\n\n    event NEW_SOLUTION(\n        uint256 indexed _tokenId,\n        bytes32 indexed _index,\n        address indexed _prover\n    );\n\n    constructor(address _verifier) MiyaERC721Token() {\n        verifier = Verifier(_verifier);\n    }\n\n    function addSolution(\n        uint256[2] memory a,\n        uint256[2][2] memory b,\n        uint256[2] memory c,\n        uint256 tokenId\n    ) public whenNotPaused {\n        uint256[2] memory input;\n        input[0] = tokenId.mul(tokenId);\n        input[1] = 1;\n        bytes32 index = keccak256(abi.encodePacked(a, b, c, input));\n        require(\n            !uniqueSolutionsByIndex[index].isVerified,\n            \"Solution was already provided\"\n        );\n        require(\n            !uniqueSolutionsByToken[tokenId].isVerified,\n            \"This token was already verified\"\n        );\n\n        require(verifier.verifyTx(a, b, c, input), \"Provided proof is wrong\");\n\n        Solution memory solution;\n        solution.tokenId = tokenId;\n        solution.index = index;\n        solution.prover = msg.sender;\n        solution.isVerified = true;\n        uniqueSolutionsByIndex[index] = solution;\n        uniqueSolutionsByToken[tokenId] = solution;\n        emit NEW_SOLUTION(tokenId, solution.index, solution.prover);\n    }\n\n    function mint(address to, uint256 tokenId) public override returns (bool) {\n        require(\n            uniqueSolutionsByToken[tokenId].isVerified,\n            \"Token ownership was not verified\"\n        );\n        require(\n            uniqueSolutionsByToken[tokenId].prover == to,\n            \"Token owner is wrong\"\n        );\n        return super.mint(to, tokenId);\n    }\n}\n",
  "sourcePath": "/Users/amine/Documents/programmes/Blockchain/Udacity/Blockchain-Capstone/eth-contracts/contracts/SolnSquareVerifier.sol",
  "compiler": {
    "name": "solc",
    "version": "0.8.4+commit.c7e474f2.Emscripten.clang"
  },
  "schemaVersion": "3.4.1",
  "updatedAt": "2021-06-19T20:31:25.897Z",
  "networkType": "ethereum",
  "devdoc": {
    "kind": "dev",
    "methods": {
      "__callback(bytes32,string)": {
        "details": "The following `__callback` functions are just placeholders ideally      meant to be defined in child contract when proofs are used.      The function bodies simply silence compiler warnings."
      },
      "isApprovedForAll(address,address)": {
        "details": "Tells whether an operator is approved by a given owner",
        "params": {
          "operator": "operator address which you want to query the approval of",
          "owner": "owner address which you want to query the approval of"
        },
        "returns": {
          "_0": "bool whether the given operator is approved by the given owner"
        }
      },
      "setApprovalForAll(address,bool)": {
        "details": "Sets or unsets the approval of a given operator An operator is allowed to transfer all tokens of the sender on their behalf",
        "params": {
          "approved": "representing the status of the approval to be set",
          "to": "operator address to set the approval"
        }
      },
      "supportsInterface(bytes4)": {
        "details": "implement supportsInterface(bytes4) using a lookup table"
      },
      "tokenByIndex(uint256)": {
        "details": "Gets the token ID at a given index of all the tokens in this contract Reverts if the index is greater or equal to the total number of tokens",
        "params": {
          "index": "uint256 representing the index to be accessed of the tokens list"
        },
        "returns": {
          "_0": "uint256 token ID at the given index of the tokens list"
        }
      },
      "tokenOfOwnerByIndex(address,uint256)": {
        "details": "Gets the token ID at a given index of the tokens list of the requested owner",
        "params": {
          "index": "uint256 representing the index to be accessed of the requested tokens list",
          "owner": "address owning the tokens list to be accessed"
        },
        "returns": {
          "_0": "uint256 token ID at the given index of the tokens list owned by the requested address"
        }
      },
      "totalSupply()": {
        "details": "Gets the total amount of tokens stored by the contract",
        "returns": {
          "_0": "uint256 representing the total amount of tokens"
        }
      }
    },
    "version": 1
  },
  "userdoc": {
    "kind": "user",
    "methods": {},
    "version": 1
  }
}